{
	"contracts/MyERC20.sol": {
		"MyERC20": {
			"abi": [
				{
					"inputs": [
						{
							"internalType": "uint256",
							"name": "number",
							"type": "uint256"
						}
					],
					"name": "convertToSmallerUnit",
					"outputs": [
						{
							"internalType": "string",
							"name": "",
							"type": "string"
						}
					],
					"stateMutability": "pure",
					"type": "function"
				},
				{
					"inputs": [
						{
							"internalType": "uint256",
							"name": "number",
							"type": "uint256"
						}
					],
					"name": "getUintLength",
					"outputs": [
						{
							"internalType": "uint256",
							"name": "",
							"type": "uint256"
						}
					],
					"stateMutability": "pure",
					"type": "function"
				}
			],
			"devdoc": {
				"kind": "dev",
				"methods": {},
				"version": 1
			},
			"evm": {
				"assembly": "    /* \"contracts/MyERC20.sol\":253:1514  contract MyERC20{... */\n  mstore(0x40, 0x80)\n  callvalue\n  dup1\n  iszero\n  tag_1\n  jumpi\n  0x00\n  dup1\n  revert\ntag_1:\n  pop\n  dataSize(sub_0)\n  dup1\n  dataOffset(sub_0)\n  0x00\n  codecopy\n  0x00\n  return\nstop\n\nsub_0: assembly {\n        /* \"contracts/MyERC20.sol\":253:1514  contract MyERC20{... */\n      mstore(0x40, 0x80)\n      callvalue\n      dup1\n      iszero\n      tag_1\n      jumpi\n      0x00\n      dup1\n      revert\n    tag_1:\n      pop\n      jumpi(tag_2, lt(calldatasize, 0x04))\n      shr(0xe0, calldataload(0x00))\n      dup1\n      0x212e31d6\n      eq\n      tag_3\n      jumpi\n      dup1\n      0x661a03da\n      eq\n      tag_4\n      jumpi\n    tag_2:\n      0x00\n      dup1\n      revert\n        /* \"contracts/MyERC20.sol\":473:1296  function convertToSmallerUnit(uint number) public pure returns (string memory) {... */\n    tag_3:\n      tag_5\n      0x04\n      dup1\n      calldatasize\n      sub\n      dup2\n      add\n      swap1\n      tag_6\n      swap2\n      swap1\n      tag_7\n      jump\t// in\n    tag_6:\n      tag_8\n      jump\t// in\n    tag_5:\n      mload(0x40)\n      tag_9\n      swap2\n      swap1\n      tag_10\n      jump\t// in\n    tag_9:\n      mload(0x40)\n      dup1\n      swap2\n      sub\n      swap1\n      return\n        /* \"contracts/MyERC20.sol\":1302:1511  function getUintLength(uint number) public pure returns (uint) {... */\n    tag_4:\n      tag_11\n      0x04\n      dup1\n      calldatasize\n      sub\n      dup2\n      add\n      swap1\n      tag_12\n      swap2\n      swap1\n      tag_7\n      jump\t// in\n    tag_12:\n      tag_13\n      jump\t// in\n    tag_11:\n      mload(0x40)\n      tag_14\n      swap2\n      swap1\n      tag_15\n      jump\t// in\n    tag_14:\n      mload(0x40)\n      dup1\n      swap2\n      sub\n      swap1\n      return\n        /* \"contracts/MyERC20.sol\":473:1296  function convertToSmallerUnit(uint number) public pure returns (string memory) {... */\n    tag_8:\n        /* \"contracts/MyERC20.sol\":537:550  string memory */\n      0x60\n        /* \"contracts/MyERC20.sol\":563:575  uint decimal */\n      0x00\n        /* \"contracts/MyERC20.sol\":578:580  18 */\n      0x12\n        /* \"contracts/MyERC20.sol\":563:580  uint decimal = 18 */\n      swap1\n      pop\n        /* \"contracts/MyERC20.sol\":591:616  bytes memory entireNumber */\n      0x00\n        /* \"contracts/MyERC20.sol\":630:636  number */\n      dup4\n        /* \"contracts/MyERC20.sol\":619:637  abi.encode(number) */\n      add(0x20, mload(0x40))\n      tag_17\n      swap2\n      swap1\n      tag_15\n      jump\t// in\n    tag_17:\n      mload(0x40)\n      0x20\n      dup2\n      dup4\n      sub\n      sub\n      dup2\n      mstore\n      swap1\n      0x40\n      mstore\n        /* \"contracts/MyERC20.sol\":591:637  bytes memory entireNumber = abi.encode(number) */\n      swap1\n      pop\n        /* \"contracts/MyERC20.sol\":679:697  uint dividedNumber */\n      0x00\n        /* \"contracts/MyERC20.sol\":709:715  10**18 */\n      0x0de0b6b3a7640000\n        /* \"contracts/MyERC20.sol\":700:706  number */\n      dup6\n        /* \"contracts/MyERC20.sol\":700:715  number / 10**18 */\n      tag_18\n      swap2\n      swap1\n      tag_19\n      jump\t// in\n    tag_18:\n        /* \"contracts/MyERC20.sol\":679:715  uint dividedNumber = number / 10**18 */\n      swap1\n      pop\n        /* \"contracts/MyERC20.sol\":727:756  string memory convertedNumber */\n      0x00\n        /* \"contracts/MyERC20.sol\":759:790  Strings.toString(dividedNumber) */\n      tag_20\n        /* \"contracts/MyERC20.sol\":776:789  dividedNumber */\n      dup3\n        /* \"contracts/MyERC20.sol\":759:775  Strings.toString */\n      tag_21\n        /* \"contracts/MyERC20.sol\":759:790  Strings.toString(dividedNumber) */\n      jump\t// in\n    tag_20:\n        /* \"contracts/MyERC20.sol\":727:790  string memory convertedNumber = Strings.toString(dividedNumber) */\n      swap1\n      pop\n        /* \"contracts/MyERC20.sol\":831:854  bytes memory lastNumber */\n      0x00\n        /* \"contracts/MyERC20.sol\":867:874  decimal */\n      dup5\n        /* \"contracts/MyERC20.sol\":857:875  new bytes(decimal) */\n      0xffffffffffffffff\n      dup2\n      gt\n      iszero\n      tag_22\n      jumpi\n      tag_23\n      tag_24\n      jump\t// in\n    tag_23:\n    tag_22:\n      mload(0x40)\n      swap1\n      dup1\n      dup3\n      mstore\n      dup1\n      0x1f\n      add\n      not(0x1f)\n      and\n      0x20\n      add\n      dup3\n      add\n      0x40\n      mstore\n      dup1\n      iszero\n      tag_25\n      jumpi\n      dup2\n      0x20\n      add\n      0x01\n      dup3\n      mul\n      dup1\n      calldatasize\n      dup4\n      calldatacopy\n      dup1\n      dup3\n      add\n      swap2\n      pop\n      pop\n      swap1\n      pop\n    tag_25:\n      pop\n        /* \"contracts/MyERC20.sol\":831:875  bytes memory lastNumber = new bytes(decimal) */\n      swap1\n      pop\n        /* \"contracts/MyERC20.sol\":886:894  uint len */\n      0x00\n        /* \"contracts/MyERC20.sol\":897:918  getUintLength(number) */\n      tag_26\n        /* \"contracts/MyERC20.sol\":911:917  number */\n      dup9\n        /* \"contracts/MyERC20.sol\":897:910  getUintLength */\n      tag_13\n        /* \"contracts/MyERC20.sol\":897:918  getUintLength(number) */\n      jump\t// in\n    tag_26:\n        /* \"contracts/MyERC20.sol\":886:918  uint len = getUintLength(number) */\n      swap1\n      pop\n        /* \"contracts/MyERC20.sol\":929:935  uint j */\n      0x00\n        /* \"contracts/MyERC20.sol\":936:937  1 */\n      0x01\n        /* \"contracts/MyERC20.sol\":929:937  uint j=1 */\n      swap1\n      pop\n        /* \"contracts/MyERC20.sol\":952:958  uint i */\n      0x00\n        /* \"contracts/MyERC20.sol\":967:968  1 */\n      0x01\n        /* \"contracts/MyERC20.sol\":959:966  decimal */\n      dup9\n        /* \"contracts/MyERC20.sol\":959:968  decimal-1 */\n      tag_30\n      swap2\n      swap1\n      tag_31\n      jump\t// in\n    tag_30:\n        /* \"contracts/MyERC20.sol\":952:968  uint i=decimal-1 */\n      swap1\n      pop\n        /* \"contracts/MyERC20.sol\":948:1194  for(uint i=decimal-1; i>0; i--){... */\n    tag_27:\n        /* \"contracts/MyERC20.sol\":972:973  0 */\n      0x00\n        /* \"contracts/MyERC20.sol\":970:971  i */\n      dup2\n        /* \"contracts/MyERC20.sol\":970:973  i>0 */\n      gt\n        /* \"contracts/MyERC20.sol\":948:1194  for(uint i=decimal-1; i>0; i--){... */\n      iszero\n      tag_28\n      jumpi\n        /* \"contracts/MyERC20.sol\":1004:1005  0 */\n      0x00\n        /* \"contracts/MyERC20.sol\":1001:1002  j */\n      dup3\n        /* \"contracts/MyERC20.sol\":997:1000  len */\n      dup5\n        /* \"contracts/MyERC20.sol\":997:1002  len-j */\n      tag_32\n      swap2\n      swap1\n      tag_31\n      jump\t// in\n    tag_32:\n        /* \"contracts/MyERC20.sol\":997:1005  len-j>=0 */\n      lt\n        /* \"contracts/MyERC20.sol\":994:1165  if(len-j>=0){... */\n      tag_33\n      jumpi\n        /* \"contracts/MyERC20.sol\":1025:1033  bytes1 c */\n      0x00\n        /* \"contracts/MyERC20.sol\":1036:1048  entireNumber */\n      dup8\n        /* \"contracts/MyERC20.sol\":1053:1054  j */\n      dup4\n        /* \"contracts/MyERC20.sol\":1049:1052  len */\n      dup6\n        /* \"contracts/MyERC20.sol\":1049:1054  len-j */\n      tag_34\n      swap2\n      swap1\n      tag_31\n      jump\t// in\n    tag_34:\n        /* \"contracts/MyERC20.sol\":1036:1055  entireNumber[len-j] */\n      dup2\n      mload\n      dup2\n      lt\n      tag_35\n      jumpi\n      tag_36\n      tag_37\n      jump\t// in\n    tag_36:\n    tag_35:\n      0x20\n      add\n      add\n      mload\n      0xf8\n      shr\n      0xf8\n      shl\n        /* \"contracts/MyERC20.sol\":1025:1055  bytes1 c = entireNumber[len-j] */\n      swap1\n      pop\n        /* \"contracts/MyERC20.sol\":1090:1091  c */\n      dup1\n        /* \"contracts/MyERC20.sol\":1074:1084  lastNumber */\n      dup6\n        /* \"contracts/MyERC20.sol\":1085:1086  i */\n      dup4\n        /* \"contracts/MyERC20.sol\":1074:1087  lastNumber[i] */\n      dup2\n      mload\n      dup2\n      lt\n      tag_38\n      jumpi\n      tag_39\n      tag_37\n      jump\t// in\n    tag_39:\n    tag_38:\n      0x20\n      add\n      add\n        /* \"contracts/MyERC20.sol\":1074:1091  lastNumber[i] = c */\n      swap1\n      not(0xffffffffffffffffffffffffffffffffffffffffffffffffffffffffffffff)\n      and\n      swap1\n      dup2\n      0x00\n      byte\n      swap1\n      mstore8\n      pop\n        /* \"contracts/MyERC20.sol\":1006:1107  {... */\n      pop\n        /* \"contracts/MyERC20.sol\":994:1165  if(len-j>=0){... */\n      jump(tag_40)\n    tag_33:\n        /* \"contracts/MyERC20.sol\":1130:1149  lastNumber[i] = '0' */\n      0x3000000000000000000000000000000000000000000000000000000000000000\n        /* \"contracts/MyERC20.sol\":1130:1140  lastNumber */\n      dup5\n        /* \"contracts/MyERC20.sol\":1141:1142  i */\n      dup3\n        /* \"contracts/MyERC20.sol\":1130:1143  lastNumber[i] */\n      dup2\n      mload\n      dup2\n      lt\n      tag_41\n      jumpi\n      tag_42\n      tag_37\n      jump\t// in\n    tag_42:\n    tag_41:\n      0x20\n      add\n      add\n        /* \"contracts/MyERC20.sol\":1130:1149  lastNumber[i] = '0' */\n      swap1\n      not(0xffffffffffffffffffffffffffffffffffffffffffffffffffffffffffffff)\n      and\n      swap1\n      dup2\n      0x00\n      byte\n      swap1\n      mstore8\n      pop\n        /* \"contracts/MyERC20.sol\":994:1165  if(len-j>=0){... */\n    tag_40:\n        /* \"contracts/MyERC20.sol\":1179:1182  j++ */\n      dup2\n      dup1\n      tag_43\n      swap1\n      tag_44\n      jump\t// in\n    tag_43:\n      swap3\n      pop\n      pop\n        /* \"contracts/MyERC20.sol\":975:978  i-- */\n      dup1\n      dup1\n      tag_45\n      swap1\n      tag_46\n      jump\t// in\n    tag_45:\n      swap2\n      pop\n      pop\n        /* \"contracts/MyERC20.sol\":948:1194  for(uint i=decimal-1; i>0; i--){... */\n      jump(tag_27)\n    tag_28:\n      pop\n        /* \"contracts/MyERC20.sol\":1252:1267  convertedNumber */\n      dup4\n        /* \"contracts/MyERC20.sol\":1235:1273  abi.encodePacked(convertedNumber, \".\") */\n      add(0x20, mload(0x40))\n      tag_47\n      swap2\n      swap1\n      tag_48\n      jump\t// in\n    tag_47:\n      mload(0x40)\n      0x20\n      dup2\n      dup4\n      sub\n      sub\n      dup2\n      mstore\n      swap1\n      0x40\n      mstore\n        /* \"contracts/MyERC20.sol\":1275:1285  lastNumber */\n      dup4\n        /* \"contracts/MyERC20.sol\":1218:1286  abi.encodePacked(abi.encodePacked(convertedNumber, \".\"), lastNumber) */\n      add(0x20, mload(0x40))\n      tag_49\n      swap3\n      swap2\n      swap1\n      tag_50\n      jump\t// in\n    tag_49:\n      mload(0x40)\n      0x20\n      dup2\n      dup4\n      sub\n      sub\n      dup2\n      mstore\n      swap1\n      0x40\n      mstore\n        /* \"contracts/MyERC20.sol\":1204:1287  return string(abi.encodePacked(abi.encodePacked(convertedNumber, \".\"), lastNumber)) */\n      swap8\n      pop\n      pop\n      pop\n      pop\n      pop\n      pop\n      pop\n      pop\n        /* \"contracts/MyERC20.sol\":473:1296  function convertToSmallerUnit(uint number) public pure returns (string memory) {... */\n      swap2\n      swap1\n      pop\n      jump\t// out\n        /* \"contracts/MyERC20.sol\":1302:1511  function getUintLength(uint number) public pure returns (uint) {... */\n    tag_13:\n        /* \"contracts/MyERC20.sol\":1359:1363  uint */\n      0x00\n        /* \"contracts/MyERC20.sol\":1376:1387  uint length */\n      dup1\n        /* \"contracts/MyERC20.sol\":1398:1480  while (number != 0) {... */\n    tag_52:\n        /* \"contracts/MyERC20.sol\":1415:1416  0 */\n      0x00\n        /* \"contracts/MyERC20.sol\":1405:1411  number */\n      dup4\n        /* \"contracts/MyERC20.sol\":1405:1416  number != 0 */\n      eq\n        /* \"contracts/MyERC20.sol\":1398:1480  while (number != 0) {... */\n      tag_53\n      jumpi\n        /* \"contracts/MyERC20.sol\":1433:1441  length++ */\n      dup1\n      dup1\n      tag_54\n      swap1\n      tag_44\n      jump\t// in\n    tag_54:\n      swap2\n      pop\n      pop\n        /* \"contracts/MyERC20.sol\":1466:1468  10 */\n      0x0a\n        /* \"contracts/MyERC20.sol\":1456:1468  number /= 10 */\n      dup4\n      tag_55\n      swap2\n      swap1\n      tag_19\n      jump\t// in\n    tag_55:\n      swap3\n      pop\n        /* \"contracts/MyERC20.sol\":1398:1480  while (number != 0) {... */\n      jump(tag_52)\n    tag_53:\n        /* \"contracts/MyERC20.sol\":1497:1503  length */\n      dup1\n        /* \"contracts/MyERC20.sol\":1490:1503  return length */\n      swap2\n      pop\n      pop\n        /* \"contracts/MyERC20.sol\":1302:1511  function getUintLength(uint number) public pure returns (uint) {... */\n      swap2\n      swap1\n      pop\n      jump\t// out\n        /* \"@openzeppelin/contracts/utils/Strings.sol\":637:1335  function toString(uint256 value) internal pure returns (string memory) {... */\n    tag_21:\n        /* \"@openzeppelin/contracts/utils/Strings.sol\":693:706  string memory */\n      0x60\n        /* \"@openzeppelin/contracts/utils/Strings.sol\":742:756  uint256 length */\n      0x00\n        /* \"@openzeppelin/contracts/utils/Strings.sol\":779:780  1 */\n      0x01\n        /* \"@openzeppelin/contracts/utils/Strings.sol\":759:776  Math.log10(value) */\n      tag_57\n        /* \"@openzeppelin/contracts/utils/Strings.sol\":770:775  value */\n      dup5\n        /* \"@openzeppelin/contracts/utils/Strings.sol\":759:769  Math.log10 */\n      tag_58\n        /* \"@openzeppelin/contracts/utils/Strings.sol\":759:776  Math.log10(value) */\n      jump\t// in\n    tag_57:\n        /* \"@openzeppelin/contracts/utils/Strings.sol\":759:780  Math.log10(value) + 1 */\n      add\n        /* \"@openzeppelin/contracts/utils/Strings.sol\":742:780  uint256 length = Math.log10(value) + 1 */\n      swap1\n      pop\n        /* \"@openzeppelin/contracts/utils/Strings.sol\":794:814  string memory buffer */\n      0x00\n        /* \"@openzeppelin/contracts/utils/Strings.sol\":828:834  length */\n      dup2\n        /* \"@openzeppelin/contracts/utils/Strings.sol\":817:835  new string(length) */\n      0xffffffffffffffff\n      dup2\n      gt\n      iszero\n      tag_59\n      jumpi\n      tag_60\n      tag_24\n      jump\t// in\n    tag_60:\n    tag_59:\n      mload(0x40)\n      swap1\n      dup1\n      dup3\n      mstore\n      dup1\n      0x1f\n      add\n      not(0x1f)\n      and\n      0x20\n      add\n      dup3\n      add\n      0x40\n      mstore\n      dup1\n      iszero\n      tag_61\n      jumpi\n      dup2\n      0x20\n      add\n      0x01\n      dup3\n      mul\n      dup1\n      calldatasize\n      dup4\n      calldatacopy\n      dup1\n      dup3\n      add\n      swap2\n      pop\n      pop\n      swap1\n      pop\n    tag_61:\n      pop\n        /* \"@openzeppelin/contracts/utils/Strings.sol\":794:835  string memory buffer = new string(length) */\n      swap1\n      pop\n        /* \"@openzeppelin/contracts/utils/Strings.sol\":849:860  uint256 ptr */\n      0x00\n        /* \"@openzeppelin/contracts/utils/Strings.sol\":975:981  length */\n      dup3\n        /* \"@openzeppelin/contracts/utils/Strings.sol\":971:973  32 */\n      0x20\n        /* \"@openzeppelin/contracts/utils/Strings.sol\":967:982  add(32, length) */\n      add\n        /* \"@openzeppelin/contracts/utils/Strings.sol\":959:965  buffer */\n      dup3\n        /* \"@openzeppelin/contracts/utils/Strings.sol\":955:983  add(buffer, add(32, length)) */\n      add\n        /* \"@openzeppelin/contracts/utils/Strings.sol\":948:983  ptr := add(buffer, add(32, length)) */\n      swap1\n      pop\n        /* \"@openzeppelin/contracts/utils/Strings.sol\":1010:1292  while (true) {... */\n    tag_62:\n        /* \"@openzeppelin/contracts/utils/Strings.sol\":1017:1021  true */\n      0x01\n        /* \"@openzeppelin/contracts/utils/Strings.sol\":1010:1292  while (true) {... */\n      iszero\n      tag_63\n      jumpi\n        /* \"@openzeppelin/contracts/utils/Strings.sol\":1041:1046  ptr-- */\n      dup1\n      dup1\n      0x01\n      swap1\n      sub\n      swap2\n      pop\n      pop\n        /* \"@openzeppelin/contracts/utils/Strings.sol\":1180:1190  HEX_DIGITS */\n      0x3031323334353637383961626364656600000000000000000000000000000000\n        /* \"@openzeppelin/contracts/utils/Strings.sol\":1175:1177  10 */\n      0x0a\n        /* \"@openzeppelin/contracts/utils/Strings.sol\":1168:1173  value */\n      dup7\n        /* \"@openzeppelin/contracts/utils/Strings.sol\":1164:1178  mod(value, 10) */\n      mod\n        /* \"@openzeppelin/contracts/utils/Strings.sol\":1159:1191  byte(mod(value, 10), HEX_DIGITS) */\n      byte\n        /* \"@openzeppelin/contracts/utils/Strings.sol\":1154:1157  ptr */\n      dup2\n        /* \"@openzeppelin/contracts/utils/Strings.sol\":1146:1192  mstore8(ptr, byte(mod(value, 10), HEX_DIGITS)) */\n      mstore8\n        /* \"@openzeppelin/contracts/utils/Strings.sol\":1236:1238  10 */\n      0x0a\n        /* \"@openzeppelin/contracts/utils/Strings.sol\":1227:1238  value /= 10 */\n      dup6\n      dup2\n      tag_64\n      jumpi\n      tag_65\n      tag_66\n      jump\t// in\n    tag_65:\n    tag_64:\n      div\n      swap5\n      pop\n        /* \"@openzeppelin/contracts/utils/Strings.sol\":1269:1270  0 */\n      0x00\n        /* \"@openzeppelin/contracts/utils/Strings.sol\":1260:1265  value */\n      dup6\n        /* \"@openzeppelin/contracts/utils/Strings.sol\":1260:1270  value == 0 */\n      sub\n        /* \"@openzeppelin/contracts/utils/Strings.sol\":1010:1292  while (true) {... */\n      tag_62\n        /* \"@openzeppelin/contracts/utils/Strings.sol\":1256:1277  if (value == 0) break */\n      jumpi\n        /* \"@openzeppelin/contracts/utils/Strings.sol\":1010:1292  while (true) {... */\n    tag_63:\n        /* \"@openzeppelin/contracts/utils/Strings.sol\":1312:1318  buffer */\n      dup2\n        /* \"@openzeppelin/contracts/utils/Strings.sol\":1305:1318  return buffer */\n      swap4\n      pop\n      pop\n      pop\n      pop\n        /* \"@openzeppelin/contracts/utils/Strings.sol\":637:1335  function toString(uint256 value) internal pure returns (string memory) {... */\n      swap2\n      swap1\n      pop\n      jump\t// out\n        /* \"@openzeppelin/contracts/utils/math/Math.sol\":12214:13130  function log10(uint256 value) internal pure returns (uint256) {... */\n    tag_58:\n        /* \"@openzeppelin/contracts/utils/math/Math.sol\":12267:12274  uint256 */\n      0x00\n        /* \"@openzeppelin/contracts/utils/math/Math.sol\":12286:12300  uint256 result */\n      dup1\n        /* \"@openzeppelin/contracts/utils/math/Math.sol\":12303:12304  0 */\n      0x00\n        /* \"@openzeppelin/contracts/utils/math/Math.sol\":12286:12304  uint256 result = 0 */\n      swap1\n      pop\n        /* \"@openzeppelin/contracts/utils/math/Math.sol\":12351:12359  10 ** 64 */\n      0x184f03e93ff9f4daa797ed6e38ed64bf6a1f010000000000000000\n        /* \"@openzeppelin/contracts/utils/math/Math.sol\":12342:12347  value */\n      dup4\n        /* \"@openzeppelin/contracts/utils/math/Math.sol\":12342:12359  value >= 10 ** 64 */\n      lt\n        /* \"@openzeppelin/contracts/utils/math/Math.sol\":12338:12441  if (value >= 10 ** 64) {... */\n      tag_69\n      jumpi\n        /* \"@openzeppelin/contracts/utils/math/Math.sol\":12388:12396  10 ** 64 */\n      0x184f03e93ff9f4daa797ed6e38ed64bf6a1f010000000000000000\n        /* \"@openzeppelin/contracts/utils/math/Math.sol\":12379:12396  value /= 10 ** 64 */\n      dup4\n      dup2\n      tag_70\n      jumpi\n      tag_71\n      tag_66\n      jump\t// in\n    tag_71:\n    tag_70:\n      div\n      swap3\n      pop\n        /* \"@openzeppelin/contracts/utils/math/Math.sol\":12424:12426  64 */\n      0x40\n        /* \"@openzeppelin/contracts/utils/math/Math.sol\":12414:12426  result += 64 */\n      dup2\n      add\n      swap1\n      pop\n        /* \"@openzeppelin/contracts/utils/math/Math.sol\":12338:12441  if (value >= 10 ** 64) {... */\n    tag_69:\n        /* \"@openzeppelin/contracts/utils/math/Math.sol\":12467:12475  10 ** 32 */\n      0x04ee2d6d415b85acef8100000000\n        /* \"@openzeppelin/contracts/utils/math/Math.sol\":12458:12463  value */\n      dup4\n        /* \"@openzeppelin/contracts/utils/math/Math.sol\":12458:12475  value >= 10 ** 32 */\n      lt\n        /* \"@openzeppelin/contracts/utils/math/Math.sol\":12454:12557  if (value >= 10 ** 32) {... */\n      tag_72\n      jumpi\n        /* \"@openzeppelin/contracts/utils/math/Math.sol\":12504:12512  10 ** 32 */\n      0x04ee2d6d415b85acef8100000000\n        /* \"@openzeppelin/contracts/utils/math/Math.sol\":12495:12512  value /= 10 ** 32 */\n      dup4\n      dup2\n      tag_73\n      jumpi\n      tag_74\n      tag_66\n      jump\t// in\n    tag_74:\n    tag_73:\n      div\n      swap3\n      pop\n        /* \"@openzeppelin/contracts/utils/math/Math.sol\":12540:12542  32 */\n      0x20\n        /* \"@openzeppelin/contracts/utils/math/Math.sol\":12530:12542  result += 32 */\n      dup2\n      add\n      swap1\n      pop\n        /* \"@openzeppelin/contracts/utils/math/Math.sol\":12454:12557  if (value >= 10 ** 32) {... */\n    tag_72:\n        /* \"@openzeppelin/contracts/utils/math/Math.sol\":12583:12591  10 ** 16 */\n      0x2386f26fc10000\n        /* \"@openzeppelin/contracts/utils/math/Math.sol\":12574:12579  value */\n      dup4\n        /* \"@openzeppelin/contracts/utils/math/Math.sol\":12574:12591  value >= 10 ** 16 */\n      lt\n        /* \"@openzeppelin/contracts/utils/math/Math.sol\":12570:12673  if (value >= 10 ** 16) {... */\n      tag_75\n      jumpi\n        /* \"@openzeppelin/contracts/utils/math/Math.sol\":12620:12628  10 ** 16 */\n      0x2386f26fc10000\n        /* \"@openzeppelin/contracts/utils/math/Math.sol\":12611:12628  value /= 10 ** 16 */\n      dup4\n      dup2\n      tag_76\n      jumpi\n      tag_77\n      tag_66\n      jump\t// in\n    tag_77:\n    tag_76:\n      div\n      swap3\n      pop\n        /* \"@openzeppelin/contracts/utils/math/Math.sol\":12656:12658  16 */\n      0x10\n        /* \"@openzeppelin/contracts/utils/math/Math.sol\":12646:12658  result += 16 */\n      dup2\n      add\n      swap1\n      pop\n        /* \"@openzeppelin/contracts/utils/math/Math.sol\":12570:12673  if (value >= 10 ** 16) {... */\n    tag_75:\n        /* \"@openzeppelin/contracts/utils/math/Math.sol\":12699:12706  10 ** 8 */\n      0x05f5e100\n        /* \"@openzeppelin/contracts/utils/math/Math.sol\":12690:12695  value */\n      dup4\n        /* \"@openzeppelin/contracts/utils/math/Math.sol\":12690:12706  value >= 10 ** 8 */\n      lt\n        /* \"@openzeppelin/contracts/utils/math/Math.sol\":12686:12786  if (value >= 10 ** 8) {... */\n      tag_78\n      jumpi\n        /* \"@openzeppelin/contracts/utils/math/Math.sol\":12735:12742  10 ** 8 */\n      0x05f5e100\n        /* \"@openzeppelin/contracts/utils/math/Math.sol\":12726:12742  value /= 10 ** 8 */\n      dup4\n      dup2\n      tag_79\n      jumpi\n      tag_80\n      tag_66\n      jump\t// in\n    tag_80:\n    tag_79:\n      div\n      swap3\n      pop\n        /* \"@openzeppelin/contracts/utils/math/Math.sol\":12770:12771  8 */\n      0x08\n        /* \"@openzeppelin/contracts/utils/math/Math.sol\":12760:12771  result += 8 */\n      dup2\n      add\n      swap1\n      pop\n        /* \"@openzeppelin/contracts/utils/math/Math.sol\":12686:12786  if (value >= 10 ** 8) {... */\n    tag_78:\n        /* \"@openzeppelin/contracts/utils/math/Math.sol\":12812:12819  10 ** 4 */\n      0x2710\n        /* \"@openzeppelin/contracts/utils/math/Math.sol\":12803:12808  value */\n      dup4\n        /* \"@openzeppelin/contracts/utils/math/Math.sol\":12803:12819  value >= 10 ** 4 */\n      lt\n        /* \"@openzeppelin/contracts/utils/math/Math.sol\":12799:12899  if (value >= 10 ** 4) {... */\n      tag_81\n      jumpi\n        /* \"@openzeppelin/contracts/utils/math/Math.sol\":12848:12855  10 ** 4 */\n      0x2710\n        /* \"@openzeppelin/contracts/utils/math/Math.sol\":12839:12855  value /= 10 ** 4 */\n      dup4\n      dup2\n      tag_82\n      jumpi\n      tag_83\n      tag_66\n      jump\t// in\n    tag_83:\n    tag_82:\n      div\n      swap3\n      pop\n        /* \"@openzeppelin/contracts/utils/math/Math.sol\":12883:12884  4 */\n      0x04\n        /* \"@openzeppelin/contracts/utils/math/Math.sol\":12873:12884  result += 4 */\n      dup2\n      add\n      swap1\n      pop\n        /* \"@openzeppelin/contracts/utils/math/Math.sol\":12799:12899  if (value >= 10 ** 4) {... */\n    tag_81:\n        /* \"@openzeppelin/contracts/utils/math/Math.sol\":12925:12932  10 ** 2 */\n      0x64\n        /* \"@openzeppelin/contracts/utils/math/Math.sol\":12916:12921  value */\n      dup4\n        /* \"@openzeppelin/contracts/utils/math/Math.sol\":12916:12932  value >= 10 ** 2 */\n      lt\n        /* \"@openzeppelin/contracts/utils/math/Math.sol\":12912:13012  if (value >= 10 ** 2) {... */\n      tag_84\n      jumpi\n        /* \"@openzeppelin/contracts/utils/math/Math.sol\":12961:12968  10 ** 2 */\n      0x64\n        /* \"@openzeppelin/contracts/utils/math/Math.sol\":12952:12968  value /= 10 ** 2 */\n      dup4\n      dup2\n      tag_85\n      jumpi\n      tag_86\n      tag_66\n      jump\t// in\n    tag_86:\n    tag_85:\n      div\n      swap3\n      pop\n        /* \"@openzeppelin/contracts/utils/math/Math.sol\":12996:12997  2 */\n      0x02\n        /* \"@openzeppelin/contracts/utils/math/Math.sol\":12986:12997  result += 2 */\n      dup2\n      add\n      swap1\n      pop\n        /* \"@openzeppelin/contracts/utils/math/Math.sol\":12912:13012  if (value >= 10 ** 2) {... */\n    tag_84:\n        /* \"@openzeppelin/contracts/utils/math/Math.sol\":13038:13045  10 ** 1 */\n      0x0a\n        /* \"@openzeppelin/contracts/utils/math/Math.sol\":13029:13034  value */\n      dup4\n        /* \"@openzeppelin/contracts/utils/math/Math.sol\":13029:13045  value >= 10 ** 1 */\n      lt\n        /* \"@openzeppelin/contracts/utils/math/Math.sol\":13025:13091  if (value >= 10 ** 1) {... */\n      tag_87\n      jumpi\n        /* \"@openzeppelin/contracts/utils/math/Math.sol\":13075:13076  1 */\n      0x01\n        /* \"@openzeppelin/contracts/utils/math/Math.sol\":13065:13076  result += 1 */\n      dup2\n      add\n      swap1\n      pop\n        /* \"@openzeppelin/contracts/utils/math/Math.sol\":13025:13091  if (value >= 10 ** 1) {... */\n    tag_87:\n        /* \"@openzeppelin/contracts/utils/math/Math.sol\":13117:13123  result */\n      dup1\n        /* \"@openzeppelin/contracts/utils/math/Math.sol\":13110:13123  return result */\n      swap2\n      pop\n      pop\n        /* \"@openzeppelin/contracts/utils/math/Math.sol\":12214:13130  function log10(uint256 value) internal pure returns (uint256) {... */\n      swap2\n      swap1\n      pop\n      jump\t// out\n        /* \"#utility.yul\":88:205   */\n    tag_89:\n        /* \"#utility.yul\":197:198   */\n      0x00\n        /* \"#utility.yul\":194:195   */\n      dup1\n        /* \"#utility.yul\":187:199   */\n      revert\n        /* \"#utility.yul\":334:411   */\n    tag_91:\n        /* \"#utility.yul\":371:378   */\n      0x00\n        /* \"#utility.yul\":400:405   */\n      dup2\n        /* \"#utility.yul\":389:405   */\n      swap1\n      pop\n        /* \"#utility.yul\":334:411   */\n      swap2\n      swap1\n      pop\n      jump\t// out\n        /* \"#utility.yul\":417:539   */\n    tag_92:\n        /* \"#utility.yul\":490:514   */\n      tag_114\n        /* \"#utility.yul\":508:513   */\n      dup2\n        /* \"#utility.yul\":490:514   */\n      tag_91\n      jump\t// in\n    tag_114:\n        /* \"#utility.yul\":483:488   */\n      dup2\n        /* \"#utility.yul\":480:515   */\n      eq\n        /* \"#utility.yul\":470:533   */\n      tag_115\n      jumpi\n        /* \"#utility.yul\":529:530   */\n      0x00\n        /* \"#utility.yul\":526:527   */\n      dup1\n        /* \"#utility.yul\":519:531   */\n      revert\n        /* \"#utility.yul\":470:533   */\n    tag_115:\n        /* \"#utility.yul\":417:539   */\n      pop\n      jump\t// out\n        /* \"#utility.yul\":545:684   */\n    tag_93:\n        /* \"#utility.yul\":591:596   */\n      0x00\n        /* \"#utility.yul\":629:635   */\n      dup2\n        /* \"#utility.yul\":616:636   */\n      calldataload\n        /* \"#utility.yul\":607:636   */\n      swap1\n      pop\n        /* \"#utility.yul\":645:678   */\n      tag_117\n        /* \"#utility.yul\":672:677   */\n      dup2\n        /* \"#utility.yul\":645:678   */\n      tag_92\n      jump\t// in\n    tag_117:\n        /* \"#utility.yul\":545:684   */\n      swap3\n      swap2\n      pop\n      pop\n      jump\t// out\n        /* \"#utility.yul\":690:1019   */\n    tag_7:\n        /* \"#utility.yul\":749:755   */\n      0x00\n        /* \"#utility.yul\":798:800   */\n      0x20\n        /* \"#utility.yul\":786:795   */\n      dup3\n        /* \"#utility.yul\":777:784   */\n      dup5\n        /* \"#utility.yul\":773:796   */\n      sub\n        /* \"#utility.yul\":769:801   */\n      slt\n        /* \"#utility.yul\":766:885   */\n      iszero\n      tag_119\n      jumpi\n        /* \"#utility.yul\":804:883   */\n      tag_120\n      tag_89\n      jump\t// in\n    tag_120:\n        /* \"#utility.yul\":766:885   */\n    tag_119:\n        /* \"#utility.yul\":924:925   */\n      0x00\n        /* \"#utility.yul\":949:1002   */\n      tag_121\n        /* \"#utility.yul\":994:1001   */\n      dup5\n        /* \"#utility.yul\":985:991   */\n      dup3\n        /* \"#utility.yul\":974:983   */\n      dup6\n        /* \"#utility.yul\":970:992   */\n      add\n        /* \"#utility.yul\":949:1002   */\n      tag_93\n      jump\t// in\n    tag_121:\n        /* \"#utility.yul\":939:1002   */\n      swap2\n      pop\n        /* \"#utility.yul\":895:1012   */\n      pop\n        /* \"#utility.yul\":690:1019   */\n      swap3\n      swap2\n      pop\n      pop\n      jump\t// out\n        /* \"#utility.yul\":1025:1124   */\n    tag_94:\n        /* \"#utility.yul\":1077:1083   */\n      0x00\n        /* \"#utility.yul\":1111:1116   */\n      dup2\n        /* \"#utility.yul\":1105:1117   */\n      mload\n        /* \"#utility.yul\":1095:1117   */\n      swap1\n      pop\n        /* \"#utility.yul\":1025:1124   */\n      swap2\n      swap1\n      pop\n      jump\t// out\n        /* \"#utility.yul\":1130:1299   */\n    tag_95:\n        /* \"#utility.yul\":1214:1225   */\n      0x00\n        /* \"#utility.yul\":1248:1254   */\n      dup3\n        /* \"#utility.yul\":1243:1246   */\n      dup3\n        /* \"#utility.yul\":1236:1255   */\n      mstore\n        /* \"#utility.yul\":1288:1292   */\n      0x20\n        /* \"#utility.yul\":1283:1286   */\n      dup3\n        /* \"#utility.yul\":1279:1293   */\n      add\n        /* \"#utility.yul\":1264:1293   */\n      swap1\n      pop\n        /* \"#utility.yul\":1130:1299   */\n      swap3\n      swap2\n      pop\n      pop\n      jump\t// out\n        /* \"#utility.yul\":1305:1551   */\n    tag_96:\n        /* \"#utility.yul\":1386:1387   */\n      0x00\n        /* \"#utility.yul\":1396:1509   */\n    tag_125:\n        /* \"#utility.yul\":1410:1416   */\n      dup4\n        /* \"#utility.yul\":1407:1408   */\n      dup2\n        /* \"#utility.yul\":1404:1417   */\n      lt\n        /* \"#utility.yul\":1396:1509   */\n      iszero\n      tag_127\n      jumpi\n        /* \"#utility.yul\":1495:1496   */\n      dup1\n        /* \"#utility.yul\":1490:1493   */\n      dup3\n        /* \"#utility.yul\":1486:1497   */\n      add\n        /* \"#utility.yul\":1480:1498   */\n      mload\n        /* \"#utility.yul\":1476:1477   */\n      dup2\n        /* \"#utility.yul\":1471:1474   */\n      dup5\n        /* \"#utility.yul\":1467:1478   */\n      add\n        /* \"#utility.yul\":1460:1499   */\n      mstore\n        /* \"#utility.yul\":1432:1434   */\n      0x20\n        /* \"#utility.yul\":1429:1430   */\n      dup2\n        /* \"#utility.yul\":1425:1435   */\n      add\n        /* \"#utility.yul\":1420:1435   */\n      swap1\n      pop\n        /* \"#utility.yul\":1396:1509   */\n      jump(tag_125)\n    tag_127:\n        /* \"#utility.yul\":1543:1544   */\n      0x00\n        /* \"#utility.yul\":1534:1540   */\n      dup5\n        /* \"#utility.yul\":1529:1532   */\n      dup5\n        /* \"#utility.yul\":1525:1541   */\n      add\n        /* \"#utility.yul\":1518:1545   */\n      mstore\n        /* \"#utility.yul\":1367:1551   */\n      pop\n        /* \"#utility.yul\":1305:1551   */\n      pop\n      pop\n      pop\n      jump\t// out\n        /* \"#utility.yul\":1557:1659   */\n    tag_97:\n        /* \"#utility.yul\":1598:1604   */\n      0x00\n        /* \"#utility.yul\":1649:1651   */\n      0x1f\n        /* \"#utility.yul\":1645:1652   */\n      not\n        /* \"#utility.yul\":1640:1642   */\n      0x1f\n        /* \"#utility.yul\":1633:1638   */\n      dup4\n        /* \"#utility.yul\":1629:1643   */\n      add\n        /* \"#utility.yul\":1625:1653   */\n      and\n        /* \"#utility.yul\":1615:1653   */\n      swap1\n      pop\n        /* \"#utility.yul\":1557:1659   */\n      swap2\n      swap1\n      pop\n      jump\t// out\n        /* \"#utility.yul\":1665:2042   */\n    tag_98:\n        /* \"#utility.yul\":1753:1756   */\n      0x00\n        /* \"#utility.yul\":1781:1820   */\n      tag_130\n        /* \"#utility.yul\":1814:1819   */\n      dup3\n        /* \"#utility.yul\":1781:1820   */\n      tag_94\n      jump\t// in\n    tag_130:\n        /* \"#utility.yul\":1836:1907   */\n      tag_131\n        /* \"#utility.yul\":1900:1906   */\n      dup2\n        /* \"#utility.yul\":1895:1898   */\n      dup6\n        /* \"#utility.yul\":1836:1907   */\n      tag_95\n      jump\t// in\n    tag_131:\n        /* \"#utility.yul\":1829:1907   */\n      swap4\n      pop\n        /* \"#utility.yul\":1916:1981   */\n      tag_132\n        /* \"#utility.yul\":1974:1980   */\n      dup2\n        /* \"#utility.yul\":1969:1972   */\n      dup6\n        /* \"#utility.yul\":1962:1966   */\n      0x20\n        /* \"#utility.yul\":1955:1960   */\n      dup7\n        /* \"#utility.yul\":1951:1967   */\n      add\n        /* \"#utility.yul\":1916:1981   */\n      tag_96\n      jump\t// in\n    tag_132:\n        /* \"#utility.yul\":2006:2035   */\n      tag_133\n        /* \"#utility.yul\":2028:2034   */\n      dup2\n        /* \"#utility.yul\":2006:2035   */\n      tag_97\n      jump\t// in\n    tag_133:\n        /* \"#utility.yul\":2001:2004   */\n      dup5\n        /* \"#utility.yul\":1997:2036   */\n      add\n        /* \"#utility.yul\":1990:2036   */\n      swap2\n      pop\n        /* \"#utility.yul\":1757:2042   */\n      pop\n        /* \"#utility.yul\":1665:2042   */\n      swap3\n      swap2\n      pop\n      pop\n      jump\t// out\n        /* \"#utility.yul\":2048:2361   */\n    tag_10:\n        /* \"#utility.yul\":2161:2165   */\n      0x00\n        /* \"#utility.yul\":2199:2201   */\n      0x20\n        /* \"#utility.yul\":2188:2197   */\n      dup3\n        /* \"#utility.yul\":2184:2202   */\n      add\n        /* \"#utility.yul\":2176:2202   */\n      swap1\n      pop\n        /* \"#utility.yul\":2248:2257   */\n      dup2\n        /* \"#utility.yul\":2242:2246   */\n      dup2\n        /* \"#utility.yul\":2238:2258   */\n      sub\n        /* \"#utility.yul\":2234:2235   */\n      0x00\n        /* \"#utility.yul\":2223:2232   */\n      dup4\n        /* \"#utility.yul\":2219:2236   */\n      add\n        /* \"#utility.yul\":2212:2259   */\n      mstore\n        /* \"#utility.yul\":2276:2354   */\n      tag_135\n        /* \"#utility.yul\":2349:2353   */\n      dup2\n        /* \"#utility.yul\":2340:2346   */\n      dup5\n        /* \"#utility.yul\":2276:2354   */\n      tag_98\n      jump\t// in\n    tag_135:\n        /* \"#utility.yul\":2268:2354   */\n      swap1\n      pop\n        /* \"#utility.yul\":2048:2361   */\n      swap3\n      swap2\n      pop\n      pop\n      jump\t// out\n        /* \"#utility.yul\":2367:2485   */\n    tag_99:\n        /* \"#utility.yul\":2454:2478   */\n      tag_137\n        /* \"#utility.yul\":2472:2477   */\n      dup2\n        /* \"#utility.yul\":2454:2478   */\n      tag_91\n      jump\t// in\n    tag_137:\n        /* \"#utility.yul\":2449:2452   */\n      dup3\n        /* \"#utility.yul\":2442:2479   */\n      mstore\n        /* \"#utility.yul\":2367:2485   */\n      pop\n      pop\n      jump\t// out\n        /* \"#utility.yul\":2491:2713   */\n    tag_15:\n        /* \"#utility.yul\":2584:2588   */\n      0x00\n        /* \"#utility.yul\":2622:2624   */\n      0x20\n        /* \"#utility.yul\":2611:2620   */\n      dup3\n        /* \"#utility.yul\":2607:2625   */\n      add\n        /* \"#utility.yul\":2599:2625   */\n      swap1\n      pop\n        /* \"#utility.yul\":2635:2706   */\n      tag_139\n        /* \"#utility.yul\":2703:2704   */\n      0x00\n        /* \"#utility.yul\":2692:2701   */\n      dup4\n        /* \"#utility.yul\":2688:2705   */\n      add\n        /* \"#utility.yul\":2679:2685   */\n      dup5\n        /* \"#utility.yul\":2635:2706   */\n      tag_99\n      jump\t// in\n    tag_139:\n        /* \"#utility.yul\":2491:2713   */\n      swap3\n      swap2\n      pop\n      pop\n      jump\t// out\n        /* \"#utility.yul\":2719:2899   */\n    tag_66:\n        /* \"#utility.yul\":2767:2844   */\n      0x4e487b7100000000000000000000000000000000000000000000000000000000\n        /* \"#utility.yul\":2764:2765   */\n      0x00\n        /* \"#utility.yul\":2757:2845   */\n      mstore\n        /* \"#utility.yul\":2864:2868   */\n      0x12\n        /* \"#utility.yul\":2861:2862   */\n      0x04\n        /* \"#utility.yul\":2854:2869   */\n      mstore\n        /* \"#utility.yul\":2888:2892   */\n      0x24\n        /* \"#utility.yul\":2885:2886   */\n      0x00\n        /* \"#utility.yul\":2878:2893   */\n      revert\n        /* \"#utility.yul\":2905:3085   */\n    tag_100:\n        /* \"#utility.yul\":2953:3030   */\n      0x4e487b7100000000000000000000000000000000000000000000000000000000\n        /* \"#utility.yul\":2950:2951   */\n      0x00\n        /* \"#utility.yul\":2943:3031   */\n      mstore\n        /* \"#utility.yul\":3050:3054   */\n      0x11\n        /* \"#utility.yul\":3047:3048   */\n      0x04\n        /* \"#utility.yul\":3040:3055   */\n      mstore\n        /* \"#utility.yul\":3074:3078   */\n      0x24\n        /* \"#utility.yul\":3071:3072   */\n      0x00\n        /* \"#utility.yul\":3064:3079   */\n      revert\n        /* \"#utility.yul\":3091:3276   */\n    tag_19:\n        /* \"#utility.yul\":3131:3132   */\n      0x00\n        /* \"#utility.yul\":3148:3168   */\n      tag_143\n        /* \"#utility.yul\":3166:3167   */\n      dup3\n        /* \"#utility.yul\":3148:3168   */\n      tag_91\n      jump\t// in\n    tag_143:\n        /* \"#utility.yul\":3143:3168   */\n      swap2\n      pop\n        /* \"#utility.yul\":3182:3202   */\n      tag_144\n        /* \"#utility.yul\":3200:3201   */\n      dup4\n        /* \"#utility.yul\":3182:3202   */\n      tag_91\n      jump\t// in\n    tag_144:\n        /* \"#utility.yul\":3177:3202   */\n      swap3\n      pop\n        /* \"#utility.yul\":3221:3222   */\n      dup3\n        /* \"#utility.yul\":3211:3246   */\n      tag_145\n      jumpi\n        /* \"#utility.yul\":3226:3244   */\n      tag_146\n      tag_66\n      jump\t// in\n    tag_146:\n        /* \"#utility.yul\":3211:3246   */\n    tag_145:\n        /* \"#utility.yul\":3268:3269   */\n      dup3\n        /* \"#utility.yul\":3265:3266   */\n      dup3\n        /* \"#utility.yul\":3261:3270   */\n      div\n        /* \"#utility.yul\":3256:3270   */\n      swap1\n      pop\n        /* \"#utility.yul\":3091:3276   */\n      swap3\n      swap2\n      pop\n      pop\n      jump\t// out\n        /* \"#utility.yul\":3282:3462   */\n    tag_24:\n        /* \"#utility.yul\":3330:3407   */\n      0x4e487b7100000000000000000000000000000000000000000000000000000000\n        /* \"#utility.yul\":3327:3328   */\n      0x00\n        /* \"#utility.yul\":3320:3408   */\n      mstore\n        /* \"#utility.yul\":3427:3431   */\n      0x41\n        /* \"#utility.yul\":3424:3425   */\n      0x04\n        /* \"#utility.yul\":3417:3432   */\n      mstore\n        /* \"#utility.yul\":3451:3455   */\n      0x24\n        /* \"#utility.yul\":3448:3449   */\n      0x00\n        /* \"#utility.yul\":3441:3456   */\n      revert\n        /* \"#utility.yul\":3468:3662   */\n    tag_31:\n        /* \"#utility.yul\":3508:3512   */\n      0x00\n        /* \"#utility.yul\":3528:3548   */\n      tag_149\n        /* \"#utility.yul\":3546:3547   */\n      dup3\n        /* \"#utility.yul\":3528:3548   */\n      tag_91\n      jump\t// in\n    tag_149:\n        /* \"#utility.yul\":3523:3548   */\n      swap2\n      pop\n        /* \"#utility.yul\":3562:3582   */\n      tag_150\n        /* \"#utility.yul\":3580:3581   */\n      dup4\n        /* \"#utility.yul\":3562:3582   */\n      tag_91\n      jump\t// in\n    tag_150:\n        /* \"#utility.yul\":3557:3582   */\n      swap3\n      pop\n        /* \"#utility.yul\":3606:3607   */\n      dup3\n        /* \"#utility.yul\":3603:3604   */\n      dup3\n        /* \"#utility.yul\":3599:3608   */\n      sub\n        /* \"#utility.yul\":3591:3608   */\n      swap1\n      pop\n        /* \"#utility.yul\":3630:3631   */\n      dup2\n        /* \"#utility.yul\":3624:3628   */\n      dup2\n        /* \"#utility.yul\":3621:3632   */\n      gt\n        /* \"#utility.yul\":3618:3655   */\n      iszero\n      tag_151\n      jumpi\n        /* \"#utility.yul\":3635:3653   */\n      tag_152\n      tag_100\n      jump\t// in\n    tag_152:\n        /* \"#utility.yul\":3618:3655   */\n    tag_151:\n        /* \"#utility.yul\":3468:3662   */\n      swap3\n      swap2\n      pop\n      pop\n      jump\t// out\n        /* \"#utility.yul\":3668:3848   */\n    tag_37:\n        /* \"#utility.yul\":3716:3793   */\n      0x4e487b7100000000000000000000000000000000000000000000000000000000\n        /* \"#utility.yul\":3713:3714   */\n      0x00\n        /* \"#utility.yul\":3706:3794   */\n      mstore\n        /* \"#utility.yul\":3813:3817   */\n      0x32\n        /* \"#utility.yul\":3810:3811   */\n      0x04\n        /* \"#utility.yul\":3803:3818   */\n      mstore\n        /* \"#utility.yul\":3837:3841   */\n      0x24\n        /* \"#utility.yul\":3834:3835   */\n      0x00\n        /* \"#utility.yul\":3827:3842   */\n      revert\n        /* \"#utility.yul\":3854:4087   */\n    tag_44:\n        /* \"#utility.yul\":3893:3896   */\n      0x00\n        /* \"#utility.yul\":3916:3940   */\n      tag_155\n        /* \"#utility.yul\":3934:3939   */\n      dup3\n        /* \"#utility.yul\":3916:3940   */\n      tag_91\n      jump\t// in\n    tag_155:\n        /* \"#utility.yul\":3907:3940   */\n      swap2\n      pop\n        /* \"#utility.yul\":3962:4028   */\n      0xffffffffffffffffffffffffffffffffffffffffffffffffffffffffffffffff\n        /* \"#utility.yul\":3955:3960   */\n      dup3\n        /* \"#utility.yul\":3952:4029   */\n      sub\n        /* \"#utility.yul\":3949:4052   */\n      tag_156\n      jumpi\n        /* \"#utility.yul\":4032:4050   */\n      tag_157\n      tag_100\n      jump\t// in\n    tag_157:\n        /* \"#utility.yul\":3949:4052   */\n    tag_156:\n        /* \"#utility.yul\":4079:4080   */\n      0x01\n        /* \"#utility.yul\":4072:4077   */\n      dup3\n        /* \"#utility.yul\":4068:4081   */\n      add\n        /* \"#utility.yul\":4061:4081   */\n      swap1\n      pop\n        /* \"#utility.yul\":3854:4087   */\n      swap2\n      swap1\n      pop\n      jump\t// out\n        /* \"#utility.yul\":4093:4264   */\n    tag_46:\n        /* \"#utility.yul\":4132:4135   */\n      0x00\n        /* \"#utility.yul\":4155:4179   */\n      tag_159\n        /* \"#utility.yul\":4173:4178   */\n      dup3\n        /* \"#utility.yul\":4155:4179   */\n      tag_91\n      jump\t// in\n    tag_159:\n        /* \"#utility.yul\":4146:4179   */\n      swap2\n      pop\n        /* \"#utility.yul\":4201:4205   */\n      0x00\n        /* \"#utility.yul\":4194:4199   */\n      dup3\n        /* \"#utility.yul\":4191:4206   */\n      sub\n        /* \"#utility.yul\":4188:4229   */\n      tag_160\n      jumpi\n        /* \"#utility.yul\":4209:4227   */\n      tag_161\n      tag_100\n      jump\t// in\n    tag_161:\n        /* \"#utility.yul\":4188:4229   */\n    tag_160:\n        /* \"#utility.yul\":4256:4257   */\n      0x01\n        /* \"#utility.yul\":4249:4254   */\n      dup3\n        /* \"#utility.yul\":4245:4258   */\n      sub\n        /* \"#utility.yul\":4238:4258   */\n      swap1\n      pop\n        /* \"#utility.yul\":4093:4264   */\n      swap2\n      swap1\n      pop\n      jump\t// out\n        /* \"#utility.yul\":4270:4418   */\n    tag_101:\n        /* \"#utility.yul\":4372:4383   */\n      0x00\n        /* \"#utility.yul\":4409:4412   */\n      dup2\n        /* \"#utility.yul\":4394:4412   */\n      swap1\n      pop\n        /* \"#utility.yul\":4270:4418   */\n      swap3\n      swap2\n      pop\n      pop\n      jump\t// out\n        /* \"#utility.yul\":4424:4814   */\n    tag_102:\n        /* \"#utility.yul\":4530:4533   */\n      0x00\n        /* \"#utility.yul\":4558:4597   */\n      tag_164\n        /* \"#utility.yul\":4591:4596   */\n      dup3\n        /* \"#utility.yul\":4558:4597   */\n      tag_94\n      jump\t// in\n    tag_164:\n        /* \"#utility.yul\":4613:4702   */\n      tag_165\n        /* \"#utility.yul\":4695:4701   */\n      dup2\n        /* \"#utility.yul\":4690:4693   */\n      dup6\n        /* \"#utility.yul\":4613:4702   */\n      tag_101\n      jump\t// in\n    tag_165:\n        /* \"#utility.yul\":4606:4702   */\n      swap4\n      pop\n        /* \"#utility.yul\":4711:4776   */\n      tag_166\n        /* \"#utility.yul\":4769:4775   */\n      dup2\n        /* \"#utility.yul\":4764:4767   */\n      dup6\n        /* \"#utility.yul\":4757:4761   */\n      0x20\n        /* \"#utility.yul\":4750:4755   */\n      dup7\n        /* \"#utility.yul\":4746:4762   */\n      add\n        /* \"#utility.yul\":4711:4776   */\n      tag_96\n      jump\t// in\n    tag_166:\n        /* \"#utility.yul\":4801:4807   */\n      dup1\n        /* \"#utility.yul\":4796:4799   */\n      dup5\n        /* \"#utility.yul\":4792:4808   */\n      add\n        /* \"#utility.yul\":4785:4808   */\n      swap2\n      pop\n        /* \"#utility.yul\":4534:4814   */\n      pop\n        /* \"#utility.yul\":4424:4814   */\n      swap3\n      swap2\n      pop\n      pop\n      jump\t// out\n        /* \"#utility.yul\":4820:4971   */\n    tag_103:\n        /* \"#utility.yul\":4960:4963   */\n      0x2e00000000000000000000000000000000000000000000000000000000000000\n        /* \"#utility.yul\":4956:4957   */\n      0x00\n        /* \"#utility.yul\":4948:4954   */\n      dup3\n        /* \"#utility.yul\":4944:4958   */\n      add\n        /* \"#utility.yul\":4937:4964   */\n      mstore\n        /* \"#utility.yul\":4820:4971   */\n      pop\n      jump\t// out\n        /* \"#utility.yul\":4977:5377   */\n    tag_104:\n        /* \"#utility.yul\":5137:5140   */\n      0x00\n        /* \"#utility.yul\":5158:5242   */\n      tag_169\n        /* \"#utility.yul\":5240:5241   */\n      0x01\n        /* \"#utility.yul\":5235:5238   */\n      dup4\n        /* \"#utility.yul\":5158:5242   */\n      tag_101\n      jump\t// in\n    tag_169:\n        /* \"#utility.yul\":5151:5242   */\n      swap2\n      pop\n        /* \"#utility.yul\":5251:5344   */\n      tag_170\n        /* \"#utility.yul\":5340:5343   */\n      dup3\n        /* \"#utility.yul\":5251:5344   */\n      tag_103\n      jump\t// in\n    tag_170:\n        /* \"#utility.yul\":5369:5370   */\n      0x01\n        /* \"#utility.yul\":5364:5367   */\n      dup3\n        /* \"#utility.yul\":5360:5371   */\n      add\n        /* \"#utility.yul\":5353:5371   */\n      swap1\n      pop\n        /* \"#utility.yul\":4977:5377   */\n      swap2\n      swap1\n      pop\n      jump\t// out\n        /* \"#utility.yul\":5383:5924   */\n    tag_48:\n        /* \"#utility.yul\":5616:5619   */\n      0x00\n        /* \"#utility.yul\":5638:5733   */\n      tag_172\n        /* \"#utility.yul\":5729:5732   */\n      dup3\n        /* \"#utility.yul\":5720:5726   */\n      dup5\n        /* \"#utility.yul\":5638:5733   */\n      tag_102\n      jump\t// in\n    tag_172:\n        /* \"#utility.yul\":5631:5733   */\n      swap2\n      pop\n        /* \"#utility.yul\":5750:5898   */\n      tag_173\n        /* \"#utility.yul\":5894:5897   */\n      dup3\n        /* \"#utility.yul\":5750:5898   */\n      tag_104\n      jump\t// in\n    tag_173:\n        /* \"#utility.yul\":5743:5898   */\n      swap2\n      pop\n        /* \"#utility.yul\":5915:5918   */\n      dup2\n        /* \"#utility.yul\":5908:5918   */\n      swap1\n      pop\n        /* \"#utility.yul\":5383:5924   */\n      swap3\n      swap2\n      pop\n      pop\n      jump\t// out\n        /* \"#utility.yul\":5930:6028   */\n    tag_105:\n        /* \"#utility.yul\":5981:5987   */\n      0x00\n        /* \"#utility.yul\":6015:6020   */\n      dup2\n        /* \"#utility.yul\":6009:6021   */\n      mload\n        /* \"#utility.yul\":5999:6021   */\n      swap1\n      pop\n        /* \"#utility.yul\":5930:6028   */\n      swap2\n      swap1\n      pop\n      jump\t// out\n        /* \"#utility.yul\":6034:6181   */\n    tag_106:\n        /* \"#utility.yul\":6135:6146   */\n      0x00\n        /* \"#utility.yul\":6172:6175   */\n      dup2\n        /* \"#utility.yul\":6157:6175   */\n      swap1\n      pop\n        /* \"#utility.yul\":6034:6181   */\n      swap3\n      swap2\n      pop\n      pop\n      jump\t// out\n        /* \"#utility.yul\":6187:6573   */\n    tag_107:\n        /* \"#utility.yul\":6291:6294   */\n      0x00\n        /* \"#utility.yul\":6319:6357   */\n      tag_177\n        /* \"#utility.yul\":6351:6356   */\n      dup3\n        /* \"#utility.yul\":6319:6357   */\n      tag_105\n      jump\t// in\n    tag_177:\n        /* \"#utility.yul\":6373:6461   */\n      tag_178\n        /* \"#utility.yul\":6454:6460   */\n      dup2\n        /* \"#utility.yul\":6449:6452   */\n      dup6\n        /* \"#utility.yul\":6373:6461   */\n      tag_106\n      jump\t// in\n    tag_178:\n        /* \"#utility.yul\":6366:6461   */\n      swap4\n      pop\n        /* \"#utility.yul\":6470:6535   */\n      tag_179\n        /* \"#utility.yul\":6528:6534   */\n      dup2\n        /* \"#utility.yul\":6523:6526   */\n      dup6\n        /* \"#utility.yul\":6516:6520   */\n      0x20\n        /* \"#utility.yul\":6509:6514   */\n      dup7\n        /* \"#utility.yul\":6505:6521   */\n      add\n        /* \"#utility.yul\":6470:6535   */\n      tag_96\n      jump\t// in\n    tag_179:\n        /* \"#utility.yul\":6560:6566   */\n      dup1\n        /* \"#utility.yul\":6555:6558   */\n      dup5\n        /* \"#utility.yul\":6551:6567   */\n      add\n        /* \"#utility.yul\":6544:6567   */\n      swap2\n      pop\n        /* \"#utility.yul\":6295:6573   */\n      pop\n        /* \"#utility.yul\":6187:6573   */\n      swap3\n      swap2\n      pop\n      pop\n      jump\t// out\n        /* \"#utility.yul\":6579:7006   */\n    tag_50:\n        /* \"#utility.yul\":6755:6758   */\n      0x00\n        /* \"#utility.yul\":6777:6870   */\n      tag_181\n        /* \"#utility.yul\":6866:6869   */\n      dup3\n        /* \"#utility.yul\":6857:6863   */\n      dup6\n        /* \"#utility.yul\":6777:6870   */\n      tag_107\n      jump\t// in\n    tag_181:\n        /* \"#utility.yul\":6770:6870   */\n      swap2\n      pop\n        /* \"#utility.yul\":6887:6980   */\n      tag_182\n        /* \"#utility.yul\":6976:6979   */\n      dup3\n        /* \"#utility.yul\":6967:6973   */\n      dup5\n        /* \"#utility.yul\":6887:6980   */\n      tag_107\n      jump\t// in\n    tag_182:\n        /* \"#utility.yul\":6880:6980   */\n      swap2\n      pop\n        /* \"#utility.yul\":6997:7000   */\n      dup2\n        /* \"#utility.yul\":6990:7000   */\n      swap1\n      pop\n        /* \"#utility.yul\":6579:7006   */\n      swap4\n      swap3\n      pop\n      pop\n      pop\n      jump\t// out\n\n    auxdata: 0xa2646970667358221220f55cdfd271494b1a2d7fdcd07fe5c437879c61fa6caa4340d4fcbae3f136190d64736f6c63430008160033\n}\n",
				"bytecode": {
					"linkReferences": {},
					"object": "608060405234801561000f575f80fd5b506109048061001d5f395ff3fe608060405234801561000f575f80fd5b5060043610610034575f3560e01c8063212e31d614610038578063661a03da14610068575b5f80fd5b610052600480360381019061004d9190610540565b610098565b60405161005f91906105f5565b60405180910390f35b610082600480360381019061007d9190610540565b6102b9565b60405161008f9190610624565b60405180910390f35b60605f601290505f836040516020016100b19190610624565b60405160208183030381529060405290505f670de0b6b3a7640000856100d79190610697565b90505f6100e3826102ee565b90505f8467ffffffffffffffff811115610100576100ff6106c7565b5b6040519080825280601f01601f1916602001820160405280156101325781602001600182028036833780820191505090505b5090505f61013f886102b9565b90505f600190505f60018861015491906106f4565b90505b5f811115610269575f828461016c91906106f4565b106101e5575f87838561017f91906106f4565b815181106101905761018f610727565b5b602001015160f81c60f81b9050808583815181106101b1576101b0610727565b5b60200101907effffffffffffffffffffffffffffffffffffffffffffffffffffffffffffff191690815f1a90535050610248565b7f300000000000000000000000000000000000000000000000000000000000000084828151811061021957610218610727565b5b60200101907effffffffffffffffffffffffffffffffffffffffffffffffffffffffffffff191690815f1a9053505b818061025390610754565b92505080806102619061079b565b915050610157565b508360405160200161027b9190610846565b6040516020818303038152906040528360405160200161029c9291906108ab565b604051602081830303815290604052975050505050505050919050565b5f805b5f83146102e55780806102ce90610754565b915050600a836102de9190610697565b92506102bc565b80915050919050565b60605f60016102fc846103b8565b0190505f8167ffffffffffffffff81111561031a576103196106c7565b5b6040519080825280601f01601f19166020018201604052801561034c5781602001600182028036833780820191505090505b5090505f82602001820190505b6001156103ad578080600190039150507f3031323334353637383961626364656600000000000000000000000000000000600a86061a8153600a85816103a2576103a161063d565b5b0494505f8503610359575b819350505050919050565b5f805f90507a184f03e93ff9f4daa797ed6e38ed64bf6a1f0100000000000000008310610414577a184f03e93ff9f4daa797ed6e38ed64bf6a1f010000000000000000838161040a5761040961063d565b5b0492506040810190505b6d04ee2d6d415b85acef81000000008310610451576d04ee2d6d415b85acef810000000083816104475761044661063d565b5b0492506020810190505b662386f26fc10000831061048057662386f26fc1000083816104765761047561063d565b5b0492506010810190505b6305f5e10083106104a9576305f5e100838161049f5761049e61063d565b5b0492506008810190505b61271083106104ce5761271083816104c4576104c361063d565b5b0492506004810190505b606483106104f157606483816104e7576104e661063d565b5b0492506002810190505b600a8310610500576001810190505b80915050919050565b5f80fd5b5f819050919050565b61051f8161050d565b8114610529575f80fd5b50565b5f8135905061053a81610516565b92915050565b5f6020828403121561055557610554610509565b5b5f6105628482850161052c565b91505092915050565b5f81519050919050565b5f82825260208201905092915050565b5f5b838110156105a2578082015181840152602081019050610587565b5f8484015250505050565b5f601f19601f8301169050919050565b5f6105c78261056b565b6105d18185610575565b93506105e1818560208601610585565b6105ea816105ad565b840191505092915050565b5f6020820190508181035f83015261060d81846105bd565b905092915050565b61061e8161050d565b82525050565b5f6020820190506106375f830184610615565b92915050565b7f4e487b71000000000000000000000000000000000000000000000000000000005f52601260045260245ffd5b7f4e487b71000000000000000000000000000000000000000000000000000000005f52601160045260245ffd5b5f6106a18261050d565b91506106ac8361050d565b9250826106bc576106bb61063d565b5b828204905092915050565b7f4e487b71000000000000000000000000000000000000000000000000000000005f52604160045260245ffd5b5f6106fe8261050d565b91506107098361050d565b92508282039050818111156107215761072061066a565b5b92915050565b7f4e487b71000000000000000000000000000000000000000000000000000000005f52603260045260245ffd5b5f61075e8261050d565b91507fffffffffffffffffffffffffffffffffffffffffffffffffffffffffffffffff82036107905761078f61066a565b5b600182019050919050565b5f6107a58261050d565b91505f82036107b7576107b661066a565b5b600182039050919050565b5f81905092915050565b5f6107d68261056b565b6107e081856107c2565b93506107f0818560208601610585565b80840191505092915050565b7f2e000000000000000000000000000000000000000000000000000000000000005f82015250565b5f6108306001836107c2565b915061083b826107fc565b600182019050919050565b5f61085182846107cc565b915061085c82610824565b915081905092915050565b5f81519050919050565b5f81905092915050565b5f61088582610867565b61088f8185610871565b935061089f818560208601610585565b80840191505092915050565b5f6108b6828561087b565b91506108c2828461087b565b9150819050939250505056fea2646970667358221220f55cdfd271494b1a2d7fdcd07fe5c437879c61fa6caa4340d4fcbae3f136190d64736f6c63430008160033",
					"opcodes": "PUSH1 0x80 PUSH1 0x40 MSTORE CALLVALUE DUP1 ISZERO PUSH2 0xF JUMPI PUSH0 DUP1 REVERT JUMPDEST POP PUSH2 0x904 DUP1 PUSH2 0x1D PUSH0 CODECOPY PUSH0 RETURN INVALID PUSH1 0x80 PUSH1 0x40 MSTORE CALLVALUE DUP1 ISZERO PUSH2 0xF JUMPI PUSH0 DUP1 REVERT JUMPDEST POP PUSH1 0x4 CALLDATASIZE LT PUSH2 0x34 JUMPI PUSH0 CALLDATALOAD PUSH1 0xE0 SHR DUP1 PUSH4 0x212E31D6 EQ PUSH2 0x38 JUMPI DUP1 PUSH4 0x661A03DA EQ PUSH2 0x68 JUMPI JUMPDEST PUSH0 DUP1 REVERT JUMPDEST PUSH2 0x52 PUSH1 0x4 DUP1 CALLDATASIZE SUB DUP2 ADD SWAP1 PUSH2 0x4D SWAP2 SWAP1 PUSH2 0x540 JUMP JUMPDEST PUSH2 0x98 JUMP JUMPDEST PUSH1 0x40 MLOAD PUSH2 0x5F SWAP2 SWAP1 PUSH2 0x5F5 JUMP JUMPDEST PUSH1 0x40 MLOAD DUP1 SWAP2 SUB SWAP1 RETURN JUMPDEST PUSH2 0x82 PUSH1 0x4 DUP1 CALLDATASIZE SUB DUP2 ADD SWAP1 PUSH2 0x7D SWAP2 SWAP1 PUSH2 0x540 JUMP JUMPDEST PUSH2 0x2B9 JUMP JUMPDEST PUSH1 0x40 MLOAD PUSH2 0x8F SWAP2 SWAP1 PUSH2 0x624 JUMP JUMPDEST PUSH1 0x40 MLOAD DUP1 SWAP2 SUB SWAP1 RETURN JUMPDEST PUSH1 0x60 PUSH0 PUSH1 0x12 SWAP1 POP PUSH0 DUP4 PUSH1 0x40 MLOAD PUSH1 0x20 ADD PUSH2 0xB1 SWAP2 SWAP1 PUSH2 0x624 JUMP JUMPDEST PUSH1 0x40 MLOAD PUSH1 0x20 DUP2 DUP4 SUB SUB DUP2 MSTORE SWAP1 PUSH1 0x40 MSTORE SWAP1 POP PUSH0 PUSH8 0xDE0B6B3A7640000 DUP6 PUSH2 0xD7 SWAP2 SWAP1 PUSH2 0x697 JUMP JUMPDEST SWAP1 POP PUSH0 PUSH2 0xE3 DUP3 PUSH2 0x2EE JUMP JUMPDEST SWAP1 POP PUSH0 DUP5 PUSH8 0xFFFFFFFFFFFFFFFF DUP2 GT ISZERO PUSH2 0x100 JUMPI PUSH2 0xFF PUSH2 0x6C7 JUMP JUMPDEST JUMPDEST PUSH1 0x40 MLOAD SWAP1 DUP1 DUP3 MSTORE DUP1 PUSH1 0x1F ADD PUSH1 0x1F NOT AND PUSH1 0x20 ADD DUP3 ADD PUSH1 0x40 MSTORE DUP1 ISZERO PUSH2 0x132 JUMPI DUP2 PUSH1 0x20 ADD PUSH1 0x1 DUP3 MUL DUP1 CALLDATASIZE DUP4 CALLDATACOPY DUP1 DUP3 ADD SWAP2 POP POP SWAP1 POP JUMPDEST POP SWAP1 POP PUSH0 PUSH2 0x13F DUP9 PUSH2 0x2B9 JUMP JUMPDEST SWAP1 POP PUSH0 PUSH1 0x1 SWAP1 POP PUSH0 PUSH1 0x1 DUP9 PUSH2 0x154 SWAP2 SWAP1 PUSH2 0x6F4 JUMP JUMPDEST SWAP1 POP JUMPDEST PUSH0 DUP2 GT ISZERO PUSH2 0x269 JUMPI PUSH0 DUP3 DUP5 PUSH2 0x16C SWAP2 SWAP1 PUSH2 0x6F4 JUMP JUMPDEST LT PUSH2 0x1E5 JUMPI PUSH0 DUP8 DUP4 DUP6 PUSH2 0x17F SWAP2 SWAP1 PUSH2 0x6F4 JUMP JUMPDEST DUP2 MLOAD DUP2 LT PUSH2 0x190 JUMPI PUSH2 0x18F PUSH2 0x727 JUMP JUMPDEST JUMPDEST PUSH1 0x20 ADD ADD MLOAD PUSH1 0xF8 SHR PUSH1 0xF8 SHL SWAP1 POP DUP1 DUP6 DUP4 DUP2 MLOAD DUP2 LT PUSH2 0x1B1 JUMPI PUSH2 0x1B0 PUSH2 0x727 JUMP JUMPDEST JUMPDEST PUSH1 0x20 ADD ADD SWAP1 PUSH31 0xFFFFFFFFFFFFFFFFFFFFFFFFFFFFFFFFFFFFFFFFFFFFFFFFFFFFFFFFFFFFFF NOT AND SWAP1 DUP2 PUSH0 BYTE SWAP1 MSTORE8 POP POP PUSH2 0x248 JUMP JUMPDEST PUSH32 0x3000000000000000000000000000000000000000000000000000000000000000 DUP5 DUP3 DUP2 MLOAD DUP2 LT PUSH2 0x219 JUMPI PUSH2 0x218 PUSH2 0x727 JUMP JUMPDEST JUMPDEST PUSH1 0x20 ADD ADD SWAP1 PUSH31 0xFFFFFFFFFFFFFFFFFFFFFFFFFFFFFFFFFFFFFFFFFFFFFFFFFFFFFFFFFFFFFF NOT AND SWAP1 DUP2 PUSH0 BYTE SWAP1 MSTORE8 POP JUMPDEST DUP2 DUP1 PUSH2 0x253 SWAP1 PUSH2 0x754 JUMP JUMPDEST SWAP3 POP POP DUP1 DUP1 PUSH2 0x261 SWAP1 PUSH2 0x79B JUMP JUMPDEST SWAP2 POP POP PUSH2 0x157 JUMP JUMPDEST POP DUP4 PUSH1 0x40 MLOAD PUSH1 0x20 ADD PUSH2 0x27B SWAP2 SWAP1 PUSH2 0x846 JUMP JUMPDEST PUSH1 0x40 MLOAD PUSH1 0x20 DUP2 DUP4 SUB SUB DUP2 MSTORE SWAP1 PUSH1 0x40 MSTORE DUP4 PUSH1 0x40 MLOAD PUSH1 0x20 ADD PUSH2 0x29C SWAP3 SWAP2 SWAP1 PUSH2 0x8AB JUMP JUMPDEST PUSH1 0x40 MLOAD PUSH1 0x20 DUP2 DUP4 SUB SUB DUP2 MSTORE SWAP1 PUSH1 0x40 MSTORE SWAP8 POP POP POP POP POP POP POP POP SWAP2 SWAP1 POP JUMP JUMPDEST PUSH0 DUP1 JUMPDEST PUSH0 DUP4 EQ PUSH2 0x2E5 JUMPI DUP1 DUP1 PUSH2 0x2CE SWAP1 PUSH2 0x754 JUMP JUMPDEST SWAP2 POP POP PUSH1 0xA DUP4 PUSH2 0x2DE SWAP2 SWAP1 PUSH2 0x697 JUMP JUMPDEST SWAP3 POP PUSH2 0x2BC JUMP JUMPDEST DUP1 SWAP2 POP POP SWAP2 SWAP1 POP JUMP JUMPDEST PUSH1 0x60 PUSH0 PUSH1 0x1 PUSH2 0x2FC DUP5 PUSH2 0x3B8 JUMP JUMPDEST ADD SWAP1 POP PUSH0 DUP2 PUSH8 0xFFFFFFFFFFFFFFFF DUP2 GT ISZERO PUSH2 0x31A JUMPI PUSH2 0x319 PUSH2 0x6C7 JUMP JUMPDEST JUMPDEST PUSH1 0x40 MLOAD SWAP1 DUP1 DUP3 MSTORE DUP1 PUSH1 0x1F ADD PUSH1 0x1F NOT AND PUSH1 0x20 ADD DUP3 ADD PUSH1 0x40 MSTORE DUP1 ISZERO PUSH2 0x34C JUMPI DUP2 PUSH1 0x20 ADD PUSH1 0x1 DUP3 MUL DUP1 CALLDATASIZE DUP4 CALLDATACOPY DUP1 DUP3 ADD SWAP2 POP POP SWAP1 POP JUMPDEST POP SWAP1 POP PUSH0 DUP3 PUSH1 0x20 ADD DUP3 ADD SWAP1 POP JUMPDEST PUSH1 0x1 ISZERO PUSH2 0x3AD JUMPI DUP1 DUP1 PUSH1 0x1 SWAP1 SUB SWAP2 POP POP PUSH32 0x3031323334353637383961626364656600000000000000000000000000000000 PUSH1 0xA DUP7 MOD BYTE DUP2 MSTORE8 PUSH1 0xA DUP6 DUP2 PUSH2 0x3A2 JUMPI PUSH2 0x3A1 PUSH2 0x63D JUMP JUMPDEST JUMPDEST DIV SWAP5 POP PUSH0 DUP6 SUB PUSH2 0x359 JUMPI JUMPDEST DUP2 SWAP4 POP POP POP POP SWAP2 SWAP1 POP JUMP JUMPDEST PUSH0 DUP1 PUSH0 SWAP1 POP PUSH27 0x184F03E93FF9F4DAA797ED6E38ED64BF6A1F010000000000000000 DUP4 LT PUSH2 0x414 JUMPI PUSH27 0x184F03E93FF9F4DAA797ED6E38ED64BF6A1F010000000000000000 DUP4 DUP2 PUSH2 0x40A JUMPI PUSH2 0x409 PUSH2 0x63D JUMP JUMPDEST JUMPDEST DIV SWAP3 POP PUSH1 0x40 DUP2 ADD SWAP1 POP JUMPDEST PUSH14 0x4EE2D6D415B85ACEF8100000000 DUP4 LT PUSH2 0x451 JUMPI PUSH14 0x4EE2D6D415B85ACEF8100000000 DUP4 DUP2 PUSH2 0x447 JUMPI PUSH2 0x446 PUSH2 0x63D JUMP JUMPDEST JUMPDEST DIV SWAP3 POP PUSH1 0x20 DUP2 ADD SWAP1 POP JUMPDEST PUSH7 0x2386F26FC10000 DUP4 LT PUSH2 0x480 JUMPI PUSH7 0x2386F26FC10000 DUP4 DUP2 PUSH2 0x476 JUMPI PUSH2 0x475 PUSH2 0x63D JUMP JUMPDEST JUMPDEST DIV SWAP3 POP PUSH1 0x10 DUP2 ADD SWAP1 POP JUMPDEST PUSH4 0x5F5E100 DUP4 LT PUSH2 0x4A9 JUMPI PUSH4 0x5F5E100 DUP4 DUP2 PUSH2 0x49F JUMPI PUSH2 0x49E PUSH2 0x63D JUMP JUMPDEST JUMPDEST DIV SWAP3 POP PUSH1 0x8 DUP2 ADD SWAP1 POP JUMPDEST PUSH2 0x2710 DUP4 LT PUSH2 0x4CE JUMPI PUSH2 0x2710 DUP4 DUP2 PUSH2 0x4C4 JUMPI PUSH2 0x4C3 PUSH2 0x63D JUMP JUMPDEST JUMPDEST DIV SWAP3 POP PUSH1 0x4 DUP2 ADD SWAP1 POP JUMPDEST PUSH1 0x64 DUP4 LT PUSH2 0x4F1 JUMPI PUSH1 0x64 DUP4 DUP2 PUSH2 0x4E7 JUMPI PUSH2 0x4E6 PUSH2 0x63D JUMP JUMPDEST JUMPDEST DIV SWAP3 POP PUSH1 0x2 DUP2 ADD SWAP1 POP JUMPDEST PUSH1 0xA DUP4 LT PUSH2 0x500 JUMPI PUSH1 0x1 DUP2 ADD SWAP1 POP JUMPDEST DUP1 SWAP2 POP POP SWAP2 SWAP1 POP JUMP JUMPDEST PUSH0 DUP1 REVERT JUMPDEST PUSH0 DUP2 SWAP1 POP SWAP2 SWAP1 POP JUMP JUMPDEST PUSH2 0x51F DUP2 PUSH2 0x50D JUMP JUMPDEST DUP2 EQ PUSH2 0x529 JUMPI PUSH0 DUP1 REVERT JUMPDEST POP JUMP JUMPDEST PUSH0 DUP2 CALLDATALOAD SWAP1 POP PUSH2 0x53A DUP2 PUSH2 0x516 JUMP JUMPDEST SWAP3 SWAP2 POP POP JUMP JUMPDEST PUSH0 PUSH1 0x20 DUP3 DUP5 SUB SLT ISZERO PUSH2 0x555 JUMPI PUSH2 0x554 PUSH2 0x509 JUMP JUMPDEST JUMPDEST PUSH0 PUSH2 0x562 DUP5 DUP3 DUP6 ADD PUSH2 0x52C JUMP JUMPDEST SWAP2 POP POP SWAP3 SWAP2 POP POP JUMP JUMPDEST PUSH0 DUP2 MLOAD SWAP1 POP SWAP2 SWAP1 POP JUMP JUMPDEST PUSH0 DUP3 DUP3 MSTORE PUSH1 0x20 DUP3 ADD SWAP1 POP SWAP3 SWAP2 POP POP JUMP JUMPDEST PUSH0 JUMPDEST DUP4 DUP2 LT ISZERO PUSH2 0x5A2 JUMPI DUP1 DUP3 ADD MLOAD DUP2 DUP5 ADD MSTORE PUSH1 0x20 DUP2 ADD SWAP1 POP PUSH2 0x587 JUMP JUMPDEST PUSH0 DUP5 DUP5 ADD MSTORE POP POP POP POP JUMP JUMPDEST PUSH0 PUSH1 0x1F NOT PUSH1 0x1F DUP4 ADD AND SWAP1 POP SWAP2 SWAP1 POP JUMP JUMPDEST PUSH0 PUSH2 0x5C7 DUP3 PUSH2 0x56B JUMP JUMPDEST PUSH2 0x5D1 DUP2 DUP6 PUSH2 0x575 JUMP JUMPDEST SWAP4 POP PUSH2 0x5E1 DUP2 DUP6 PUSH1 0x20 DUP7 ADD PUSH2 0x585 JUMP JUMPDEST PUSH2 0x5EA DUP2 PUSH2 0x5AD JUMP JUMPDEST DUP5 ADD SWAP2 POP POP SWAP3 SWAP2 POP POP JUMP JUMPDEST PUSH0 PUSH1 0x20 DUP3 ADD SWAP1 POP DUP2 DUP2 SUB PUSH0 DUP4 ADD MSTORE PUSH2 0x60D DUP2 DUP5 PUSH2 0x5BD JUMP JUMPDEST SWAP1 POP SWAP3 SWAP2 POP POP JUMP JUMPDEST PUSH2 0x61E DUP2 PUSH2 0x50D JUMP JUMPDEST DUP3 MSTORE POP POP JUMP JUMPDEST PUSH0 PUSH1 0x20 DUP3 ADD SWAP1 POP PUSH2 0x637 PUSH0 DUP4 ADD DUP5 PUSH2 0x615 JUMP JUMPDEST SWAP3 SWAP2 POP POP JUMP JUMPDEST PUSH32 0x4E487B7100000000000000000000000000000000000000000000000000000000 PUSH0 MSTORE PUSH1 0x12 PUSH1 0x4 MSTORE PUSH1 0x24 PUSH0 REVERT JUMPDEST PUSH32 0x4E487B7100000000000000000000000000000000000000000000000000000000 PUSH0 MSTORE PUSH1 0x11 PUSH1 0x4 MSTORE PUSH1 0x24 PUSH0 REVERT JUMPDEST PUSH0 PUSH2 0x6A1 DUP3 PUSH2 0x50D JUMP JUMPDEST SWAP2 POP PUSH2 0x6AC DUP4 PUSH2 0x50D JUMP JUMPDEST SWAP3 POP DUP3 PUSH2 0x6BC JUMPI PUSH2 0x6BB PUSH2 0x63D JUMP JUMPDEST JUMPDEST DUP3 DUP3 DIV SWAP1 POP SWAP3 SWAP2 POP POP JUMP JUMPDEST PUSH32 0x4E487B7100000000000000000000000000000000000000000000000000000000 PUSH0 MSTORE PUSH1 0x41 PUSH1 0x4 MSTORE PUSH1 0x24 PUSH0 REVERT JUMPDEST PUSH0 PUSH2 0x6FE DUP3 PUSH2 0x50D JUMP JUMPDEST SWAP2 POP PUSH2 0x709 DUP4 PUSH2 0x50D JUMP JUMPDEST SWAP3 POP DUP3 DUP3 SUB SWAP1 POP DUP2 DUP2 GT ISZERO PUSH2 0x721 JUMPI PUSH2 0x720 PUSH2 0x66A JUMP JUMPDEST JUMPDEST SWAP3 SWAP2 POP POP JUMP JUMPDEST PUSH32 0x4E487B7100000000000000000000000000000000000000000000000000000000 PUSH0 MSTORE PUSH1 0x32 PUSH1 0x4 MSTORE PUSH1 0x24 PUSH0 REVERT JUMPDEST PUSH0 PUSH2 0x75E DUP3 PUSH2 0x50D JUMP JUMPDEST SWAP2 POP PUSH32 0xFFFFFFFFFFFFFFFFFFFFFFFFFFFFFFFFFFFFFFFFFFFFFFFFFFFFFFFFFFFFFFFF DUP3 SUB PUSH2 0x790 JUMPI PUSH2 0x78F PUSH2 0x66A JUMP JUMPDEST JUMPDEST PUSH1 0x1 DUP3 ADD SWAP1 POP SWAP2 SWAP1 POP JUMP JUMPDEST PUSH0 PUSH2 0x7A5 DUP3 PUSH2 0x50D JUMP JUMPDEST SWAP2 POP PUSH0 DUP3 SUB PUSH2 0x7B7 JUMPI PUSH2 0x7B6 PUSH2 0x66A JUMP JUMPDEST JUMPDEST PUSH1 0x1 DUP3 SUB SWAP1 POP SWAP2 SWAP1 POP JUMP JUMPDEST PUSH0 DUP2 SWAP1 POP SWAP3 SWAP2 POP POP JUMP JUMPDEST PUSH0 PUSH2 0x7D6 DUP3 PUSH2 0x56B JUMP JUMPDEST PUSH2 0x7E0 DUP2 DUP6 PUSH2 0x7C2 JUMP JUMPDEST SWAP4 POP PUSH2 0x7F0 DUP2 DUP6 PUSH1 0x20 DUP7 ADD PUSH2 0x585 JUMP JUMPDEST DUP1 DUP5 ADD SWAP2 POP POP SWAP3 SWAP2 POP POP JUMP JUMPDEST PUSH32 0x2E00000000000000000000000000000000000000000000000000000000000000 PUSH0 DUP3 ADD MSTORE POP JUMP JUMPDEST PUSH0 PUSH2 0x830 PUSH1 0x1 DUP4 PUSH2 0x7C2 JUMP JUMPDEST SWAP2 POP PUSH2 0x83B DUP3 PUSH2 0x7FC JUMP JUMPDEST PUSH1 0x1 DUP3 ADD SWAP1 POP SWAP2 SWAP1 POP JUMP JUMPDEST PUSH0 PUSH2 0x851 DUP3 DUP5 PUSH2 0x7CC JUMP JUMPDEST SWAP2 POP PUSH2 0x85C DUP3 PUSH2 0x824 JUMP JUMPDEST SWAP2 POP DUP2 SWAP1 POP SWAP3 SWAP2 POP POP JUMP JUMPDEST PUSH0 DUP2 MLOAD SWAP1 POP SWAP2 SWAP1 POP JUMP JUMPDEST PUSH0 DUP2 SWAP1 POP SWAP3 SWAP2 POP POP JUMP JUMPDEST PUSH0 PUSH2 0x885 DUP3 PUSH2 0x867 JUMP JUMPDEST PUSH2 0x88F DUP2 DUP6 PUSH2 0x871 JUMP JUMPDEST SWAP4 POP PUSH2 0x89F DUP2 DUP6 PUSH1 0x20 DUP7 ADD PUSH2 0x585 JUMP JUMPDEST DUP1 DUP5 ADD SWAP2 POP POP SWAP3 SWAP2 POP POP JUMP JUMPDEST PUSH0 PUSH2 0x8B6 DUP3 DUP6 PUSH2 0x87B JUMP JUMPDEST SWAP2 POP PUSH2 0x8C2 DUP3 DUP5 PUSH2 0x87B JUMP JUMPDEST SWAP2 POP DUP2 SWAP1 POP SWAP4 SWAP3 POP POP POP JUMP INVALID LOG2 PUSH5 0x6970667358 0x22 SLT KECCAK256 CREATE2 0x5C 0xDF 0xD2 PUSH18 0x494B1A2D7FDCD07FE5C437879C61FA6CAA43 BLOCKHASH 0xD4 0xFC 0xBA 0xE3 CALL CALLDATASIZE NOT 0xD PUSH5 0x736F6C6343 STOP ADDMOD AND STOP CALLER "
				},
				"gasEstimates": {
					"creation": {
						"codeDepositCost": "461600",
						"executionCost": "497",
						"totalCost": "462097"
					},
					"external": {
						"convertToSmallerUnit(uint256)": "infinite",
						"getUintLength(uint256)": "infinite"
					}
				},
				"methodIdentifiers": {
					"convertToSmallerUnit(uint256)": "212e31d6",
					"getUintLength(uint256)": "661a03da"
				}
			},
			"storageLayout": {
				"storage": [],
				"types": null
			},
			"userdoc": {
				"kind": "user",
				"methods": {},
				"version": 1
			}
		}
	}
}