{
	"contracts/utils/MyStringUtils.sol": {
		"MyStringUtils": {
			"abi": [
				{
					"inputs": [
						{
							"internalType": "string",
							"name": "str1",
							"type": "string"
						},
						{
							"internalType": "string",
							"name": "str2",
							"type": "string"
						}
					],
					"name": "strcat",
					"outputs": [
						{
							"internalType": "string",
							"name": "",
							"type": "string"
						}
					],
					"stateMutability": "pure",
					"type": "function"
				},
				{
					"inputs": [
						{
							"internalType": "string",
							"name": "str",
							"type": "string"
						},
						{
							"internalType": "uint256",
							"name": "startInd",
							"type": "uint256"
						},
						{
							"internalType": "uint256",
							"name": "endInd",
							"type": "uint256"
						}
					],
					"name": "substring",
					"outputs": [
						{
							"internalType": "string",
							"name": "",
							"type": "string"
						}
					],
					"stateMutability": "pure",
					"type": "function"
				}
			],
			"devdoc": {
				"kind": "dev",
				"methods": {},
				"version": 1
			},
			"evm": {
				"assembly": "    /* \"contracts/utils/MyStringUtils.sol\":78:911  library MyStringUtils{... */\n  dataSize(sub_0)\n  dataOffset(sub_0)\n  0x0b\n  dup3\n  dup3\n  dup3\n  codecopy\n  dup1\n  mload\n  0x00\n  byte\n  0x73\n  eq\n  tag_1\n  jumpi\n  mstore(0x00, 0x4e487b7100000000000000000000000000000000000000000000000000000000)\n  mstore(0x04, 0x00)\n  revert(0x00, 0x24)\ntag_1:\n  mstore(0x00, address)\n  0x73\n  dup2\n  mstore8\n  dup3\n  dup2\n  return\nstop\n\nsub_0: assembly {\n        /* \"contracts/utils/MyStringUtils.sol\":78:911  library MyStringUtils{... */\n      eq(address, deployTimeAddress())\n      mstore(0x40, 0x80)\n      jumpi(tag_1, lt(calldatasize, 0x04))\n      shr(0xe0, calldataload(0x00))\n      dup1\n      0x1dcd9b55\n      eq\n      tag_2\n      jumpi\n      dup1\n      0xd824ccf3\n      eq\n      tag_3\n      jumpi\n    tag_1:\n      0x00\n      dup1\n      revert\n        /* \"contracts/utils/MyStringUtils.sol\":558:908  function substring(string memory str, uint startInd, uint endInd) public pure returns(string memory){... */\n    tag_2:\n      tag_4\n      0x04\n      dup1\n      calldatasize\n      sub\n      dup2\n      add\n      swap1\n      tag_5\n      swap2\n      swap1\n      tag_6\n      jump\t// in\n    tag_5:\n      tag_7\n      jump\t// in\n    tag_4:\n      mload(0x40)\n      tag_8\n      swap2\n      swap1\n      tag_9\n      jump\t// in\n    tag_8:\n      mload(0x40)\n      dup1\n      swap2\n      sub\n      swap1\n      return\n        /* \"contracts/utils/MyStringUtils.sol\":106:552  function strcat(string memory str1, string memory str2) public pure returns(string memory) {... */\n    tag_3:\n      tag_10\n      0x04\n      dup1\n      calldatasize\n      sub\n      dup2\n      add\n      swap1\n      tag_11\n      swap2\n      swap1\n      tag_12\n      jump\t// in\n    tag_11:\n      tag_13\n      jump\t// in\n    tag_10:\n      mload(0x40)\n      tag_14\n      swap2\n      swap1\n      tag_9\n      jump\t// in\n    tag_14:\n      mload(0x40)\n      dup1\n      swap2\n      sub\n      swap1\n      return\n        /* \"contracts/utils/MyStringUtils.sol\":558:908  function substring(string memory str, uint startInd, uint endInd) public pure returns(string memory){... */\n    tag_7:\n        /* \"contracts/utils/MyStringUtils.sol\":644:657  string memory */\n      0x60\n        /* \"contracts/utils/MyStringUtils.sol\":669:690  bytes memory strBytes */\n      0x00\n        /* \"contracts/utils/MyStringUtils.sol\":699:702  str */\n      dup5\n        /* \"contracts/utils/MyStringUtils.sol\":669:703  bytes memory strBytes = bytes(str) */\n      swap1\n      pop\n        /* \"contracts/utils/MyStringUtils.sol\":714:733  bytes memory endStr */\n      0x00\n        /* \"contracts/utils/MyStringUtils.sol\":755:763  startInd */\n      dup5\n        /* \"contracts/utils/MyStringUtils.sol\":746:752  endInd */\n      dup5\n        /* \"contracts/utils/MyStringUtils.sol\":746:763  endInd - startInd */\n      tag_16\n      swap2\n      swap1\n      tag_17\n      jump\t// in\n    tag_16:\n        /* \"contracts/utils/MyStringUtils.sol\":736:764  new bytes(endInd - startInd) */\n      0xffffffffffffffff\n      dup2\n      gt\n      iszero\n      tag_18\n      jumpi\n      tag_19\n      tag_20\n      jump\t// in\n    tag_19:\n    tag_18:\n      mload(0x40)\n      swap1\n      dup1\n      dup3\n      mstore\n      dup1\n      0x1f\n      add\n      not(0x1f)\n      and\n      0x20\n      add\n      dup3\n      add\n      0x40\n      mstore\n      dup1\n      iszero\n      tag_21\n      jumpi\n      dup2\n      0x20\n      add\n      0x01\n      dup3\n      mul\n      dup1\n      calldatasize\n      dup4\n      calldatacopy\n      dup1\n      dup3\n      add\n      swap2\n      pop\n      pop\n      swap1\n      pop\n    tag_21:\n      pop\n        /* \"contracts/utils/MyStringUtils.sol\":714:764  bytes memory endStr = new bytes(endInd - startInd) */\n      swap1\n      pop\n        /* \"contracts/utils/MyStringUtils.sol\":779:785  uint i */\n      0x00\n        /* \"contracts/utils/MyStringUtils.sol\":786:794  startInd */\n      dup6\n        /* \"contracts/utils/MyStringUtils.sol\":779:794  uint i=startInd */\n      swap1\n      pop\n        /* \"contracts/utils/MyStringUtils.sol\":775:869  for(uint i=startInd; i<endInd; i++){... */\n    tag_22:\n        /* \"contracts/utils/MyStringUtils.sol\":798:804  endInd */\n      dup5\n        /* \"contracts/utils/MyStringUtils.sol\":796:797  i */\n      dup2\n        /* \"contracts/utils/MyStringUtils.sol\":796:804  i<endInd */\n      lt\n        /* \"contracts/utils/MyStringUtils.sol\":775:869  for(uint i=startInd; i<endInd; i++){... */\n      iszero\n      tag_23\n      jumpi\n        /* \"contracts/utils/MyStringUtils.sol\":846:854  strBytes */\n      dup3\n        /* \"contracts/utils/MyStringUtils.sol\":855:856  i */\n      dup2\n        /* \"contracts/utils/MyStringUtils.sol\":846:857  strBytes[i] */\n      dup2\n      mload\n      dup2\n      lt\n      tag_25\n      jumpi\n      tag_26\n      tag_27\n      jump\t// in\n    tag_26:\n    tag_25:\n      0x20\n      add\n      add\n      mload\n      0xf8\n      shr\n      0xf8\n      shl\n        /* \"contracts/utils/MyStringUtils.sol\":825:831  endStr */\n      dup3\n        /* \"contracts/utils/MyStringUtils.sol\":834:842  startInd */\n      dup8\n        /* \"contracts/utils/MyStringUtils.sol\":832:833  i */\n      dup4\n        /* \"contracts/utils/MyStringUtils.sol\":832:842  i-startInd */\n      tag_28\n      swap2\n      swap1\n      tag_17\n      jump\t// in\n    tag_28:\n        /* \"contracts/utils/MyStringUtils.sol\":825:843  endStr[i-startInd] */\n      dup2\n      mload\n      dup2\n      lt\n      tag_29\n      jumpi\n      tag_30\n      tag_27\n      jump\t// in\n    tag_30:\n    tag_29:\n      0x20\n      add\n      add\n        /* \"contracts/utils/MyStringUtils.sol\":825:857  endStr[i-startInd] = strBytes[i] */\n      swap1\n      not(0xffffffffffffffffffffffffffffffffffffffffffffffffffffffffffffff)\n      and\n      swap1\n      dup2\n      0x00\n      byte\n      swap1\n      mstore8\n      pop\n        /* \"contracts/utils/MyStringUtils.sol\":806:809  i++ */\n      dup1\n      dup1\n      0x01\n      add\n      swap2\n      pop\n      pop\n        /* \"contracts/utils/MyStringUtils.sol\":775:869  for(uint i=startInd; i<endInd; i++){... */\n      jump(tag_22)\n    tag_23:\n      pop\n        /* \"contracts/utils/MyStringUtils.sol\":893:899  endStr */\n      dup1\n        /* \"contracts/utils/MyStringUtils.sol\":879:900  return string(endStr) */\n      swap3\n      pop\n      pop\n      pop\n        /* \"contracts/utils/MyStringUtils.sol\":558:908  function substring(string memory str, uint startInd, uint endInd) public pure returns(string memory){... */\n      swap4\n      swap3\n      pop\n      pop\n      pop\n      jump\t// out\n        /* \"contracts/utils/MyStringUtils.sol\":106:552  function strcat(string memory str1, string memory str2) public pure returns(string memory) {... */\n    tag_13:\n        /* \"contracts/utils/MyStringUtils.sol\":182:195  string memory */\n      0x60\n        /* \"contracts/utils/MyStringUtils.sol\":208:223  bytes memory s1 */\n      0x00\n        /* \"contracts/utils/MyStringUtils.sol\":232:236  str1 */\n      dup4\n        /* \"contracts/utils/MyStringUtils.sol\":208:237  bytes memory s1 = bytes(str1) */\n      swap1\n      pop\n        /* \"contracts/utils/MyStringUtils.sol\":248:263  bytes memory s2 */\n      0x00\n        /* \"contracts/utils/MyStringUtils.sol\":272:276  str2 */\n      dup4\n        /* \"contracts/utils/MyStringUtils.sol\":248:277  bytes memory s2 = bytes(str2) */\n      swap1\n      pop\n        /* \"contracts/utils/MyStringUtils.sol\":288:304  bytes memory res */\n      0x00\n        /* \"contracts/utils/MyStringUtils.sol\":329:331  s2 */\n      dup2\n        /* \"contracts/utils/MyStringUtils.sol\":329:338  s2.length */\n      mload\n        /* \"contracts/utils/MyStringUtils.sol\":317:319  s1 */\n      dup4\n        /* \"contracts/utils/MyStringUtils.sol\":317:326  s1.length */\n      mload\n        /* \"contracts/utils/MyStringUtils.sol\":317:338  s1.length + s2.length */\n      tag_32\n      swap2\n      swap1\n      tag_33\n      jump\t// in\n    tag_32:\n        /* \"contracts/utils/MyStringUtils.sol\":307:339  new bytes(s1.length + s2.length) */\n      0xffffffffffffffff\n      dup2\n      gt\n      iszero\n      tag_34\n      jumpi\n      tag_35\n      tag_20\n      jump\t// in\n    tag_35:\n    tag_34:\n      mload(0x40)\n      swap1\n      dup1\n      dup3\n      mstore\n      dup1\n      0x1f\n      add\n      not(0x1f)\n      and\n      0x20\n      add\n      dup3\n      add\n      0x40\n      mstore\n      dup1\n      iszero\n      tag_36\n      jumpi\n      dup2\n      0x20\n      add\n      0x01\n      dup3\n      mul\n      dup1\n      calldatasize\n      dup4\n      calldatacopy\n      dup1\n      dup3\n      add\n      swap2\n      pop\n      pop\n      swap1\n      pop\n    tag_36:\n      pop\n        /* \"contracts/utils/MyStringUtils.sol\":288:339  bytes memory res = new bytes(s1.length + s2.length) */\n      swap1\n      pop\n        /* \"contracts/utils/MyStringUtils.sol\":354:360  uint i */\n      0x00\n        /* \"contracts/utils/MyStringUtils.sol\":350:422  for(uint i=0; i<s1.length; i++){... */\n    tag_37:\n        /* \"contracts/utils/MyStringUtils.sol\":366:368  s1 */\n      dup4\n        /* \"contracts/utils/MyStringUtils.sol\":366:375  s1.length */\n      mload\n        /* \"contracts/utils/MyStringUtils.sol\":364:365  i */\n      dup2\n        /* \"contracts/utils/MyStringUtils.sol\":364:375  i<s1.length */\n      lt\n        /* \"contracts/utils/MyStringUtils.sol\":350:422  for(uint i=0; i<s1.length; i++){... */\n      iszero\n      tag_38\n      jumpi\n        /* \"contracts/utils/MyStringUtils.sol\":405:407  s1 */\n      dup4\n        /* \"contracts/utils/MyStringUtils.sol\":408:409  i */\n      dup2\n        /* \"contracts/utils/MyStringUtils.sol\":405:410  s1[i] */\n      dup2\n      mload\n      dup2\n      lt\n      tag_40\n      jumpi\n      tag_41\n      tag_27\n      jump\t// in\n    tag_41:\n    tag_40:\n      0x20\n      add\n      add\n      mload\n      0xf8\n      shr\n      0xf8\n      shl\n        /* \"contracts/utils/MyStringUtils.sol\":396:399  res */\n      dup3\n        /* \"contracts/utils/MyStringUtils.sol\":400:401  i */\n      dup3\n        /* \"contracts/utils/MyStringUtils.sol\":396:402  res[i] */\n      dup2\n      mload\n      dup2\n      lt\n      tag_42\n      jumpi\n      tag_43\n      tag_27\n      jump\t// in\n    tag_43:\n    tag_42:\n      0x20\n      add\n      add\n        /* \"contracts/utils/MyStringUtils.sol\":396:410  res[i] = s1[i] */\n      swap1\n      not(0xffffffffffffffffffffffffffffffffffffffffffffffffffffffffffffff)\n      and\n      swap1\n      dup2\n      0x00\n      byte\n      swap1\n      mstore8\n      pop\n        /* \"contracts/utils/MyStringUtils.sol\":377:380  i++ */\n      dup1\n      dup1\n      0x01\n      add\n      swap2\n      pop\n      pop\n        /* \"contracts/utils/MyStringUtils.sol\":350:422  for(uint i=0; i<s1.length; i++){... */\n      jump(tag_37)\n    tag_38:\n      pop\n        /* \"contracts/utils/MyStringUtils.sol\":436:442  uint i */\n      0x00\n        /* \"contracts/utils/MyStringUtils.sol\":432:516  for(uint i=0; i<s2.length; i++){... */\n    tag_44:\n        /* \"contracts/utils/MyStringUtils.sol\":448:450  s2 */\n      dup3\n        /* \"contracts/utils/MyStringUtils.sol\":448:457  s2.length */\n      mload\n        /* \"contracts/utils/MyStringUtils.sol\":446:447  i */\n      dup2\n        /* \"contracts/utils/MyStringUtils.sol\":446:457  i<s2.length */\n      lt\n        /* \"contracts/utils/MyStringUtils.sol\":432:516  for(uint i=0; i<s2.length; i++){... */\n      iszero\n      tag_45\n      jumpi\n        /* \"contracts/utils/MyStringUtils.sol\":499:501  s2 */\n      dup3\n        /* \"contracts/utils/MyStringUtils.sol\":502:503  i */\n      dup2\n        /* \"contracts/utils/MyStringUtils.sol\":499:504  s2[i] */\n      dup2\n      mload\n      dup2\n      lt\n      tag_47\n      jumpi\n      tag_48\n      tag_27\n      jump\t// in\n    tag_48:\n    tag_47:\n      0x20\n      add\n      add\n      mload\n      0xf8\n      shr\n      0xf8\n      shl\n        /* \"contracts/utils/MyStringUtils.sol\":478:481  res */\n      dup3\n        /* \"contracts/utils/MyStringUtils.sol\":494:495  i */\n      dup3\n        /* \"contracts/utils/MyStringUtils.sol\":482:484  s1 */\n      dup7\n        /* \"contracts/utils/MyStringUtils.sol\":482:491  s1.length */\n      mload\n        /* \"contracts/utils/MyStringUtils.sol\":482:495  s1.length + i */\n      tag_49\n      swap2\n      swap1\n      tag_33\n      jump\t// in\n    tag_49:\n        /* \"contracts/utils/MyStringUtils.sol\":478:496  res[s1.length + i] */\n      dup2\n      mload\n      dup2\n      lt\n      tag_50\n      jumpi\n      tag_51\n      tag_27\n      jump\t// in\n    tag_51:\n    tag_50:\n      0x20\n      add\n      add\n        /* \"contracts/utils/MyStringUtils.sol\":478:504  res[s1.length + i] = s2[i] */\n      swap1\n      not(0xffffffffffffffffffffffffffffffffffffffffffffffffffffffffffffff)\n      and\n      swap1\n      dup2\n      0x00\n      byte\n      swap1\n      mstore8\n      pop\n        /* \"contracts/utils/MyStringUtils.sol\":459:462  i++ */\n      dup1\n      dup1\n      0x01\n      add\n      swap2\n      pop\n      pop\n        /* \"contracts/utils/MyStringUtils.sol\":432:516  for(uint i=0; i<s2.length; i++){... */\n      jump(tag_44)\n    tag_45:\n      pop\n        /* \"contracts/utils/MyStringUtils.sol\":540:543  res */\n      dup1\n        /* \"contracts/utils/MyStringUtils.sol\":526:544  return string(res) */\n      swap4\n      pop\n      pop\n      pop\n      pop\n        /* \"contracts/utils/MyStringUtils.sol\":106:552  function strcat(string memory str1, string memory str2) public pure returns(string memory) {... */\n      swap3\n      swap2\n      pop\n      pop\n      jump\t// out\n        /* \"#utility.yul\":7:82   */\n    tag_52:\n        /* \"#utility.yul\":40:46   */\n      0x00\n        /* \"#utility.yul\":73:75   */\n      0x40\n        /* \"#utility.yul\":67:76   */\n      mload\n        /* \"#utility.yul\":57:76   */\n      swap1\n      pop\n        /* \"#utility.yul\":7:82   */\n      swap1\n      jump\t// out\n        /* \"#utility.yul\":88:205   */\n    tag_53:\n        /* \"#utility.yul\":197:198   */\n      0x00\n        /* \"#utility.yul\":194:195   */\n      dup1\n        /* \"#utility.yul\":187:199   */\n      revert\n        /* \"#utility.yul\":211:328   */\n    tag_54:\n        /* \"#utility.yul\":320:321   */\n      0x00\n        /* \"#utility.yul\":317:318   */\n      dup1\n        /* \"#utility.yul\":310:322   */\n      revert\n        /* \"#utility.yul\":334:451   */\n    tag_55:\n        /* \"#utility.yul\":443:444   */\n      0x00\n        /* \"#utility.yul\":440:441   */\n      dup1\n        /* \"#utility.yul\":433:445   */\n      revert\n        /* \"#utility.yul\":457:574   */\n    tag_56:\n        /* \"#utility.yul\":566:567   */\n      0x00\n        /* \"#utility.yul\":563:564   */\n      dup1\n        /* \"#utility.yul\":556:568   */\n      revert\n        /* \"#utility.yul\":580:682   */\n    tag_57:\n        /* \"#utility.yul\":621:627   */\n      0x00\n        /* \"#utility.yul\":672:674   */\n      0x1f\n        /* \"#utility.yul\":668:675   */\n      not\n        /* \"#utility.yul\":663:665   */\n      0x1f\n        /* \"#utility.yul\":656:661   */\n      dup4\n        /* \"#utility.yul\":652:666   */\n      add\n        /* \"#utility.yul\":648:676   */\n      and\n        /* \"#utility.yul\":638:676   */\n      swap1\n      pop\n        /* \"#utility.yul\":580:682   */\n      swap2\n      swap1\n      pop\n      jump\t// out\n        /* \"#utility.yul\":688:868   */\n    tag_20:\n        /* \"#utility.yul\":736:813   */\n      0x4e487b7100000000000000000000000000000000000000000000000000000000\n        /* \"#utility.yul\":733:734   */\n      0x00\n        /* \"#utility.yul\":726:814   */\n      mstore\n        /* \"#utility.yul\":833:837   */\n      0x41\n        /* \"#utility.yul\":830:831   */\n      0x04\n        /* \"#utility.yul\":823:838   */\n      mstore\n        /* \"#utility.yul\":857:861   */\n      0x24\n        /* \"#utility.yul\":854:855   */\n      0x00\n        /* \"#utility.yul\":847:862   */\n      revert\n        /* \"#utility.yul\":874:1155   */\n    tag_58:\n        /* \"#utility.yul\":957:984   */\n      tag_81\n        /* \"#utility.yul\":979:983   */\n      dup3\n        /* \"#utility.yul\":957:984   */\n      tag_57\n      jump\t// in\n    tag_81:\n        /* \"#utility.yul\":949:955   */\n      dup2\n        /* \"#utility.yul\":945:985   */\n      add\n        /* \"#utility.yul\":1087:1093   */\n      dup2\n        /* \"#utility.yul\":1075:1085   */\n      dup2\n        /* \"#utility.yul\":1072:1094   */\n      lt\n        /* \"#utility.yul\":1051:1069   */\n      0xffffffffffffffff\n        /* \"#utility.yul\":1039:1049   */\n      dup3\n        /* \"#utility.yul\":1036:1070   */\n      gt\n        /* \"#utility.yul\":1033:1095   */\n      or\n        /* \"#utility.yul\":1030:1118   */\n      iszero\n      tag_82\n      jumpi\n        /* \"#utility.yul\":1098:1116   */\n      tag_83\n      tag_20\n      jump\t// in\n    tag_83:\n        /* \"#utility.yul\":1030:1118   */\n    tag_82:\n        /* \"#utility.yul\":1138:1148   */\n      dup1\n        /* \"#utility.yul\":1134:1136   */\n      0x40\n        /* \"#utility.yul\":1127:1149   */\n      mstore\n        /* \"#utility.yul\":917:1155   */\n      pop\n        /* \"#utility.yul\":874:1155   */\n      pop\n      pop\n      jump\t// out\n        /* \"#utility.yul\":1161:1290   */\n    tag_59:\n        /* \"#utility.yul\":1195:1201   */\n      0x00\n        /* \"#utility.yul\":1222:1242   */\n      tag_85\n      tag_52\n      jump\t// in\n    tag_85:\n        /* \"#utility.yul\":1212:1242   */\n      swap1\n      pop\n        /* \"#utility.yul\":1251:1284   */\n      tag_86\n        /* \"#utility.yul\":1279:1283   */\n      dup3\n        /* \"#utility.yul\":1271:1277   */\n      dup3\n        /* \"#utility.yul\":1251:1284   */\n      tag_58\n      jump\t// in\n    tag_86:\n        /* \"#utility.yul\":1161:1290   */\n      swap2\n      swap1\n      pop\n      jump\t// out\n        /* \"#utility.yul\":1296:1604   */\n    tag_60:\n        /* \"#utility.yul\":1358:1362   */\n      0x00\n        /* \"#utility.yul\":1448:1466   */\n      0xffffffffffffffff\n        /* \"#utility.yul\":1440:1446   */\n      dup3\n        /* \"#utility.yul\":1437:1467   */\n      gt\n        /* \"#utility.yul\":1434:1490   */\n      iszero\n      tag_88\n      jumpi\n        /* \"#utility.yul\":1470:1488   */\n      tag_89\n      tag_20\n      jump\t// in\n    tag_89:\n        /* \"#utility.yul\":1434:1490   */\n    tag_88:\n        /* \"#utility.yul\":1508:1537   */\n      tag_90\n        /* \"#utility.yul\":1530:1536   */\n      dup3\n        /* \"#utility.yul\":1508:1537   */\n      tag_57\n      jump\t// in\n    tag_90:\n        /* \"#utility.yul\":1500:1537   */\n      swap1\n      pop\n        /* \"#utility.yul\":1592:1596   */\n      0x20\n        /* \"#utility.yul\":1586:1590   */\n      dup2\n        /* \"#utility.yul\":1582:1597   */\n      add\n        /* \"#utility.yul\":1574:1597   */\n      swap1\n      pop\n        /* \"#utility.yul\":1296:1604   */\n      swap2\n      swap1\n      pop\n      jump\t// out\n        /* \"#utility.yul\":1610:1756   */\n    tag_61:\n        /* \"#utility.yul\":1707:1713   */\n      dup3\n        /* \"#utility.yul\":1702:1705   */\n      dup2\n        /* \"#utility.yul\":1697:1700   */\n      dup4\n        /* \"#utility.yul\":1684:1714   */\n      calldatacopy\n        /* \"#utility.yul\":1748:1749   */\n      0x00\n        /* \"#utility.yul\":1739:1745   */\n      dup4\n        /* \"#utility.yul\":1734:1737   */\n      dup4\n        /* \"#utility.yul\":1730:1746   */\n      add\n        /* \"#utility.yul\":1723:1750   */\n      mstore\n        /* \"#utility.yul\":1610:1756   */\n      pop\n      pop\n      pop\n      jump\t// out\n        /* \"#utility.yul\":1762:2187   */\n    tag_62:\n        /* \"#utility.yul\":1840:1845   */\n      0x00\n        /* \"#utility.yul\":1865:1931   */\n      tag_93\n        /* \"#utility.yul\":1881:1930   */\n      tag_94\n        /* \"#utility.yul\":1923:1929   */\n      dup5\n        /* \"#utility.yul\":1881:1930   */\n      tag_60\n      jump\t// in\n    tag_94:\n        /* \"#utility.yul\":1865:1931   */\n      tag_59\n      jump\t// in\n    tag_93:\n        /* \"#utility.yul\":1856:1931   */\n      swap1\n      pop\n        /* \"#utility.yul\":1954:1960   */\n      dup3\n        /* \"#utility.yul\":1947:1952   */\n      dup2\n        /* \"#utility.yul\":1940:1961   */\n      mstore\n        /* \"#utility.yul\":1992:1996   */\n      0x20\n        /* \"#utility.yul\":1985:1990   */\n      dup2\n        /* \"#utility.yul\":1981:1997   */\n      add\n        /* \"#utility.yul\":2030:2033   */\n      dup5\n        /* \"#utility.yul\":2021:2027   */\n      dup5\n        /* \"#utility.yul\":2016:2019   */\n      dup5\n        /* \"#utility.yul\":2012:2028   */\n      add\n        /* \"#utility.yul\":2009:2034   */\n      gt\n        /* \"#utility.yul\":2006:2118   */\n      iszero\n      tag_95\n      jumpi\n        /* \"#utility.yul\":2037:2116   */\n      tag_96\n      tag_56\n      jump\t// in\n    tag_96:\n        /* \"#utility.yul\":2006:2118   */\n    tag_95:\n        /* \"#utility.yul\":2127:2181   */\n      tag_97\n        /* \"#utility.yul\":2174:2180   */\n      dup5\n        /* \"#utility.yul\":2169:2172   */\n      dup3\n        /* \"#utility.yul\":2164:2167   */\n      dup6\n        /* \"#utility.yul\":2127:2181   */\n      tag_61\n      jump\t// in\n    tag_97:\n        /* \"#utility.yul\":1846:2187   */\n      pop\n        /* \"#utility.yul\":1762:2187   */\n      swap4\n      swap3\n      pop\n      pop\n      pop\n      jump\t// out\n        /* \"#utility.yul\":2207:2547   */\n    tag_63:\n        /* \"#utility.yul\":2263:2268   */\n      0x00\n        /* \"#utility.yul\":2312:2315   */\n      dup3\n        /* \"#utility.yul\":2305:2309   */\n      0x1f\n        /* \"#utility.yul\":2297:2303   */\n      dup4\n        /* \"#utility.yul\":2293:2310   */\n      add\n        /* \"#utility.yul\":2289:2316   */\n      slt\n        /* \"#utility.yul\":2279:2401   */\n      tag_99\n      jumpi\n        /* \"#utility.yul\":2320:2399   */\n      tag_100\n      tag_55\n      jump\t// in\n    tag_100:\n        /* \"#utility.yul\":2279:2401   */\n    tag_99:\n        /* \"#utility.yul\":2437:2443   */\n      dup2\n        /* \"#utility.yul\":2424:2444   */\n      calldataload\n        /* \"#utility.yul\":2462:2541   */\n      tag_101\n        /* \"#utility.yul\":2537:2540   */\n      dup5\n        /* \"#utility.yul\":2529:2535   */\n      dup3\n        /* \"#utility.yul\":2522:2526   */\n      0x20\n        /* \"#utility.yul\":2514:2520   */\n      dup7\n        /* \"#utility.yul\":2510:2527   */\n      add\n        /* \"#utility.yul\":2462:2541   */\n      tag_62\n      jump\t// in\n    tag_101:\n        /* \"#utility.yul\":2453:2541   */\n      swap2\n      pop\n        /* \"#utility.yul\":2269:2547   */\n      pop\n        /* \"#utility.yul\":2207:2547   */\n      swap3\n      swap2\n      pop\n      pop\n      jump\t// out\n        /* \"#utility.yul\":2553:2630   */\n    tag_64:\n        /* \"#utility.yul\":2590:2597   */\n      0x00\n        /* \"#utility.yul\":2619:2624   */\n      dup2\n        /* \"#utility.yul\":2608:2624   */\n      swap1\n      pop\n        /* \"#utility.yul\":2553:2630   */\n      swap2\n      swap1\n      pop\n      jump\t// out\n        /* \"#utility.yul\":2636:2758   */\n    tag_65:\n        /* \"#utility.yul\":2709:2733   */\n      tag_104\n        /* \"#utility.yul\":2727:2732   */\n      dup2\n        /* \"#utility.yul\":2709:2733   */\n      tag_64\n      jump\t// in\n    tag_104:\n        /* \"#utility.yul\":2702:2707   */\n      dup2\n        /* \"#utility.yul\":2699:2734   */\n      eq\n        /* \"#utility.yul\":2689:2752   */\n      tag_105\n      jumpi\n        /* \"#utility.yul\":2748:2749   */\n      0x00\n        /* \"#utility.yul\":2745:2746   */\n      dup1\n        /* \"#utility.yul\":2738:2750   */\n      revert\n        /* \"#utility.yul\":2689:2752   */\n    tag_105:\n        /* \"#utility.yul\":2636:2758   */\n      pop\n      jump\t// out\n        /* \"#utility.yul\":2764:2903   */\n    tag_66:\n        /* \"#utility.yul\":2810:2815   */\n      0x00\n        /* \"#utility.yul\":2848:2854   */\n      dup2\n        /* \"#utility.yul\":2835:2855   */\n      calldataload\n        /* \"#utility.yul\":2826:2855   */\n      swap1\n      pop\n        /* \"#utility.yul\":2864:2897   */\n      tag_107\n        /* \"#utility.yul\":2891:2896   */\n      dup2\n        /* \"#utility.yul\":2864:2897   */\n      tag_65\n      jump\t// in\n    tag_107:\n        /* \"#utility.yul\":2764:2903   */\n      swap3\n      swap2\n      pop\n      pop\n      jump\t// out\n        /* \"#utility.yul\":2909:3708   */\n    tag_6:\n        /* \"#utility.yul\":2996:3002   */\n      0x00\n        /* \"#utility.yul\":3004:3010   */\n      dup1\n        /* \"#utility.yul\":3012:3018   */\n      0x00\n        /* \"#utility.yul\":3061:3063   */\n      0x60\n        /* \"#utility.yul\":3049:3058   */\n      dup5\n        /* \"#utility.yul\":3040:3047   */\n      dup7\n        /* \"#utility.yul\":3036:3059   */\n      sub\n        /* \"#utility.yul\":3032:3064   */\n      slt\n        /* \"#utility.yul\":3029:3148   */\n      iszero\n      tag_109\n      jumpi\n        /* \"#utility.yul\":3067:3146   */\n      tag_110\n      tag_53\n      jump\t// in\n    tag_110:\n        /* \"#utility.yul\":3029:3148   */\n    tag_109:\n        /* \"#utility.yul\":3215:3216   */\n      0x00\n        /* \"#utility.yul\":3204:3213   */\n      dup5\n        /* \"#utility.yul\":3200:3217   */\n      add\n        /* \"#utility.yul\":3187:3218   */\n      calldataload\n        /* \"#utility.yul\":3245:3263   */\n      0xffffffffffffffff\n        /* \"#utility.yul\":3237:3243   */\n      dup2\n        /* \"#utility.yul\":3234:3264   */\n      gt\n        /* \"#utility.yul\":3231:3348   */\n      iszero\n      tag_111\n      jumpi\n        /* \"#utility.yul\":3267:3346   */\n      tag_112\n      tag_54\n      jump\t// in\n    tag_112:\n        /* \"#utility.yul\":3231:3348   */\n    tag_111:\n        /* \"#utility.yul\":3372:3435   */\n      tag_113\n        /* \"#utility.yul\":3427:3434   */\n      dup7\n        /* \"#utility.yul\":3418:3424   */\n      dup3\n        /* \"#utility.yul\":3407:3416   */\n      dup8\n        /* \"#utility.yul\":3403:3425   */\n      add\n        /* \"#utility.yul\":3372:3435   */\n      tag_63\n      jump\t// in\n    tag_113:\n        /* \"#utility.yul\":3362:3435   */\n      swap4\n      pop\n        /* \"#utility.yul\":3158:3445   */\n      pop\n        /* \"#utility.yul\":3484:3486   */\n      0x20\n        /* \"#utility.yul\":3510:3563   */\n      tag_114\n        /* \"#utility.yul\":3555:3562   */\n      dup7\n        /* \"#utility.yul\":3546:3552   */\n      dup3\n        /* \"#utility.yul\":3535:3544   */\n      dup8\n        /* \"#utility.yul\":3531:3553   */\n      add\n        /* \"#utility.yul\":3510:3563   */\n      tag_66\n      jump\t// in\n    tag_114:\n        /* \"#utility.yul\":3500:3563   */\n      swap3\n      pop\n        /* \"#utility.yul\":3455:3573   */\n      pop\n        /* \"#utility.yul\":3612:3614   */\n      0x40\n        /* \"#utility.yul\":3638:3691   */\n      tag_115\n        /* \"#utility.yul\":3683:3690   */\n      dup7\n        /* \"#utility.yul\":3674:3680   */\n      dup3\n        /* \"#utility.yul\":3663:3672   */\n      dup8\n        /* \"#utility.yul\":3659:3681   */\n      add\n        /* \"#utility.yul\":3638:3691   */\n      tag_66\n      jump\t// in\n    tag_115:\n        /* \"#utility.yul\":3628:3691   */\n      swap2\n      pop\n        /* \"#utility.yul\":3583:3701   */\n      pop\n        /* \"#utility.yul\":2909:3708   */\n      swap3\n      pop\n      swap3\n      pop\n      swap3\n      jump\t// out\n        /* \"#utility.yul\":3714:3813   */\n    tag_67:\n        /* \"#utility.yul\":3766:3772   */\n      0x00\n        /* \"#utility.yul\":3800:3805   */\n      dup2\n        /* \"#utility.yul\":3794:3806   */\n      mload\n        /* \"#utility.yul\":3784:3806   */\n      swap1\n      pop\n        /* \"#utility.yul\":3714:3813   */\n      swap2\n      swap1\n      pop\n      jump\t// out\n        /* \"#utility.yul\":3819:3996   */\n    tag_68:\n        /* \"#utility.yul\":3911:3922   */\n      0x00\n        /* \"#utility.yul\":3945:3951   */\n      dup3\n        /* \"#utility.yul\":3940:3943   */\n      dup3\n        /* \"#utility.yul\":3933:3952   */\n      mstore\n        /* \"#utility.yul\":3985:3989   */\n      0x20\n        /* \"#utility.yul\":3980:3983   */\n      dup3\n        /* \"#utility.yul\":3976:3990   */\n      add\n        /* \"#utility.yul\":3961:3990   */\n      swap1\n      pop\n        /* \"#utility.yul\":3819:3996   */\n      swap3\n      swap2\n      pop\n      pop\n      jump\t// out\n        /* \"#utility.yul\":4002:4248   */\n    tag_69:\n        /* \"#utility.yul\":4083:4084   */\n      0x00\n        /* \"#utility.yul\":4093:4206   */\n    tag_119:\n        /* \"#utility.yul\":4107:4113   */\n      dup4\n        /* \"#utility.yul\":4104:4105   */\n      dup2\n        /* \"#utility.yul\":4101:4114   */\n      lt\n        /* \"#utility.yul\":4093:4206   */\n      iszero\n      tag_121\n      jumpi\n        /* \"#utility.yul\":4192:4193   */\n      dup1\n        /* \"#utility.yul\":4187:4190   */\n      dup3\n        /* \"#utility.yul\":4183:4194   */\n      add\n        /* \"#utility.yul\":4177:4195   */\n      mload\n        /* \"#utility.yul\":4173:4174   */\n      dup2\n        /* \"#utility.yul\":4168:4171   */\n      dup5\n        /* \"#utility.yul\":4164:4175   */\n      add\n        /* \"#utility.yul\":4157:4196   */\n      mstore\n        /* \"#utility.yul\":4129:4131   */\n      0x20\n        /* \"#utility.yul\":4126:4127   */\n      dup2\n        /* \"#utility.yul\":4122:4132   */\n      add\n        /* \"#utility.yul\":4117:4132   */\n      swap1\n      pop\n        /* \"#utility.yul\":4093:4206   */\n      jump(tag_119)\n    tag_121:\n        /* \"#utility.yul\":4240:4241   */\n      0x00\n        /* \"#utility.yul\":4231:4237   */\n      dup5\n        /* \"#utility.yul\":4226:4229   */\n      dup5\n        /* \"#utility.yul\":4222:4238   */\n      add\n        /* \"#utility.yul\":4215:4242   */\n      mstore\n        /* \"#utility.yul\":4064:4248   */\n      pop\n        /* \"#utility.yul\":4002:4248   */\n      pop\n      pop\n      pop\n      jump\t// out\n        /* \"#utility.yul\":4254:4647   */\n    tag_70:\n        /* \"#utility.yul\":4350:4353   */\n      0x00\n        /* \"#utility.yul\":4378:4417   */\n      tag_123\n        /* \"#utility.yul\":4411:4416   */\n      dup3\n        /* \"#utility.yul\":4378:4417   */\n      tag_67\n      jump\t// in\n    tag_123:\n        /* \"#utility.yul\":4433:4512   */\n      tag_124\n        /* \"#utility.yul\":4505:4511   */\n      dup2\n        /* \"#utility.yul\":4500:4503   */\n      dup6\n        /* \"#utility.yul\":4433:4512   */\n      tag_68\n      jump\t// in\n    tag_124:\n        /* \"#utility.yul\":4426:4512   */\n      swap4\n      pop\n        /* \"#utility.yul\":4521:4586   */\n      tag_125\n        /* \"#utility.yul\":4579:4585   */\n      dup2\n        /* \"#utility.yul\":4574:4577   */\n      dup6\n        /* \"#utility.yul\":4567:4571   */\n      0x20\n        /* \"#utility.yul\":4560:4565   */\n      dup7\n        /* \"#utility.yul\":4556:4572   */\n      add\n        /* \"#utility.yul\":4521:4586   */\n      tag_69\n      jump\t// in\n    tag_125:\n        /* \"#utility.yul\":4611:4640   */\n      tag_126\n        /* \"#utility.yul\":4633:4639   */\n      dup2\n        /* \"#utility.yul\":4611:4640   */\n      tag_57\n      jump\t// in\n    tag_126:\n        /* \"#utility.yul\":4606:4609   */\n      dup5\n        /* \"#utility.yul\":4602:4641   */\n      add\n        /* \"#utility.yul\":4595:4641   */\n      swap2\n      pop\n        /* \"#utility.yul\":4354:4647   */\n      pop\n        /* \"#utility.yul\":4254:4647   */\n      swap3\n      swap2\n      pop\n      pop\n      jump\t// out\n        /* \"#utility.yul\":4653:4982   */\n    tag_9:\n        /* \"#utility.yul\":4774:4778   */\n      0x00\n        /* \"#utility.yul\":4812:4814   */\n      0x20\n        /* \"#utility.yul\":4801:4810   */\n      dup3\n        /* \"#utility.yul\":4797:4815   */\n      add\n        /* \"#utility.yul\":4789:4815   */\n      swap1\n      pop\n        /* \"#utility.yul\":4861:4870   */\n      dup2\n        /* \"#utility.yul\":4855:4859   */\n      dup2\n        /* \"#utility.yul\":4851:4871   */\n      sub\n        /* \"#utility.yul\":4847:4848   */\n      0x00\n        /* \"#utility.yul\":4836:4845   */\n      dup4\n        /* \"#utility.yul\":4832:4849   */\n      add\n        /* \"#utility.yul\":4825:4872   */\n      mstore\n        /* \"#utility.yul\":4889:4975   */\n      tag_128\n        /* \"#utility.yul\":4970:4974   */\n      dup2\n        /* \"#utility.yul\":4961:4967   */\n      dup5\n        /* \"#utility.yul\":4889:4975   */\n      tag_70\n      jump\t// in\n    tag_128:\n        /* \"#utility.yul\":4881:4975   */\n      swap1\n      pop\n        /* \"#utility.yul\":4653:4982   */\n      swap3\n      swap2\n      pop\n      pop\n      jump\t// out\n        /* \"#utility.yul\":4988:5822   */\n    tag_12:\n        /* \"#utility.yul\":5076:5082   */\n      0x00\n        /* \"#utility.yul\":5084:5090   */\n      dup1\n        /* \"#utility.yul\":5133:5135   */\n      0x40\n        /* \"#utility.yul\":5121:5130   */\n      dup4\n        /* \"#utility.yul\":5112:5119   */\n      dup6\n        /* \"#utility.yul\":5108:5131   */\n      sub\n        /* \"#utility.yul\":5104:5136   */\n      slt\n        /* \"#utility.yul\":5101:5220   */\n      iszero\n      tag_130\n      jumpi\n        /* \"#utility.yul\":5139:5218   */\n      tag_131\n      tag_53\n      jump\t// in\n    tag_131:\n        /* \"#utility.yul\":5101:5220   */\n    tag_130:\n        /* \"#utility.yul\":5287:5288   */\n      0x00\n        /* \"#utility.yul\":5276:5285   */\n      dup4\n        /* \"#utility.yul\":5272:5289   */\n      add\n        /* \"#utility.yul\":5259:5290   */\n      calldataload\n        /* \"#utility.yul\":5317:5335   */\n      0xffffffffffffffff\n        /* \"#utility.yul\":5309:5315   */\n      dup2\n        /* \"#utility.yul\":5306:5336   */\n      gt\n        /* \"#utility.yul\":5303:5420   */\n      iszero\n      tag_132\n      jumpi\n        /* \"#utility.yul\":5339:5418   */\n      tag_133\n      tag_54\n      jump\t// in\n    tag_133:\n        /* \"#utility.yul\":5303:5420   */\n    tag_132:\n        /* \"#utility.yul\":5444:5507   */\n      tag_134\n        /* \"#utility.yul\":5499:5506   */\n      dup6\n        /* \"#utility.yul\":5490:5496   */\n      dup3\n        /* \"#utility.yul\":5479:5488   */\n      dup7\n        /* \"#utility.yul\":5475:5497   */\n      add\n        /* \"#utility.yul\":5444:5507   */\n      tag_63\n      jump\t// in\n    tag_134:\n        /* \"#utility.yul\":5434:5507   */\n      swap3\n      pop\n        /* \"#utility.yul\":5230:5517   */\n      pop\n        /* \"#utility.yul\":5584:5586   */\n      0x20\n        /* \"#utility.yul\":5573:5582   */\n      dup4\n        /* \"#utility.yul\":5569:5587   */\n      add\n        /* \"#utility.yul\":5556:5588   */\n      calldataload\n        /* \"#utility.yul\":5615:5633   */\n      0xffffffffffffffff\n        /* \"#utility.yul\":5607:5613   */\n      dup2\n        /* \"#utility.yul\":5604:5634   */\n      gt\n        /* \"#utility.yul\":5601:5718   */\n      iszero\n      tag_135\n      jumpi\n        /* \"#utility.yul\":5637:5716   */\n      tag_136\n      tag_54\n      jump\t// in\n    tag_136:\n        /* \"#utility.yul\":5601:5718   */\n    tag_135:\n        /* \"#utility.yul\":5742:5805   */\n      tag_137\n        /* \"#utility.yul\":5797:5804   */\n      dup6\n        /* \"#utility.yul\":5788:5794   */\n      dup3\n        /* \"#utility.yul\":5777:5786   */\n      dup7\n        /* \"#utility.yul\":5773:5795   */\n      add\n        /* \"#utility.yul\":5742:5805   */\n      tag_63\n      jump\t// in\n    tag_137:\n        /* \"#utility.yul\":5732:5805   */\n      swap2\n      pop\n        /* \"#utility.yul\":5527:5815   */\n      pop\n        /* \"#utility.yul\":4988:5822   */\n      swap3\n      pop\n      swap3\n      swap1\n      pop\n      jump\t// out\n        /* \"#utility.yul\":5828:6008   */\n    tag_71:\n        /* \"#utility.yul\":5876:5953   */\n      0x4e487b7100000000000000000000000000000000000000000000000000000000\n        /* \"#utility.yul\":5873:5874   */\n      0x00\n        /* \"#utility.yul\":5866:5954   */\n      mstore\n        /* \"#utility.yul\":5973:5977   */\n      0x11\n        /* \"#utility.yul\":5970:5971   */\n      0x04\n        /* \"#utility.yul\":5963:5978   */\n      mstore\n        /* \"#utility.yul\":5997:6001   */\n      0x24\n        /* \"#utility.yul\":5994:5995   */\n      0x00\n        /* \"#utility.yul\":5987:6002   */\n      revert\n        /* \"#utility.yul\":6014:6208   */\n    tag_17:\n        /* \"#utility.yul\":6054:6058   */\n      0x00\n        /* \"#utility.yul\":6074:6094   */\n      tag_140\n        /* \"#utility.yul\":6092:6093   */\n      dup3\n        /* \"#utility.yul\":6074:6094   */\n      tag_64\n      jump\t// in\n    tag_140:\n        /* \"#utility.yul\":6069:6094   */\n      swap2\n      pop\n        /* \"#utility.yul\":6108:6128   */\n      tag_141\n        /* \"#utility.yul\":6126:6127   */\n      dup4\n        /* \"#utility.yul\":6108:6128   */\n      tag_64\n      jump\t// in\n    tag_141:\n        /* \"#utility.yul\":6103:6128   */\n      swap3\n      pop\n        /* \"#utility.yul\":6152:6153   */\n      dup3\n        /* \"#utility.yul\":6149:6150   */\n      dup3\n        /* \"#utility.yul\":6145:6154   */\n      sub\n        /* \"#utility.yul\":6137:6154   */\n      swap1\n      pop\n        /* \"#utility.yul\":6176:6177   */\n      dup2\n        /* \"#utility.yul\":6170:6174   */\n      dup2\n        /* \"#utility.yul\":6167:6178   */\n      gt\n        /* \"#utility.yul\":6164:6201   */\n      iszero\n      tag_142\n      jumpi\n        /* \"#utility.yul\":6181:6199   */\n      tag_143\n      tag_71\n      jump\t// in\n    tag_143:\n        /* \"#utility.yul\":6164:6201   */\n    tag_142:\n        /* \"#utility.yul\":6014:6208   */\n      swap3\n      swap2\n      pop\n      pop\n      jump\t// out\n        /* \"#utility.yul\":6214:6394   */\n    tag_27:\n        /* \"#utility.yul\":6262:6339   */\n      0x4e487b7100000000000000000000000000000000000000000000000000000000\n        /* \"#utility.yul\":6259:6260   */\n      0x00\n        /* \"#utility.yul\":6252:6340   */\n      mstore\n        /* \"#utility.yul\":6359:6363   */\n      0x32\n        /* \"#utility.yul\":6356:6357   */\n      0x04\n        /* \"#utility.yul\":6349:6364   */\n      mstore\n        /* \"#utility.yul\":6383:6387   */\n      0x24\n        /* \"#utility.yul\":6380:6381   */\n      0x00\n        /* \"#utility.yul\":6373:6388   */\n      revert\n        /* \"#utility.yul\":6400:6591   */\n    tag_33:\n        /* \"#utility.yul\":6440:6443   */\n      0x00\n        /* \"#utility.yul\":6459:6479   */\n      tag_146\n        /* \"#utility.yul\":6477:6478   */\n      dup3\n        /* \"#utility.yul\":6459:6479   */\n      tag_64\n      jump\t// in\n    tag_146:\n        /* \"#utility.yul\":6454:6479   */\n      swap2\n      pop\n        /* \"#utility.yul\":6493:6513   */\n      tag_147\n        /* \"#utility.yul\":6511:6512   */\n      dup4\n        /* \"#utility.yul\":6493:6513   */\n      tag_64\n      jump\t// in\n    tag_147:\n        /* \"#utility.yul\":6488:6513   */\n      swap3\n      pop\n        /* \"#utility.yul\":6536:6537   */\n      dup3\n        /* \"#utility.yul\":6533:6534   */\n      dup3\n        /* \"#utility.yul\":6529:6538   */\n      add\n        /* \"#utility.yul\":6522:6538   */\n      swap1\n      pop\n        /* \"#utility.yul\":6557:6560   */\n      dup1\n        /* \"#utility.yul\":6554:6555   */\n      dup3\n        /* \"#utility.yul\":6551:6561   */\n      gt\n        /* \"#utility.yul\":6548:6584   */\n      iszero\n      tag_148\n      jumpi\n        /* \"#utility.yul\":6564:6582   */\n      tag_149\n      tag_71\n      jump\t// in\n    tag_149:\n        /* \"#utility.yul\":6548:6584   */\n    tag_148:\n        /* \"#utility.yul\":6400:6591   */\n      swap3\n      swap2\n      pop\n      pop\n      jump\t// out\n\n    auxdata: 0xa2646970667358221220cd3e6c938b80520ad75d863aa9082aa0e6fbae0672d49325d2d6db24522f7bac64736f6c63430008160033\n}\n",
				"bytecode": {
					"linkReferences": {},
					"object": "6106f661004e600b8282823980515f1a607314610042577f4e487b71000000000000000000000000000000000000000000000000000000005f525f60045260245ffd5b305f52607381538281f3fe730000000000000000000000000000000000000000301460806040526004361061003f575f3560e01c80631dcd9b5514610043578063d824ccf314610073575b5f80fd5b61005d60048036038101906100589190610484565b6100a3565b60405161006a919061056a565b60405180910390f35b61008d6004803603810190610088919061058a565b610195565b60405161009a919061056a565b60405180910390f35b60605f8490505f84846100b6919061062d565b67ffffffffffffffff8111156100cf576100ce61032d565b5b6040519080825280601f01601f1916602001820160405280156101015781602001600182028036833780820191505090505b5090505f8590505b848110156101885782818151811061012457610123610660565b5b602001015160f81c60f81b82878361013c919061062d565b8151811061014d5761014c610660565b5b60200101907effffffffffffffffffffffffffffffffffffffffffffffffffffffffffffff191690815f1a9053508080600101915050610109565b5080925050509392505050565b60605f8390505f8390505f815183516101ae919061068d565b67ffffffffffffffff8111156101c7576101c661032d565b5b6040519080825280601f01601f1916602001820160405280156101f95781602001600182028036833780820191505090505b5090505f5b83518110156102735783818151811061021a57610219610660565b5b602001015160f81c60f81b82828151811061023857610237610660565b5b60200101907effffffffffffffffffffffffffffffffffffffffffffffffffffffffffffff191690815f1a90535080806001019150506101fe565b505f5b82518110156102f75782818151811061029257610291610660565b5b602001015160f81c60f81b828286516102ab919061068d565b815181106102bc576102bb610660565b5b60200101907effffffffffffffffffffffffffffffffffffffffffffffffffffffffffffff191690815f1a9053508080600101915050610276565b5080935050505092915050565b5f604051905090565b5f80fd5b5f80fd5b5f80fd5b5f80fd5b5f601f19601f8301169050919050565b7f4e487b71000000000000000000000000000000000000000000000000000000005f52604160045260245ffd5b6103638261031d565b810181811067ffffffffffffffff821117156103825761038161032d565b5b80604052505050565b5f610394610304565b90506103a0828261035a565b919050565b5f67ffffffffffffffff8211156103bf576103be61032d565b5b6103c88261031d565b9050602081019050919050565b828183375f83830152505050565b5f6103f56103f0846103a5565b61038b565b90508281526020810184848401111561041157610410610319565b5b61041c8482856103d5565b509392505050565b5f82601f83011261043857610437610315565b5b81356104488482602086016103e3565b91505092915050565b5f819050919050565b61046381610451565b811461046d575f80fd5b50565b5f8135905061047e8161045a565b92915050565b5f805f6060848603121561049b5761049a61030d565b5b5f84013567ffffffffffffffff8111156104b8576104b7610311565b5b6104c486828701610424565b93505060206104d586828701610470565b92505060406104e686828701610470565b9150509250925092565b5f81519050919050565b5f82825260208201905092915050565b5f5b8381101561052757808201518184015260208101905061050c565b5f8484015250505050565b5f61053c826104f0565b61054681856104fa565b935061055681856020860161050a565b61055f8161031d565b840191505092915050565b5f6020820190508181035f8301526105828184610532565b905092915050565b5f80604083850312156105a05761059f61030d565b5b5f83013567ffffffffffffffff8111156105bd576105bc610311565b5b6105c985828601610424565b925050602083013567ffffffffffffffff8111156105ea576105e9610311565b5b6105f685828601610424565b9150509250929050565b7f4e487b71000000000000000000000000000000000000000000000000000000005f52601160045260245ffd5b5f61063782610451565b915061064283610451565b925082820390508181111561065a57610659610600565b5b92915050565b7f4e487b71000000000000000000000000000000000000000000000000000000005f52603260045260245ffd5b5f61069782610451565b91506106a283610451565b92508282019050808211156106ba576106b9610600565b5b9291505056fea2646970667358221220cd3e6c938b80520ad75d863aa9082aa0e6fbae0672d49325d2d6db24522f7bac64736f6c63430008160033",
					"opcodes": "PUSH2 0x6F6 PUSH2 0x4E PUSH1 0xB DUP3 DUP3 DUP3 CODECOPY DUP1 MLOAD PUSH0 BYTE PUSH1 0x73 EQ PUSH2 0x42 JUMPI PUSH32 0x4E487B7100000000000000000000000000000000000000000000000000000000 PUSH0 MSTORE PUSH0 PUSH1 0x4 MSTORE PUSH1 0x24 PUSH0 REVERT JUMPDEST ADDRESS PUSH0 MSTORE PUSH1 0x73 DUP2 MSTORE8 DUP3 DUP2 RETURN INVALID PUSH20 0x0 ADDRESS EQ PUSH1 0x80 PUSH1 0x40 MSTORE PUSH1 0x4 CALLDATASIZE LT PUSH2 0x3F JUMPI PUSH0 CALLDATALOAD PUSH1 0xE0 SHR DUP1 PUSH4 0x1DCD9B55 EQ PUSH2 0x43 JUMPI DUP1 PUSH4 0xD824CCF3 EQ PUSH2 0x73 JUMPI JUMPDEST PUSH0 DUP1 REVERT JUMPDEST PUSH2 0x5D PUSH1 0x4 DUP1 CALLDATASIZE SUB DUP2 ADD SWAP1 PUSH2 0x58 SWAP2 SWAP1 PUSH2 0x484 JUMP JUMPDEST PUSH2 0xA3 JUMP JUMPDEST PUSH1 0x40 MLOAD PUSH2 0x6A SWAP2 SWAP1 PUSH2 0x56A JUMP JUMPDEST PUSH1 0x40 MLOAD DUP1 SWAP2 SUB SWAP1 RETURN JUMPDEST PUSH2 0x8D PUSH1 0x4 DUP1 CALLDATASIZE SUB DUP2 ADD SWAP1 PUSH2 0x88 SWAP2 SWAP1 PUSH2 0x58A JUMP JUMPDEST PUSH2 0x195 JUMP JUMPDEST PUSH1 0x40 MLOAD PUSH2 0x9A SWAP2 SWAP1 PUSH2 0x56A JUMP JUMPDEST PUSH1 0x40 MLOAD DUP1 SWAP2 SUB SWAP1 RETURN JUMPDEST PUSH1 0x60 PUSH0 DUP5 SWAP1 POP PUSH0 DUP5 DUP5 PUSH2 0xB6 SWAP2 SWAP1 PUSH2 0x62D JUMP JUMPDEST PUSH8 0xFFFFFFFFFFFFFFFF DUP2 GT ISZERO PUSH2 0xCF JUMPI PUSH2 0xCE PUSH2 0x32D JUMP JUMPDEST JUMPDEST PUSH1 0x40 MLOAD SWAP1 DUP1 DUP3 MSTORE DUP1 PUSH1 0x1F ADD PUSH1 0x1F NOT AND PUSH1 0x20 ADD DUP3 ADD PUSH1 0x40 MSTORE DUP1 ISZERO PUSH2 0x101 JUMPI DUP2 PUSH1 0x20 ADD PUSH1 0x1 DUP3 MUL DUP1 CALLDATASIZE DUP4 CALLDATACOPY DUP1 DUP3 ADD SWAP2 POP POP SWAP1 POP JUMPDEST POP SWAP1 POP PUSH0 DUP6 SWAP1 POP JUMPDEST DUP5 DUP2 LT ISZERO PUSH2 0x188 JUMPI DUP3 DUP2 DUP2 MLOAD DUP2 LT PUSH2 0x124 JUMPI PUSH2 0x123 PUSH2 0x660 JUMP JUMPDEST JUMPDEST PUSH1 0x20 ADD ADD MLOAD PUSH1 0xF8 SHR PUSH1 0xF8 SHL DUP3 DUP8 DUP4 PUSH2 0x13C SWAP2 SWAP1 PUSH2 0x62D JUMP JUMPDEST DUP2 MLOAD DUP2 LT PUSH2 0x14D JUMPI PUSH2 0x14C PUSH2 0x660 JUMP JUMPDEST JUMPDEST PUSH1 0x20 ADD ADD SWAP1 PUSH31 0xFFFFFFFFFFFFFFFFFFFFFFFFFFFFFFFFFFFFFFFFFFFFFFFFFFFFFFFFFFFFFF NOT AND SWAP1 DUP2 PUSH0 BYTE SWAP1 MSTORE8 POP DUP1 DUP1 PUSH1 0x1 ADD SWAP2 POP POP PUSH2 0x109 JUMP JUMPDEST POP DUP1 SWAP3 POP POP POP SWAP4 SWAP3 POP POP POP JUMP JUMPDEST PUSH1 0x60 PUSH0 DUP4 SWAP1 POP PUSH0 DUP4 SWAP1 POP PUSH0 DUP2 MLOAD DUP4 MLOAD PUSH2 0x1AE SWAP2 SWAP1 PUSH2 0x68D JUMP JUMPDEST PUSH8 0xFFFFFFFFFFFFFFFF DUP2 GT ISZERO PUSH2 0x1C7 JUMPI PUSH2 0x1C6 PUSH2 0x32D JUMP JUMPDEST JUMPDEST PUSH1 0x40 MLOAD SWAP1 DUP1 DUP3 MSTORE DUP1 PUSH1 0x1F ADD PUSH1 0x1F NOT AND PUSH1 0x20 ADD DUP3 ADD PUSH1 0x40 MSTORE DUP1 ISZERO PUSH2 0x1F9 JUMPI DUP2 PUSH1 0x20 ADD PUSH1 0x1 DUP3 MUL DUP1 CALLDATASIZE DUP4 CALLDATACOPY DUP1 DUP3 ADD SWAP2 POP POP SWAP1 POP JUMPDEST POP SWAP1 POP PUSH0 JUMPDEST DUP4 MLOAD DUP2 LT ISZERO PUSH2 0x273 JUMPI DUP4 DUP2 DUP2 MLOAD DUP2 LT PUSH2 0x21A JUMPI PUSH2 0x219 PUSH2 0x660 JUMP JUMPDEST JUMPDEST PUSH1 0x20 ADD ADD MLOAD PUSH1 0xF8 SHR PUSH1 0xF8 SHL DUP3 DUP3 DUP2 MLOAD DUP2 LT PUSH2 0x238 JUMPI PUSH2 0x237 PUSH2 0x660 JUMP JUMPDEST JUMPDEST PUSH1 0x20 ADD ADD SWAP1 PUSH31 0xFFFFFFFFFFFFFFFFFFFFFFFFFFFFFFFFFFFFFFFFFFFFFFFFFFFFFFFFFFFFFF NOT AND SWAP1 DUP2 PUSH0 BYTE SWAP1 MSTORE8 POP DUP1 DUP1 PUSH1 0x1 ADD SWAP2 POP POP PUSH2 0x1FE JUMP JUMPDEST POP PUSH0 JUMPDEST DUP3 MLOAD DUP2 LT ISZERO PUSH2 0x2F7 JUMPI DUP3 DUP2 DUP2 MLOAD DUP2 LT PUSH2 0x292 JUMPI PUSH2 0x291 PUSH2 0x660 JUMP JUMPDEST JUMPDEST PUSH1 0x20 ADD ADD MLOAD PUSH1 0xF8 SHR PUSH1 0xF8 SHL DUP3 DUP3 DUP7 MLOAD PUSH2 0x2AB SWAP2 SWAP1 PUSH2 0x68D JUMP JUMPDEST DUP2 MLOAD DUP2 LT PUSH2 0x2BC JUMPI PUSH2 0x2BB PUSH2 0x660 JUMP JUMPDEST JUMPDEST PUSH1 0x20 ADD ADD SWAP1 PUSH31 0xFFFFFFFFFFFFFFFFFFFFFFFFFFFFFFFFFFFFFFFFFFFFFFFFFFFFFFFFFFFFFF NOT AND SWAP1 DUP2 PUSH0 BYTE SWAP1 MSTORE8 POP DUP1 DUP1 PUSH1 0x1 ADD SWAP2 POP POP PUSH2 0x276 JUMP JUMPDEST POP DUP1 SWAP4 POP POP POP POP SWAP3 SWAP2 POP POP JUMP JUMPDEST PUSH0 PUSH1 0x40 MLOAD SWAP1 POP SWAP1 JUMP JUMPDEST PUSH0 DUP1 REVERT JUMPDEST PUSH0 DUP1 REVERT JUMPDEST PUSH0 DUP1 REVERT JUMPDEST PUSH0 DUP1 REVERT JUMPDEST PUSH0 PUSH1 0x1F NOT PUSH1 0x1F DUP4 ADD AND SWAP1 POP SWAP2 SWAP1 POP JUMP JUMPDEST PUSH32 0x4E487B7100000000000000000000000000000000000000000000000000000000 PUSH0 MSTORE PUSH1 0x41 PUSH1 0x4 MSTORE PUSH1 0x24 PUSH0 REVERT JUMPDEST PUSH2 0x363 DUP3 PUSH2 0x31D JUMP JUMPDEST DUP2 ADD DUP2 DUP2 LT PUSH8 0xFFFFFFFFFFFFFFFF DUP3 GT OR ISZERO PUSH2 0x382 JUMPI PUSH2 0x381 PUSH2 0x32D JUMP JUMPDEST JUMPDEST DUP1 PUSH1 0x40 MSTORE POP POP POP JUMP JUMPDEST PUSH0 PUSH2 0x394 PUSH2 0x304 JUMP JUMPDEST SWAP1 POP PUSH2 0x3A0 DUP3 DUP3 PUSH2 0x35A JUMP JUMPDEST SWAP2 SWAP1 POP JUMP JUMPDEST PUSH0 PUSH8 0xFFFFFFFFFFFFFFFF DUP3 GT ISZERO PUSH2 0x3BF JUMPI PUSH2 0x3BE PUSH2 0x32D JUMP JUMPDEST JUMPDEST PUSH2 0x3C8 DUP3 PUSH2 0x31D JUMP JUMPDEST SWAP1 POP PUSH1 0x20 DUP2 ADD SWAP1 POP SWAP2 SWAP1 POP JUMP JUMPDEST DUP3 DUP2 DUP4 CALLDATACOPY PUSH0 DUP4 DUP4 ADD MSTORE POP POP POP JUMP JUMPDEST PUSH0 PUSH2 0x3F5 PUSH2 0x3F0 DUP5 PUSH2 0x3A5 JUMP JUMPDEST PUSH2 0x38B JUMP JUMPDEST SWAP1 POP DUP3 DUP2 MSTORE PUSH1 0x20 DUP2 ADD DUP5 DUP5 DUP5 ADD GT ISZERO PUSH2 0x411 JUMPI PUSH2 0x410 PUSH2 0x319 JUMP JUMPDEST JUMPDEST PUSH2 0x41C DUP5 DUP3 DUP6 PUSH2 0x3D5 JUMP JUMPDEST POP SWAP4 SWAP3 POP POP POP JUMP JUMPDEST PUSH0 DUP3 PUSH1 0x1F DUP4 ADD SLT PUSH2 0x438 JUMPI PUSH2 0x437 PUSH2 0x315 JUMP JUMPDEST JUMPDEST DUP2 CALLDATALOAD PUSH2 0x448 DUP5 DUP3 PUSH1 0x20 DUP7 ADD PUSH2 0x3E3 JUMP JUMPDEST SWAP2 POP POP SWAP3 SWAP2 POP POP JUMP JUMPDEST PUSH0 DUP2 SWAP1 POP SWAP2 SWAP1 POP JUMP JUMPDEST PUSH2 0x463 DUP2 PUSH2 0x451 JUMP JUMPDEST DUP2 EQ PUSH2 0x46D JUMPI PUSH0 DUP1 REVERT JUMPDEST POP JUMP JUMPDEST PUSH0 DUP2 CALLDATALOAD SWAP1 POP PUSH2 0x47E DUP2 PUSH2 0x45A JUMP JUMPDEST SWAP3 SWAP2 POP POP JUMP JUMPDEST PUSH0 DUP1 PUSH0 PUSH1 0x60 DUP5 DUP7 SUB SLT ISZERO PUSH2 0x49B JUMPI PUSH2 0x49A PUSH2 0x30D JUMP JUMPDEST JUMPDEST PUSH0 DUP5 ADD CALLDATALOAD PUSH8 0xFFFFFFFFFFFFFFFF DUP2 GT ISZERO PUSH2 0x4B8 JUMPI PUSH2 0x4B7 PUSH2 0x311 JUMP JUMPDEST JUMPDEST PUSH2 0x4C4 DUP7 DUP3 DUP8 ADD PUSH2 0x424 JUMP JUMPDEST SWAP4 POP POP PUSH1 0x20 PUSH2 0x4D5 DUP7 DUP3 DUP8 ADD PUSH2 0x470 JUMP JUMPDEST SWAP3 POP POP PUSH1 0x40 PUSH2 0x4E6 DUP7 DUP3 DUP8 ADD PUSH2 0x470 JUMP JUMPDEST SWAP2 POP POP SWAP3 POP SWAP3 POP SWAP3 JUMP JUMPDEST PUSH0 DUP2 MLOAD SWAP1 POP SWAP2 SWAP1 POP JUMP JUMPDEST PUSH0 DUP3 DUP3 MSTORE PUSH1 0x20 DUP3 ADD SWAP1 POP SWAP3 SWAP2 POP POP JUMP JUMPDEST PUSH0 JUMPDEST DUP4 DUP2 LT ISZERO PUSH2 0x527 JUMPI DUP1 DUP3 ADD MLOAD DUP2 DUP5 ADD MSTORE PUSH1 0x20 DUP2 ADD SWAP1 POP PUSH2 0x50C JUMP JUMPDEST PUSH0 DUP5 DUP5 ADD MSTORE POP POP POP POP JUMP JUMPDEST PUSH0 PUSH2 0x53C DUP3 PUSH2 0x4F0 JUMP JUMPDEST PUSH2 0x546 DUP2 DUP6 PUSH2 0x4FA JUMP JUMPDEST SWAP4 POP PUSH2 0x556 DUP2 DUP6 PUSH1 0x20 DUP7 ADD PUSH2 0x50A JUMP JUMPDEST PUSH2 0x55F DUP2 PUSH2 0x31D JUMP JUMPDEST DUP5 ADD SWAP2 POP POP SWAP3 SWAP2 POP POP JUMP JUMPDEST PUSH0 PUSH1 0x20 DUP3 ADD SWAP1 POP DUP2 DUP2 SUB PUSH0 DUP4 ADD MSTORE PUSH2 0x582 DUP2 DUP5 PUSH2 0x532 JUMP JUMPDEST SWAP1 POP SWAP3 SWAP2 POP POP JUMP JUMPDEST PUSH0 DUP1 PUSH1 0x40 DUP4 DUP6 SUB SLT ISZERO PUSH2 0x5A0 JUMPI PUSH2 0x59F PUSH2 0x30D JUMP JUMPDEST JUMPDEST PUSH0 DUP4 ADD CALLDATALOAD PUSH8 0xFFFFFFFFFFFFFFFF DUP2 GT ISZERO PUSH2 0x5BD JUMPI PUSH2 0x5BC PUSH2 0x311 JUMP JUMPDEST JUMPDEST PUSH2 0x5C9 DUP6 DUP3 DUP7 ADD PUSH2 0x424 JUMP JUMPDEST SWAP3 POP POP PUSH1 0x20 DUP4 ADD CALLDATALOAD PUSH8 0xFFFFFFFFFFFFFFFF DUP2 GT ISZERO PUSH2 0x5EA JUMPI PUSH2 0x5E9 PUSH2 0x311 JUMP JUMPDEST JUMPDEST PUSH2 0x5F6 DUP6 DUP3 DUP7 ADD PUSH2 0x424 JUMP JUMPDEST SWAP2 POP POP SWAP3 POP SWAP3 SWAP1 POP JUMP JUMPDEST PUSH32 0x4E487B7100000000000000000000000000000000000000000000000000000000 PUSH0 MSTORE PUSH1 0x11 PUSH1 0x4 MSTORE PUSH1 0x24 PUSH0 REVERT JUMPDEST PUSH0 PUSH2 0x637 DUP3 PUSH2 0x451 JUMP JUMPDEST SWAP2 POP PUSH2 0x642 DUP4 PUSH2 0x451 JUMP JUMPDEST SWAP3 POP DUP3 DUP3 SUB SWAP1 POP DUP2 DUP2 GT ISZERO PUSH2 0x65A JUMPI PUSH2 0x659 PUSH2 0x600 JUMP JUMPDEST JUMPDEST SWAP3 SWAP2 POP POP JUMP JUMPDEST PUSH32 0x4E487B7100000000000000000000000000000000000000000000000000000000 PUSH0 MSTORE PUSH1 0x32 PUSH1 0x4 MSTORE PUSH1 0x24 PUSH0 REVERT JUMPDEST PUSH0 PUSH2 0x697 DUP3 PUSH2 0x451 JUMP JUMPDEST SWAP2 POP PUSH2 0x6A2 DUP4 PUSH2 0x451 JUMP JUMPDEST SWAP3 POP DUP3 DUP3 ADD SWAP1 POP DUP1 DUP3 GT ISZERO PUSH2 0x6BA JUMPI PUSH2 0x6B9 PUSH2 0x600 JUMP JUMPDEST JUMPDEST SWAP3 SWAP2 POP POP JUMP INVALID LOG2 PUSH5 0x6970667358 0x22 SLT KECCAK256 0xCD RETURNDATACOPY PUSH13 0x938B80520AD75D863AA9082AA0 0xE6 0xFB 0xAE MOD PUSH19 0xD49325D2D6DB24522F7BAC64736F6C63430008 AND STOP CALLER "
				},
				"gasEstimates": {
					"creation": {
						"codeDepositCost": "356400",
						"executionCost": "419",
						"totalCost": "356819"
					},
					"external": {
						"strcat(string,string)": "infinite",
						"substring(string,uint256,uint256)": "infinite"
					}
				},
				"methodIdentifiers": {
					"strcat(string,string)": "d824ccf3",
					"substring(string,uint256,uint256)": "1dcd9b55"
				}
			},
			"storageLayout": {
				"storage": [],
				"types": null
			},
			"userdoc": {
				"kind": "user",
				"methods": {},
				"version": 1
			}
		}
	}
}