{
	"data": {
		"bytecode": {
			"linkReferences": {},
			"object": "608060405234801561000f575f80fd5b506109048061001d5f395ff3fe608060405234801561000f575f80fd5b5060043610610034575f3560e01c8063212e31d614610038578063661a03da14610068575b5f80fd5b610052600480360381019061004d9190610540565b610098565b60405161005f91906105f5565b60405180910390f35b610082600480360381019061007d9190610540565b6102b9565b60405161008f9190610624565b60405180910390f35b60605f601290505f836040516020016100b19190610624565b60405160208183030381529060405290505f670de0b6b3a7640000856100d79190610697565b90505f6100e3826102ee565b90505f8467ffffffffffffffff811115610100576100ff6106c7565b5b6040519080825280601f01601f1916602001820160405280156101325781602001600182028036833780820191505090505b5090505f61013f886102b9565b90505f600190505f60018861015491906106f4565b90505b5f811115610269575f828461016c91906106f4565b106101e5575f87838561017f91906106f4565b815181106101905761018f610727565b5b602001015160f81c60f81b9050808583815181106101b1576101b0610727565b5b60200101907effffffffffffffffffffffffffffffffffffffffffffffffffffffffffffff191690815f1a90535050610248565b7f300000000000000000000000000000000000000000000000000000000000000084828151811061021957610218610727565b5b60200101907effffffffffffffffffffffffffffffffffffffffffffffffffffffffffffff191690815f1a9053505b818061025390610754565b92505080806102619061079b565b915050610157565b508360405160200161027b9190610846565b6040516020818303038152906040528360405160200161029c9291906108ab565b604051602081830303815290604052975050505050505050919050565b5f805b5f83146102e55780806102ce90610754565b915050600a836102de9190610697565b92506102bc565b80915050919050565b60605f60016102fc846103b8565b0190505f8167ffffffffffffffff81111561031a576103196106c7565b5b6040519080825280601f01601f19166020018201604052801561034c5781602001600182028036833780820191505090505b5090505f82602001820190505b6001156103ad578080600190039150507f3031323334353637383961626364656600000000000000000000000000000000600a86061a8153600a85816103a2576103a161063d565b5b0494505f8503610359575b819350505050919050565b5f805f90507a184f03e93ff9f4daa797ed6e38ed64bf6a1f0100000000000000008310610414577a184f03e93ff9f4daa797ed6e38ed64bf6a1f010000000000000000838161040a5761040961063d565b5b0492506040810190505b6d04ee2d6d415b85acef81000000008310610451576d04ee2d6d415b85acef810000000083816104475761044661063d565b5b0492506020810190505b662386f26fc10000831061048057662386f26fc1000083816104765761047561063d565b5b0492506010810190505b6305f5e10083106104a9576305f5e100838161049f5761049e61063d565b5b0492506008810190505b61271083106104ce5761271083816104c4576104c361063d565b5b0492506004810190505b606483106104f157606483816104e7576104e661063d565b5b0492506002810190505b600a8310610500576001810190505b80915050919050565b5f80fd5b5f819050919050565b61051f8161050d565b8114610529575f80fd5b50565b5f8135905061053a81610516565b92915050565b5f6020828403121561055557610554610509565b5b5f6105628482850161052c565b91505092915050565b5f81519050919050565b5f82825260208201905092915050565b5f5b838110156105a2578082015181840152602081019050610587565b5f8484015250505050565b5f601f19601f8301169050919050565b5f6105c78261056b565b6105d18185610575565b93506105e1818560208601610585565b6105ea816105ad565b840191505092915050565b5f6020820190508181035f83015261060d81846105bd565b905092915050565b61061e8161050d565b82525050565b5f6020820190506106375f830184610615565b92915050565b7f4e487b71000000000000000000000000000000000000000000000000000000005f52601260045260245ffd5b7f4e487b71000000000000000000000000000000000000000000000000000000005f52601160045260245ffd5b5f6106a18261050d565b91506106ac8361050d565b9250826106bc576106bb61063d565b5b828204905092915050565b7f4e487b71000000000000000000000000000000000000000000000000000000005f52604160045260245ffd5b5f6106fe8261050d565b91506107098361050d565b92508282039050818111156107215761072061066a565b5b92915050565b7f4e487b71000000000000000000000000000000000000000000000000000000005f52603260045260245ffd5b5f61075e8261050d565b91507fffffffffffffffffffffffffffffffffffffffffffffffffffffffffffffffff82036107905761078f61066a565b5b600182019050919050565b5f6107a58261050d565b91505f82036107b7576107b661066a565b5b600182039050919050565b5f81905092915050565b5f6107d68261056b565b6107e081856107c2565b93506107f0818560208601610585565b80840191505092915050565b7f2e000000000000000000000000000000000000000000000000000000000000005f82015250565b5f6108306001836107c2565b915061083b826107fc565b600182019050919050565b5f61085182846107cc565b915061085c82610824565b915081905092915050565b5f81519050919050565b5f81905092915050565b5f61088582610867565b61088f8185610871565b935061089f818560208601610585565b80840191505092915050565b5f6108b6828561087b565b91506108c2828461087b565b9150819050939250505056fea2646970667358221220f55cdfd271494b1a2d7fdcd07fe5c437879c61fa6caa4340d4fcbae3f136190d64736f6c63430008160033",
			"opcodes": "PUSH1 0x80 PUSH1 0x40 MSTORE CALLVALUE DUP1 ISZERO PUSH2 0xF JUMPI PUSH0 DUP1 REVERT JUMPDEST POP PUSH2 0x904 DUP1 PUSH2 0x1D PUSH0 CODECOPY PUSH0 RETURN INVALID PUSH1 0x80 PUSH1 0x40 MSTORE CALLVALUE DUP1 ISZERO PUSH2 0xF JUMPI PUSH0 DUP1 REVERT JUMPDEST POP PUSH1 0x4 CALLDATASIZE LT PUSH2 0x34 JUMPI PUSH0 CALLDATALOAD PUSH1 0xE0 SHR DUP1 PUSH4 0x212E31D6 EQ PUSH2 0x38 JUMPI DUP1 PUSH4 0x661A03DA EQ PUSH2 0x68 JUMPI JUMPDEST PUSH0 DUP1 REVERT JUMPDEST PUSH2 0x52 PUSH1 0x4 DUP1 CALLDATASIZE SUB DUP2 ADD SWAP1 PUSH2 0x4D SWAP2 SWAP1 PUSH2 0x540 JUMP JUMPDEST PUSH2 0x98 JUMP JUMPDEST PUSH1 0x40 MLOAD PUSH2 0x5F SWAP2 SWAP1 PUSH2 0x5F5 JUMP JUMPDEST PUSH1 0x40 MLOAD DUP1 SWAP2 SUB SWAP1 RETURN JUMPDEST PUSH2 0x82 PUSH1 0x4 DUP1 CALLDATASIZE SUB DUP2 ADD SWAP1 PUSH2 0x7D SWAP2 SWAP1 PUSH2 0x540 JUMP JUMPDEST PUSH2 0x2B9 JUMP JUMPDEST PUSH1 0x40 MLOAD PUSH2 0x8F SWAP2 SWAP1 PUSH2 0x624 JUMP JUMPDEST PUSH1 0x40 MLOAD DUP1 SWAP2 SUB SWAP1 RETURN JUMPDEST PUSH1 0x60 PUSH0 PUSH1 0x12 SWAP1 POP PUSH0 DUP4 PUSH1 0x40 MLOAD PUSH1 0x20 ADD PUSH2 0xB1 SWAP2 SWAP1 PUSH2 0x624 JUMP JUMPDEST PUSH1 0x40 MLOAD PUSH1 0x20 DUP2 DUP4 SUB SUB DUP2 MSTORE SWAP1 PUSH1 0x40 MSTORE SWAP1 POP PUSH0 PUSH8 0xDE0B6B3A7640000 DUP6 PUSH2 0xD7 SWAP2 SWAP1 PUSH2 0x697 JUMP JUMPDEST SWAP1 POP PUSH0 PUSH2 0xE3 DUP3 PUSH2 0x2EE JUMP JUMPDEST SWAP1 POP PUSH0 DUP5 PUSH8 0xFFFFFFFFFFFFFFFF DUP2 GT ISZERO PUSH2 0x100 JUMPI PUSH2 0xFF PUSH2 0x6C7 JUMP JUMPDEST JUMPDEST PUSH1 0x40 MLOAD SWAP1 DUP1 DUP3 MSTORE DUP1 PUSH1 0x1F ADD PUSH1 0x1F NOT AND PUSH1 0x20 ADD DUP3 ADD PUSH1 0x40 MSTORE DUP1 ISZERO PUSH2 0x132 JUMPI DUP2 PUSH1 0x20 ADD PUSH1 0x1 DUP3 MUL DUP1 CALLDATASIZE DUP4 CALLDATACOPY DUP1 DUP3 ADD SWAP2 POP POP SWAP1 POP JUMPDEST POP SWAP1 POP PUSH0 PUSH2 0x13F DUP9 PUSH2 0x2B9 JUMP JUMPDEST SWAP1 POP PUSH0 PUSH1 0x1 SWAP1 POP PUSH0 PUSH1 0x1 DUP9 PUSH2 0x154 SWAP2 SWAP1 PUSH2 0x6F4 JUMP JUMPDEST SWAP1 POP JUMPDEST PUSH0 DUP2 GT ISZERO PUSH2 0x269 JUMPI PUSH0 DUP3 DUP5 PUSH2 0x16C SWAP2 SWAP1 PUSH2 0x6F4 JUMP JUMPDEST LT PUSH2 0x1E5 JUMPI PUSH0 DUP8 DUP4 DUP6 PUSH2 0x17F SWAP2 SWAP1 PUSH2 0x6F4 JUMP JUMPDEST DUP2 MLOAD DUP2 LT PUSH2 0x190 JUMPI PUSH2 0x18F PUSH2 0x727 JUMP JUMPDEST JUMPDEST PUSH1 0x20 ADD ADD MLOAD PUSH1 0xF8 SHR PUSH1 0xF8 SHL SWAP1 POP DUP1 DUP6 DUP4 DUP2 MLOAD DUP2 LT PUSH2 0x1B1 JUMPI PUSH2 0x1B0 PUSH2 0x727 JUMP JUMPDEST JUMPDEST PUSH1 0x20 ADD ADD SWAP1 PUSH31 0xFFFFFFFFFFFFFFFFFFFFFFFFFFFFFFFFFFFFFFFFFFFFFFFFFFFFFFFFFFFFFF NOT AND SWAP1 DUP2 PUSH0 BYTE SWAP1 MSTORE8 POP POP PUSH2 0x248 JUMP JUMPDEST PUSH32 0x3000000000000000000000000000000000000000000000000000000000000000 DUP5 DUP3 DUP2 MLOAD DUP2 LT PUSH2 0x219 JUMPI PUSH2 0x218 PUSH2 0x727 JUMP JUMPDEST JUMPDEST PUSH1 0x20 ADD ADD SWAP1 PUSH31 0xFFFFFFFFFFFFFFFFFFFFFFFFFFFFFFFFFFFFFFFFFFFFFFFFFFFFFFFFFFFFFF NOT AND SWAP1 DUP2 PUSH0 BYTE SWAP1 MSTORE8 POP JUMPDEST DUP2 DUP1 PUSH2 0x253 SWAP1 PUSH2 0x754 JUMP JUMPDEST SWAP3 POP POP DUP1 DUP1 PUSH2 0x261 SWAP1 PUSH2 0x79B JUMP JUMPDEST SWAP2 POP POP PUSH2 0x157 JUMP JUMPDEST POP DUP4 PUSH1 0x40 MLOAD PUSH1 0x20 ADD PUSH2 0x27B SWAP2 SWAP1 PUSH2 0x846 JUMP JUMPDEST PUSH1 0x40 MLOAD PUSH1 0x20 DUP2 DUP4 SUB SUB DUP2 MSTORE SWAP1 PUSH1 0x40 MSTORE DUP4 PUSH1 0x40 MLOAD PUSH1 0x20 ADD PUSH2 0x29C SWAP3 SWAP2 SWAP1 PUSH2 0x8AB JUMP JUMPDEST PUSH1 0x40 MLOAD PUSH1 0x20 DUP2 DUP4 SUB SUB DUP2 MSTORE SWAP1 PUSH1 0x40 MSTORE SWAP8 POP POP POP POP POP POP POP POP SWAP2 SWAP1 POP JUMP JUMPDEST PUSH0 DUP1 JUMPDEST PUSH0 DUP4 EQ PUSH2 0x2E5 JUMPI DUP1 DUP1 PUSH2 0x2CE SWAP1 PUSH2 0x754 JUMP JUMPDEST SWAP2 POP POP PUSH1 0xA DUP4 PUSH2 0x2DE SWAP2 SWAP1 PUSH2 0x697 JUMP JUMPDEST SWAP3 POP PUSH2 0x2BC JUMP JUMPDEST DUP1 SWAP2 POP POP SWAP2 SWAP1 POP JUMP JUMPDEST PUSH1 0x60 PUSH0 PUSH1 0x1 PUSH2 0x2FC DUP5 PUSH2 0x3B8 JUMP JUMPDEST ADD SWAP1 POP PUSH0 DUP2 PUSH8 0xFFFFFFFFFFFFFFFF DUP2 GT ISZERO PUSH2 0x31A JUMPI PUSH2 0x319 PUSH2 0x6C7 JUMP JUMPDEST JUMPDEST PUSH1 0x40 MLOAD SWAP1 DUP1 DUP3 MSTORE DUP1 PUSH1 0x1F ADD PUSH1 0x1F NOT AND PUSH1 0x20 ADD DUP3 ADD PUSH1 0x40 MSTORE DUP1 ISZERO PUSH2 0x34C JUMPI DUP2 PUSH1 0x20 ADD PUSH1 0x1 DUP3 MUL DUP1 CALLDATASIZE DUP4 CALLDATACOPY DUP1 DUP3 ADD SWAP2 POP POP SWAP1 POP JUMPDEST POP SWAP1 POP PUSH0 DUP3 PUSH1 0x20 ADD DUP3 ADD SWAP1 POP JUMPDEST PUSH1 0x1 ISZERO PUSH2 0x3AD JUMPI DUP1 DUP1 PUSH1 0x1 SWAP1 SUB SWAP2 POP POP PUSH32 0x3031323334353637383961626364656600000000000000000000000000000000 PUSH1 0xA DUP7 MOD BYTE DUP2 MSTORE8 PUSH1 0xA DUP6 DUP2 PUSH2 0x3A2 JUMPI PUSH2 0x3A1 PUSH2 0x63D JUMP JUMPDEST JUMPDEST DIV SWAP5 POP PUSH0 DUP6 SUB PUSH2 0x359 JUMPI JUMPDEST DUP2 SWAP4 POP POP POP POP SWAP2 SWAP1 POP JUMP JUMPDEST PUSH0 DUP1 PUSH0 SWAP1 POP PUSH27 0x184F03E93FF9F4DAA797ED6E38ED64BF6A1F010000000000000000 DUP4 LT PUSH2 0x414 JUMPI PUSH27 0x184F03E93FF9F4DAA797ED6E38ED64BF6A1F010000000000000000 DUP4 DUP2 PUSH2 0x40A JUMPI PUSH2 0x409 PUSH2 0x63D JUMP JUMPDEST JUMPDEST DIV SWAP3 POP PUSH1 0x40 DUP2 ADD SWAP1 POP JUMPDEST PUSH14 0x4EE2D6D415B85ACEF8100000000 DUP4 LT PUSH2 0x451 JUMPI PUSH14 0x4EE2D6D415B85ACEF8100000000 DUP4 DUP2 PUSH2 0x447 JUMPI PUSH2 0x446 PUSH2 0x63D JUMP JUMPDEST JUMPDEST DIV SWAP3 POP PUSH1 0x20 DUP2 ADD SWAP1 POP JUMPDEST PUSH7 0x2386F26FC10000 DUP4 LT PUSH2 0x480 JUMPI PUSH7 0x2386F26FC10000 DUP4 DUP2 PUSH2 0x476 JUMPI PUSH2 0x475 PUSH2 0x63D JUMP JUMPDEST JUMPDEST DIV SWAP3 POP PUSH1 0x10 DUP2 ADD SWAP1 POP JUMPDEST PUSH4 0x5F5E100 DUP4 LT PUSH2 0x4A9 JUMPI PUSH4 0x5F5E100 DUP4 DUP2 PUSH2 0x49F JUMPI PUSH2 0x49E PUSH2 0x63D JUMP JUMPDEST JUMPDEST DIV SWAP3 POP PUSH1 0x8 DUP2 ADD SWAP1 POP JUMPDEST PUSH2 0x2710 DUP4 LT PUSH2 0x4CE JUMPI PUSH2 0x2710 DUP4 DUP2 PUSH2 0x4C4 JUMPI PUSH2 0x4C3 PUSH2 0x63D JUMP JUMPDEST JUMPDEST DIV SWAP3 POP PUSH1 0x4 DUP2 ADD SWAP1 POP JUMPDEST PUSH1 0x64 DUP4 LT PUSH2 0x4F1 JUMPI PUSH1 0x64 DUP4 DUP2 PUSH2 0x4E7 JUMPI PUSH2 0x4E6 PUSH2 0x63D JUMP JUMPDEST JUMPDEST DIV SWAP3 POP PUSH1 0x2 DUP2 ADD SWAP1 POP JUMPDEST PUSH1 0xA DUP4 LT PUSH2 0x500 JUMPI PUSH1 0x1 DUP2 ADD SWAP1 POP JUMPDEST DUP1 SWAP2 POP POP SWAP2 SWAP1 POP JUMP JUMPDEST PUSH0 DUP1 REVERT JUMPDEST PUSH0 DUP2 SWAP1 POP SWAP2 SWAP1 POP JUMP JUMPDEST PUSH2 0x51F DUP2 PUSH2 0x50D JUMP JUMPDEST DUP2 EQ PUSH2 0x529 JUMPI PUSH0 DUP1 REVERT JUMPDEST POP JUMP JUMPDEST PUSH0 DUP2 CALLDATALOAD SWAP1 POP PUSH2 0x53A DUP2 PUSH2 0x516 JUMP JUMPDEST SWAP3 SWAP2 POP POP JUMP JUMPDEST PUSH0 PUSH1 0x20 DUP3 DUP5 SUB SLT ISZERO PUSH2 0x555 JUMPI PUSH2 0x554 PUSH2 0x509 JUMP JUMPDEST JUMPDEST PUSH0 PUSH2 0x562 DUP5 DUP3 DUP6 ADD PUSH2 0x52C JUMP JUMPDEST SWAP2 POP POP SWAP3 SWAP2 POP POP JUMP JUMPDEST PUSH0 DUP2 MLOAD SWAP1 POP SWAP2 SWAP1 POP JUMP JUMPDEST PUSH0 DUP3 DUP3 MSTORE PUSH1 0x20 DUP3 ADD SWAP1 POP SWAP3 SWAP2 POP POP JUMP JUMPDEST PUSH0 JUMPDEST DUP4 DUP2 LT ISZERO PUSH2 0x5A2 JUMPI DUP1 DUP3 ADD MLOAD DUP2 DUP5 ADD MSTORE PUSH1 0x20 DUP2 ADD SWAP1 POP PUSH2 0x587 JUMP JUMPDEST PUSH0 DUP5 DUP5 ADD MSTORE POP POP POP POP JUMP JUMPDEST PUSH0 PUSH1 0x1F NOT PUSH1 0x1F DUP4 ADD AND SWAP1 POP SWAP2 SWAP1 POP JUMP JUMPDEST PUSH0 PUSH2 0x5C7 DUP3 PUSH2 0x56B JUMP JUMPDEST PUSH2 0x5D1 DUP2 DUP6 PUSH2 0x575 JUMP JUMPDEST SWAP4 POP PUSH2 0x5E1 DUP2 DUP6 PUSH1 0x20 DUP7 ADD PUSH2 0x585 JUMP JUMPDEST PUSH2 0x5EA DUP2 PUSH2 0x5AD JUMP JUMPDEST DUP5 ADD SWAP2 POP POP SWAP3 SWAP2 POP POP JUMP JUMPDEST PUSH0 PUSH1 0x20 DUP3 ADD SWAP1 POP DUP2 DUP2 SUB PUSH0 DUP4 ADD MSTORE PUSH2 0x60D DUP2 DUP5 PUSH2 0x5BD JUMP JUMPDEST SWAP1 POP SWAP3 SWAP2 POP POP JUMP JUMPDEST PUSH2 0x61E DUP2 PUSH2 0x50D JUMP JUMPDEST DUP3 MSTORE POP POP JUMP JUMPDEST PUSH0 PUSH1 0x20 DUP3 ADD SWAP1 POP PUSH2 0x637 PUSH0 DUP4 ADD DUP5 PUSH2 0x615 JUMP JUMPDEST SWAP3 SWAP2 POP POP JUMP JUMPDEST PUSH32 0x4E487B7100000000000000000000000000000000000000000000000000000000 PUSH0 MSTORE PUSH1 0x12 PUSH1 0x4 MSTORE PUSH1 0x24 PUSH0 REVERT JUMPDEST PUSH32 0x4E487B7100000000000000000000000000000000000000000000000000000000 PUSH0 MSTORE PUSH1 0x11 PUSH1 0x4 MSTORE PUSH1 0x24 PUSH0 REVERT JUMPDEST PUSH0 PUSH2 0x6A1 DUP3 PUSH2 0x50D JUMP JUMPDEST SWAP2 POP PUSH2 0x6AC DUP4 PUSH2 0x50D JUMP JUMPDEST SWAP3 POP DUP3 PUSH2 0x6BC JUMPI PUSH2 0x6BB PUSH2 0x63D JUMP JUMPDEST JUMPDEST DUP3 DUP3 DIV SWAP1 POP SWAP3 SWAP2 POP POP JUMP JUMPDEST PUSH32 0x4E487B7100000000000000000000000000000000000000000000000000000000 PUSH0 MSTORE PUSH1 0x41 PUSH1 0x4 MSTORE PUSH1 0x24 PUSH0 REVERT JUMPDEST PUSH0 PUSH2 0x6FE DUP3 PUSH2 0x50D JUMP JUMPDEST SWAP2 POP PUSH2 0x709 DUP4 PUSH2 0x50D JUMP JUMPDEST SWAP3 POP DUP3 DUP3 SUB SWAP1 POP DUP2 DUP2 GT ISZERO PUSH2 0x721 JUMPI PUSH2 0x720 PUSH2 0x66A JUMP JUMPDEST JUMPDEST SWAP3 SWAP2 POP POP JUMP JUMPDEST PUSH32 0x4E487B7100000000000000000000000000000000000000000000000000000000 PUSH0 MSTORE PUSH1 0x32 PUSH1 0x4 MSTORE PUSH1 0x24 PUSH0 REVERT JUMPDEST PUSH0 PUSH2 0x75E DUP3 PUSH2 0x50D JUMP JUMPDEST SWAP2 POP PUSH32 0xFFFFFFFFFFFFFFFFFFFFFFFFFFFFFFFFFFFFFFFFFFFFFFFFFFFFFFFFFFFFFFFF DUP3 SUB PUSH2 0x790 JUMPI PUSH2 0x78F PUSH2 0x66A JUMP JUMPDEST JUMPDEST PUSH1 0x1 DUP3 ADD SWAP1 POP SWAP2 SWAP1 POP JUMP JUMPDEST PUSH0 PUSH2 0x7A5 DUP3 PUSH2 0x50D JUMP JUMPDEST SWAP2 POP PUSH0 DUP3 SUB PUSH2 0x7B7 JUMPI PUSH2 0x7B6 PUSH2 0x66A JUMP JUMPDEST JUMPDEST PUSH1 0x1 DUP3 SUB SWAP1 POP SWAP2 SWAP1 POP JUMP JUMPDEST PUSH0 DUP2 SWAP1 POP SWAP3 SWAP2 POP POP JUMP JUMPDEST PUSH0 PUSH2 0x7D6 DUP3 PUSH2 0x56B JUMP JUMPDEST PUSH2 0x7E0 DUP2 DUP6 PUSH2 0x7C2 JUMP JUMPDEST SWAP4 POP PUSH2 0x7F0 DUP2 DUP6 PUSH1 0x20 DUP7 ADD PUSH2 0x585 JUMP JUMPDEST DUP1 DUP5 ADD SWAP2 POP POP SWAP3 SWAP2 POP POP JUMP JUMPDEST PUSH32 0x2E00000000000000000000000000000000000000000000000000000000000000 PUSH0 DUP3 ADD MSTORE POP JUMP JUMPDEST PUSH0 PUSH2 0x830 PUSH1 0x1 DUP4 PUSH2 0x7C2 JUMP JUMPDEST SWAP2 POP PUSH2 0x83B DUP3 PUSH2 0x7FC JUMP JUMPDEST PUSH1 0x1 DUP3 ADD SWAP1 POP SWAP2 SWAP1 POP JUMP JUMPDEST PUSH0 PUSH2 0x851 DUP3 DUP5 PUSH2 0x7CC JUMP JUMPDEST SWAP2 POP PUSH2 0x85C DUP3 PUSH2 0x824 JUMP JUMPDEST SWAP2 POP DUP2 SWAP1 POP SWAP3 SWAP2 POP POP JUMP JUMPDEST PUSH0 DUP2 MLOAD SWAP1 POP SWAP2 SWAP1 POP JUMP JUMPDEST PUSH0 DUP2 SWAP1 POP SWAP3 SWAP2 POP POP JUMP JUMPDEST PUSH0 PUSH2 0x885 DUP3 PUSH2 0x867 JUMP JUMPDEST PUSH2 0x88F DUP2 DUP6 PUSH2 0x871 JUMP JUMPDEST SWAP4 POP PUSH2 0x89F DUP2 DUP6 PUSH1 0x20 DUP7 ADD PUSH2 0x585 JUMP JUMPDEST DUP1 DUP5 ADD SWAP2 POP POP SWAP3 SWAP2 POP POP JUMP JUMPDEST PUSH0 PUSH2 0x8B6 DUP3 DUP6 PUSH2 0x87B JUMP JUMPDEST SWAP2 POP PUSH2 0x8C2 DUP3 DUP5 PUSH2 0x87B JUMP JUMPDEST SWAP2 POP DUP2 SWAP1 POP SWAP4 SWAP3 POP POP POP JUMP INVALID LOG2 PUSH5 0x6970667358 0x22 SLT KECCAK256 CREATE2 0x5C 0xDF 0xD2 PUSH18 0x494B1A2D7FDCD07FE5C437879C61FA6CAA43 BLOCKHASH 0xD4 0xFC 0xBA 0xE3 CALL CALLDATASIZE NOT 0xD PUSH5 0x736F6C6343 STOP ADDMOD AND STOP CALLER "
		},
		"gasEstimates": {
			"creation": {
				"codeDepositCost": "461600",
				"executionCost": "497",
				"totalCost": "462097"
			},
			"external": {
				"convertToSmallerUnit(uint256)": "infinite",
				"getUintLength(uint256)": "infinite"
			}
		},
		"methodIdentifiers": {
			"convertToSmallerUnit(uint256)": "212e31d6",
			"getUintLength(uint256)": "661a03da"
		}
	},
	"abi": [
		{
			"inputs": [
				{
					"internalType": "uint256",
					"name": "number",
					"type": "uint256"
				}
			],
			"name": "convertToSmallerUnit",
			"outputs": [
				{
					"internalType": "string",
					"name": "",
					"type": "string"
				}
			],
			"stateMutability": "pure",
			"type": "function"
		},
		{
			"inputs": [
				{
					"internalType": "uint256",
					"name": "number",
					"type": "uint256"
				}
			],
			"name": "getUintLength",
			"outputs": [
				{
					"internalType": "uint256",
					"name": "",
					"type": "uint256"
				}
			],
			"stateMutability": "pure",
			"type": "function"
		}
	]
}