{
	"test/test.sol": {
		"Test": {
			"abi": [
				{
					"inputs": [],
					"stateMutability": "payable",
					"type": "constructor"
				},
				{
					"anonymous": false,
					"inputs": [
						{
							"indexed": false,
							"internalType": "string",
							"name": "data",
							"type": "string"
						}
					],
					"name": "Log",
					"type": "event"
				},
				{
					"anonymous": false,
					"inputs": [
						{
							"indexed": false,
							"internalType": "address",
							"name": "Sender",
							"type": "address"
						},
						{
							"indexed": false,
							"internalType": "uint256",
							"name": "Value",
							"type": "uint256"
						},
						{
							"indexed": false,
							"internalType": "bytes",
							"name": "Data",
							"type": "bytes"
						}
					],
					"name": "Received",
					"type": "event"
				},
				{
					"stateMutability": "payable",
					"type": "fallback"
				},
				{
					"inputs": [],
					"name": "getBalance",
					"outputs": [
						{
							"internalType": "uint256",
							"name": "balance",
							"type": "uint256"
						}
					],
					"stateMutability": "view",
					"type": "function"
				},
				{
					"inputs": [
						{
							"internalType": "string",
							"name": "data",
							"type": "string"
						}
					],
					"name": "getETH",
					"outputs": [],
					"stateMutability": "payable",
					"type": "function"
				},
				{
					"inputs": [
						{
							"internalType": "address payable",
							"name": "_to",
							"type": "address"
						},
						{
							"internalType": "uint256",
							"name": "amount",
							"type": "uint256"
						}
					],
					"name": "transferETH",
					"outputs": [],
					"stateMutability": "payable",
					"type": "function"
				},
				{
					"stateMutability": "payable",
					"type": "receive"
				}
			],
			"devdoc": {
				"kind": "dev",
				"methods": {},
				"version": 1
			},
			"evm": {
				"assembly": "    /* \"test/test.sol\":56:728  contract Test{... */\n  mstore(0x40, 0x80)\n  dataSize(sub_0)\n  dup1\n  dataOffset(sub_0)\n  0x00\n  codecopy\n  0x00\n  return\nstop\n\nsub_0: assembly {\n        /* \"test/test.sol\":56:728  contract Test{... */\n      mstore(0x40, 0x80)\n      jumpi(tag_1, lt(calldatasize, 0x04))\n      shr(0xe0, calldataload(0x00))\n      dup1\n      0x12065fe0\n      eq\n      tag_3\n      jumpi\n      dup1\n      0x7b1a4909\n      eq\n      tag_4\n      jumpi\n      dup1\n      0x89318a21\n      eq\n      tag_5\n      jumpi\n      jump(tag_2)\n    tag_1:\n      jumpi(tag_2, calldatasize)\n      stop\n    tag_2:\n        /* \"test/test.sol\":676:717  Received(msg.sender, msg.value, msg.data) */\n      0x89e8e1406eb88cbdf591b5eeb74b6d10cbda6e6ff4190b83ed226e54a1e6c4fb\n        /* \"test/test.sol\":685:695  msg.sender */\n      caller\n        /* \"test/test.sol\":697:706  msg.value */\n      callvalue\n        /* \"test/test.sol\":708:716  msg.data */\n      0x00\n      calldatasize\n        /* \"test/test.sol\":676:717  Received(msg.sender, msg.value, msg.data) */\n      mload(0x40)\n      tag_10\n      swap5\n      swap4\n      swap3\n      swap2\n      swap1\n      tag_11\n      jump\t// in\n    tag_10:\n      mload(0x40)\n      dup1\n      swap2\n      sub\n      swap1\n      log1\n        /* \"test/test.sol\":56:728  contract Test{... */\n      stop\n        /* \"test/test.sol\":106:210  function getBalance() view public returns (uint balance) {... */\n    tag_3:\n      callvalue\n      dup1\n      iszero\n      tag_12\n      jumpi\n      0x00\n      dup1\n      revert\n    tag_12:\n      pop\n      tag_13\n      tag_14\n      jump\t// in\n    tag_13:\n      mload(0x40)\n      tag_15\n      swap2\n      swap1\n      tag_16\n      jump\t// in\n    tag_15:\n      mload(0x40)\n      dup1\n      swap2\n      sub\n      swap1\n      return\n        /* \"test/test.sol\":216:329  function transferETH(address payable _to, uint256 amount) external payable{... */\n    tag_4:\n      tag_17\n      0x04\n      dup1\n      calldatasize\n      sub\n      dup2\n      add\n      swap1\n      tag_18\n      swap2\n      swap1\n      tag_19\n      jump\t// in\n    tag_18:\n      tag_20\n      jump\t// in\n    tag_17:\n      stop\n        /* \"test/test.sol\":370:456  function getETH(string memory data) external payable {... */\n    tag_5:\n      tag_21\n      0x04\n      dup1\n      calldatasize\n      sub\n      dup2\n      add\n      swap1\n      tag_22\n      swap2\n      swap1\n      tag_23\n      jump\t// in\n    tag_22:\n      tag_24\n      jump\t// in\n    tag_21:\n      stop\n        /* \"test/test.sol\":106:210  function getBalance() view public returns (uint balance) {... */\n    tag_14:\n        /* \"test/test.sol\":149:161  uint balance */\n      0x00\n        /* \"test/test.sol\":181:202  address(this).balance */\n      selfbalance\n        /* \"test/test.sol\":174:202  return address(this).balance */\n      swap1\n      pop\n        /* \"test/test.sol\":106:210  function getBalance() view public returns (uint balance) {... */\n      swap1\n      jump\t// out\n        /* \"test/test.sol\":216:329  function transferETH(address payable _to, uint256 amount) external payable{... */\n    tag_20:\n        /* \"test/test.sol\":301:304  _to */\n      dup2\n        /* \"test/test.sol\":301:313  _to.transfer */\n      0xffffffffffffffffffffffffffffffffffffffff\n      and\n        /* \"test/test.sol\":301:321  _to.transfer(amount) */\n      0x08fc\n        /* \"test/test.sol\":314:320  amount */\n      dup3\n        /* \"test/test.sol\":301:321  _to.transfer(amount) */\n      swap1\n      dup2\n      iszero\n      mul\n      swap1\n      mload(0x40)\n      0x00\n      mload(0x40)\n      dup1\n      dup4\n      sub\n      dup2\n      dup6\n      dup9\n      dup9\n      call\n      swap4\n      pop\n      pop\n      pop\n      pop\n      iszero\n      dup1\n      iszero\n      tag_28\n      jumpi\n      returndatasize\n      0x00\n      dup1\n      returndatacopy\n      revert(0x00, returndatasize)\n    tag_28:\n      pop\n        /* \"test/test.sol\":216:329  function transferETH(address payable _to, uint256 amount) external payable{... */\n      pop\n      pop\n      jump\t// out\n        /* \"test/test.sol\":370:456  function getETH(string memory data) external payable {... */\n    tag_24:\n        /* \"test/test.sol\":439:448  Log(data) */\n      0xcf34ef537ac33ee1ac626ca1587a0a7e8e51561e5514f8cb36afa1c5102b3bab\n        /* \"test/test.sol\":443:447  data */\n      dup2\n        /* \"test/test.sol\":439:448  Log(data) */\n      mload(0x40)\n      tag_30\n      swap2\n      swap1\n      tag_31\n      jump\t// in\n    tag_30:\n      mload(0x40)\n      dup1\n      swap2\n      sub\n      swap1\n      log1\n        /* \"test/test.sol\":370:456  function getETH(string memory data) external payable {... */\n      pop\n      jump\t// out\n        /* \"#utility.yul\":7:133   */\n    tag_32:\n        /* \"#utility.yul\":44:51   */\n      0x00\n        /* \"#utility.yul\":84:126   */\n      0xffffffffffffffffffffffffffffffffffffffff\n        /* \"#utility.yul\":77:82   */\n      dup3\n        /* \"#utility.yul\":73:127   */\n      and\n        /* \"#utility.yul\":62:127   */\n      swap1\n      pop\n        /* \"#utility.yul\":7:133   */\n      swap2\n      swap1\n      pop\n      jump\t// out\n        /* \"#utility.yul\":139:235   */\n    tag_33:\n        /* \"#utility.yul\":176:183   */\n      0x00\n        /* \"#utility.yul\":205:229   */\n      tag_64\n        /* \"#utility.yul\":223:228   */\n      dup3\n        /* \"#utility.yul\":205:229   */\n      tag_32\n      jump\t// in\n    tag_64:\n        /* \"#utility.yul\":194:229   */\n      swap1\n      pop\n        /* \"#utility.yul\":139:235   */\n      swap2\n      swap1\n      pop\n      jump\t// out\n        /* \"#utility.yul\":241:359   */\n    tag_34:\n        /* \"#utility.yul\":328:352   */\n      tag_66\n        /* \"#utility.yul\":346:351   */\n      dup2\n        /* \"#utility.yul\":328:352   */\n      tag_33\n      jump\t// in\n    tag_66:\n        /* \"#utility.yul\":323:326   */\n      dup3\n        /* \"#utility.yul\":316:353   */\n      mstore\n        /* \"#utility.yul\":241:359   */\n      pop\n      pop\n      jump\t// out\n        /* \"#utility.yul\":365:442   */\n    tag_35:\n        /* \"#utility.yul\":402:409   */\n      0x00\n        /* \"#utility.yul\":431:436   */\n      dup2\n        /* \"#utility.yul\":420:436   */\n      swap1\n      pop\n        /* \"#utility.yul\":365:442   */\n      swap2\n      swap1\n      pop\n      jump\t// out\n        /* \"#utility.yul\":448:566   */\n    tag_36:\n        /* \"#utility.yul\":535:559   */\n      tag_69\n        /* \"#utility.yul\":553:558   */\n      dup2\n        /* \"#utility.yul\":535:559   */\n      tag_35\n      jump\t// in\n    tag_69:\n        /* \"#utility.yul\":530:533   */\n      dup3\n        /* \"#utility.yul\":523:560   */\n      mstore\n        /* \"#utility.yul\":448:566   */\n      pop\n      pop\n      jump\t// out\n        /* \"#utility.yul\":572:740   */\n    tag_37:\n        /* \"#utility.yul\":655:666   */\n      0x00\n        /* \"#utility.yul\":689:695   */\n      dup3\n        /* \"#utility.yul\":684:687   */\n      dup3\n        /* \"#utility.yul\":677:696   */\n      mstore\n        /* \"#utility.yul\":729:733   */\n      0x20\n        /* \"#utility.yul\":724:727   */\n      dup3\n        /* \"#utility.yul\":720:734   */\n      add\n        /* \"#utility.yul\":705:734   */\n      swap1\n      pop\n        /* \"#utility.yul\":572:740   */\n      swap3\n      swap2\n      pop\n      pop\n      jump\t// out\n        /* \"#utility.yul\":746:892   */\n    tag_38:\n        /* \"#utility.yul\":843:849   */\n      dup3\n        /* \"#utility.yul\":838:841   */\n      dup2\n        /* \"#utility.yul\":833:836   */\n      dup4\n        /* \"#utility.yul\":820:850   */\n      calldatacopy\n        /* \"#utility.yul\":884:885   */\n      0x00\n        /* \"#utility.yul\":875:881   */\n      dup4\n        /* \"#utility.yul\":870:873   */\n      dup4\n        /* \"#utility.yul\":866:882   */\n      add\n        /* \"#utility.yul\":859:886   */\n      mstore\n        /* \"#utility.yul\":746:892   */\n      pop\n      pop\n      pop\n      jump\t// out\n        /* \"#utility.yul\":898:1000   */\n    tag_39:\n        /* \"#utility.yul\":939:945   */\n      0x00\n        /* \"#utility.yul\":990:992   */\n      0x1f\n        /* \"#utility.yul\":986:993   */\n      not\n        /* \"#utility.yul\":981:983   */\n      0x1f\n        /* \"#utility.yul\":974:979   */\n      dup4\n        /* \"#utility.yul\":970:984   */\n      add\n        /* \"#utility.yul\":966:994   */\n      and\n        /* \"#utility.yul\":956:994   */\n      swap1\n      pop\n        /* \"#utility.yul\":898:1000   */\n      swap2\n      swap1\n      pop\n      jump\t// out\n        /* \"#utility.yul\":1028:1342   */\n    tag_40:\n        /* \"#utility.yul\":1124:1127   */\n      0x00\n        /* \"#utility.yul\":1145:1215   */\n      tag_74\n        /* \"#utility.yul\":1208:1214   */\n      dup4\n        /* \"#utility.yul\":1203:1206   */\n      dup6\n        /* \"#utility.yul\":1145:1215   */\n      tag_37\n      jump\t// in\n    tag_74:\n        /* \"#utility.yul\":1138:1215   */\n      swap4\n      pop\n        /* \"#utility.yul\":1225:1281   */\n      tag_75\n        /* \"#utility.yul\":1274:1280   */\n      dup4\n        /* \"#utility.yul\":1269:1272   */\n      dup6\n        /* \"#utility.yul\":1262:1267   */\n      dup5\n        /* \"#utility.yul\":1225:1281   */\n      tag_38\n      jump\t// in\n    tag_75:\n        /* \"#utility.yul\":1306:1335   */\n      tag_76\n        /* \"#utility.yul\":1328:1334   */\n      dup4\n        /* \"#utility.yul\":1306:1335   */\n      tag_39\n      jump\t// in\n    tag_76:\n        /* \"#utility.yul\":1301:1304   */\n      dup5\n        /* \"#utility.yul\":1297:1336   */\n      add\n        /* \"#utility.yul\":1290:1336   */\n      swap1\n      pop\n        /* \"#utility.yul\":1028:1342   */\n      swap4\n      swap3\n      pop\n      pop\n      pop\n      jump\t// out\n        /* \"#utility.yul\":1348:1897   */\n    tag_11:\n        /* \"#utility.yul\":1525:1529   */\n      0x00\n        /* \"#utility.yul\":1563:1565   */\n      0x60\n        /* \"#utility.yul\":1552:1561   */\n      dup3\n        /* \"#utility.yul\":1548:1566   */\n      add\n        /* \"#utility.yul\":1540:1566   */\n      swap1\n      pop\n        /* \"#utility.yul\":1576:1647   */\n      tag_78\n        /* \"#utility.yul\":1644:1645   */\n      0x00\n        /* \"#utility.yul\":1633:1642   */\n      dup4\n        /* \"#utility.yul\":1629:1646   */\n      add\n        /* \"#utility.yul\":1620:1626   */\n      dup8\n        /* \"#utility.yul\":1576:1647   */\n      tag_34\n      jump\t// in\n    tag_78:\n        /* \"#utility.yul\":1657:1729   */\n      tag_79\n        /* \"#utility.yul\":1725:1727   */\n      0x20\n        /* \"#utility.yul\":1714:1723   */\n      dup4\n        /* \"#utility.yul\":1710:1728   */\n      add\n        /* \"#utility.yul\":1701:1707   */\n      dup7\n        /* \"#utility.yul\":1657:1729   */\n      tag_36\n      jump\t// in\n    tag_79:\n        /* \"#utility.yul\":1776:1785   */\n      dup2\n        /* \"#utility.yul\":1770:1774   */\n      dup2\n        /* \"#utility.yul\":1766:1786   */\n      sub\n        /* \"#utility.yul\":1761:1763   */\n      0x40\n        /* \"#utility.yul\":1750:1759   */\n      dup4\n        /* \"#utility.yul\":1746:1764   */\n      add\n        /* \"#utility.yul\":1739:1787   */\n      mstore\n        /* \"#utility.yul\":1804:1890   */\n      tag_80\n        /* \"#utility.yul\":1885:1889   */\n      dup2\n        /* \"#utility.yul\":1876:1882   */\n      dup5\n        /* \"#utility.yul\":1868:1874   */\n      dup7\n        /* \"#utility.yul\":1804:1890   */\n      tag_40\n      jump\t// in\n    tag_80:\n        /* \"#utility.yul\":1796:1890   */\n      swap1\n      pop\n        /* \"#utility.yul\":1348:1897   */\n      swap6\n      swap5\n      pop\n      pop\n      pop\n      pop\n      pop\n      jump\t// out\n        /* \"#utility.yul\":1903:2125   */\n    tag_16:\n        /* \"#utility.yul\":1996:2000   */\n      0x00\n        /* \"#utility.yul\":2034:2036   */\n      0x20\n        /* \"#utility.yul\":2023:2032   */\n      dup3\n        /* \"#utility.yul\":2019:2037   */\n      add\n        /* \"#utility.yul\":2011:2037   */\n      swap1\n      pop\n        /* \"#utility.yul\":2047:2118   */\n      tag_82\n        /* \"#utility.yul\":2115:2116   */\n      0x00\n        /* \"#utility.yul\":2104:2113   */\n      dup4\n        /* \"#utility.yul\":2100:2117   */\n      add\n        /* \"#utility.yul\":2091:2097   */\n      dup5\n        /* \"#utility.yul\":2047:2118   */\n      tag_36\n      jump\t// in\n    tag_82:\n        /* \"#utility.yul\":1903:2125   */\n      swap3\n      swap2\n      pop\n      pop\n      jump\t// out\n        /* \"#utility.yul\":2131:2206   */\n    tag_41:\n        /* \"#utility.yul\":2164:2170   */\n      0x00\n        /* \"#utility.yul\":2197:2199   */\n      0x40\n        /* \"#utility.yul\":2191:2200   */\n      mload\n        /* \"#utility.yul\":2181:2200   */\n      swap1\n      pop\n        /* \"#utility.yul\":2131:2206   */\n      swap1\n      jump\t// out\n        /* \"#utility.yul\":2212:2329   */\n    tag_42:\n        /* \"#utility.yul\":2321:2322   */\n      0x00\n        /* \"#utility.yul\":2318:2319   */\n      dup1\n        /* \"#utility.yul\":2311:2323   */\n      revert\n        /* \"#utility.yul\":2335:2452   */\n    tag_43:\n        /* \"#utility.yul\":2444:2445   */\n      0x00\n        /* \"#utility.yul\":2441:2442   */\n      dup1\n        /* \"#utility.yul\":2434:2446   */\n      revert\n        /* \"#utility.yul\":2458:2562   */\n    tag_44:\n        /* \"#utility.yul\":2503:2510   */\n      0x00\n        /* \"#utility.yul\":2532:2556   */\n      tag_87\n        /* \"#utility.yul\":2550:2555   */\n      dup3\n        /* \"#utility.yul\":2532:2556   */\n      tag_32\n      jump\t// in\n    tag_87:\n        /* \"#utility.yul\":2521:2556   */\n      swap1\n      pop\n        /* \"#utility.yul\":2458:2562   */\n      swap2\n      swap1\n      pop\n      jump\t// out\n        /* \"#utility.yul\":2568:2706   */\n    tag_45:\n        /* \"#utility.yul\":2649:2681   */\n      tag_89\n        /* \"#utility.yul\":2675:2680   */\n      dup2\n        /* \"#utility.yul\":2649:2681   */\n      tag_44\n      jump\t// in\n    tag_89:\n        /* \"#utility.yul\":2642:2647   */\n      dup2\n        /* \"#utility.yul\":2639:2682   */\n      eq\n        /* \"#utility.yul\":2629:2700   */\n      tag_90\n      jumpi\n        /* \"#utility.yul\":2696:2697   */\n      0x00\n        /* \"#utility.yul\":2693:2694   */\n      dup1\n        /* \"#utility.yul\":2686:2698   */\n      revert\n        /* \"#utility.yul\":2629:2700   */\n    tag_90:\n        /* \"#utility.yul\":2568:2706   */\n      pop\n      jump\t// out\n        /* \"#utility.yul\":2712:2867   */\n    tag_46:\n        /* \"#utility.yul\":2766:2771   */\n      0x00\n        /* \"#utility.yul\":2804:2810   */\n      dup2\n        /* \"#utility.yul\":2791:2811   */\n      calldataload\n        /* \"#utility.yul\":2782:2811   */\n      swap1\n      pop\n        /* \"#utility.yul\":2820:2861   */\n      tag_92\n        /* \"#utility.yul\":2855:2860   */\n      dup2\n        /* \"#utility.yul\":2820:2861   */\n      tag_45\n      jump\t// in\n    tag_92:\n        /* \"#utility.yul\":2712:2867   */\n      swap3\n      swap2\n      pop\n      pop\n      jump\t// out\n        /* \"#utility.yul\":2873:2995   */\n    tag_47:\n        /* \"#utility.yul\":2946:2970   */\n      tag_94\n        /* \"#utility.yul\":2964:2969   */\n      dup2\n        /* \"#utility.yul\":2946:2970   */\n      tag_35\n      jump\t// in\n    tag_94:\n        /* \"#utility.yul\":2939:2944   */\n      dup2\n        /* \"#utility.yul\":2936:2971   */\n      eq\n        /* \"#utility.yul\":2926:2989   */\n      tag_95\n      jumpi\n        /* \"#utility.yul\":2985:2986   */\n      0x00\n        /* \"#utility.yul\":2982:2983   */\n      dup1\n        /* \"#utility.yul\":2975:2987   */\n      revert\n        /* \"#utility.yul\":2926:2989   */\n    tag_95:\n        /* \"#utility.yul\":2873:2995   */\n      pop\n      jump\t// out\n        /* \"#utility.yul\":3001:3140   */\n    tag_48:\n        /* \"#utility.yul\":3047:3052   */\n      0x00\n        /* \"#utility.yul\":3085:3091   */\n      dup2\n        /* \"#utility.yul\":3072:3092   */\n      calldataload\n        /* \"#utility.yul\":3063:3092   */\n      swap1\n      pop\n        /* \"#utility.yul\":3101:3134   */\n      tag_97\n        /* \"#utility.yul\":3128:3133   */\n      dup2\n        /* \"#utility.yul\":3101:3134   */\n      tag_47\n      jump\t// in\n    tag_97:\n        /* \"#utility.yul\":3001:3140   */\n      swap3\n      swap2\n      pop\n      pop\n      jump\t// out\n        /* \"#utility.yul\":3146:3636   */\n    tag_19:\n        /* \"#utility.yul\":3222:3228   */\n      0x00\n        /* \"#utility.yul\":3230:3236   */\n      dup1\n        /* \"#utility.yul\":3279:3281   */\n      0x40\n        /* \"#utility.yul\":3267:3276   */\n      dup4\n        /* \"#utility.yul\":3258:3265   */\n      dup6\n        /* \"#utility.yul\":3254:3277   */\n      sub\n        /* \"#utility.yul\":3250:3282   */\n      slt\n        /* \"#utility.yul\":3247:3366   */\n      iszero\n      tag_99\n      jumpi\n        /* \"#utility.yul\":3285:3364   */\n      tag_100\n      tag_42\n      jump\t// in\n    tag_100:\n        /* \"#utility.yul\":3247:3366   */\n    tag_99:\n        /* \"#utility.yul\":3405:3406   */\n      0x00\n        /* \"#utility.yul\":3430:3491   */\n      tag_101\n        /* \"#utility.yul\":3483:3490   */\n      dup6\n        /* \"#utility.yul\":3474:3480   */\n      dup3\n        /* \"#utility.yul\":3463:3472   */\n      dup7\n        /* \"#utility.yul\":3459:3481   */\n      add\n        /* \"#utility.yul\":3430:3491   */\n      tag_46\n      jump\t// in\n    tag_101:\n        /* \"#utility.yul\":3420:3491   */\n      swap3\n      pop\n        /* \"#utility.yul\":3376:3501   */\n      pop\n        /* \"#utility.yul\":3540:3542   */\n      0x20\n        /* \"#utility.yul\":3566:3619   */\n      tag_102\n        /* \"#utility.yul\":3611:3618   */\n      dup6\n        /* \"#utility.yul\":3602:3608   */\n      dup3\n        /* \"#utility.yul\":3591:3600   */\n      dup7\n        /* \"#utility.yul\":3587:3609   */\n      add\n        /* \"#utility.yul\":3566:3619   */\n      tag_48\n      jump\t// in\n    tag_102:\n        /* \"#utility.yul\":3556:3619   */\n      swap2\n      pop\n        /* \"#utility.yul\":3511:3629   */\n      pop\n        /* \"#utility.yul\":3146:3636   */\n      swap3\n      pop\n      swap3\n      swap1\n      pop\n      jump\t// out\n        /* \"#utility.yul\":3642:3759   */\n    tag_49:\n        /* \"#utility.yul\":3751:3752   */\n      0x00\n        /* \"#utility.yul\":3748:3749   */\n      dup1\n        /* \"#utility.yul\":3741:3753   */\n      revert\n        /* \"#utility.yul\":3765:3882   */\n    tag_50:\n        /* \"#utility.yul\":3874:3875   */\n      0x00\n        /* \"#utility.yul\":3871:3872   */\n      dup1\n        /* \"#utility.yul\":3864:3876   */\n      revert\n        /* \"#utility.yul\":3888:4068   */\n    tag_51:\n        /* \"#utility.yul\":3936:4013   */\n      0x4e487b7100000000000000000000000000000000000000000000000000000000\n        /* \"#utility.yul\":3933:3934   */\n      0x00\n        /* \"#utility.yul\":3926:4014   */\n      mstore\n        /* \"#utility.yul\":4033:4037   */\n      0x41\n        /* \"#utility.yul\":4030:4031   */\n      0x04\n        /* \"#utility.yul\":4023:4038   */\n      mstore\n        /* \"#utility.yul\":4057:4061   */\n      0x24\n        /* \"#utility.yul\":4054:4055   */\n      0x00\n        /* \"#utility.yul\":4047:4062   */\n      revert\n        /* \"#utility.yul\":4074:4355   */\n    tag_52:\n        /* \"#utility.yul\":4157:4184   */\n      tag_107\n        /* \"#utility.yul\":4179:4183   */\n      dup3\n        /* \"#utility.yul\":4157:4184   */\n      tag_39\n      jump\t// in\n    tag_107:\n        /* \"#utility.yul\":4149:4155   */\n      dup2\n        /* \"#utility.yul\":4145:4185   */\n      add\n        /* \"#utility.yul\":4287:4293   */\n      dup2\n        /* \"#utility.yul\":4275:4285   */\n      dup2\n        /* \"#utility.yul\":4272:4294   */\n      lt\n        /* \"#utility.yul\":4251:4269   */\n      0xffffffffffffffff\n        /* \"#utility.yul\":4239:4249   */\n      dup3\n        /* \"#utility.yul\":4236:4270   */\n      gt\n        /* \"#utility.yul\":4233:4295   */\n      or\n        /* \"#utility.yul\":4230:4318   */\n      iszero\n      tag_108\n      jumpi\n        /* \"#utility.yul\":4298:4316   */\n      tag_109\n      tag_51\n      jump\t// in\n    tag_109:\n        /* \"#utility.yul\":4230:4318   */\n    tag_108:\n        /* \"#utility.yul\":4338:4348   */\n      dup1\n        /* \"#utility.yul\":4334:4336   */\n      0x40\n        /* \"#utility.yul\":4327:4349   */\n      mstore\n        /* \"#utility.yul\":4117:4355   */\n      pop\n        /* \"#utility.yul\":4074:4355   */\n      pop\n      pop\n      jump\t// out\n        /* \"#utility.yul\":4361:4490   */\n    tag_53:\n        /* \"#utility.yul\":4395:4401   */\n      0x00\n        /* \"#utility.yul\":4422:4442   */\n      tag_111\n      tag_41\n      jump\t// in\n    tag_111:\n        /* \"#utility.yul\":4412:4442   */\n      swap1\n      pop\n        /* \"#utility.yul\":4451:4484   */\n      tag_112\n        /* \"#utility.yul\":4479:4483   */\n      dup3\n        /* \"#utility.yul\":4471:4477   */\n      dup3\n        /* \"#utility.yul\":4451:4484   */\n      tag_52\n      jump\t// in\n    tag_112:\n        /* \"#utility.yul\":4361:4490   */\n      swap2\n      swap1\n      pop\n      jump\t// out\n        /* \"#utility.yul\":4496:4804   */\n    tag_54:\n        /* \"#utility.yul\":4558:4562   */\n      0x00\n        /* \"#utility.yul\":4648:4666   */\n      0xffffffffffffffff\n        /* \"#utility.yul\":4640:4646   */\n      dup3\n        /* \"#utility.yul\":4637:4667   */\n      gt\n        /* \"#utility.yul\":4634:4690   */\n      iszero\n      tag_114\n      jumpi\n        /* \"#utility.yul\":4670:4688   */\n      tag_115\n      tag_51\n      jump\t// in\n    tag_115:\n        /* \"#utility.yul\":4634:4690   */\n    tag_114:\n        /* \"#utility.yul\":4708:4737   */\n      tag_116\n        /* \"#utility.yul\":4730:4736   */\n      dup3\n        /* \"#utility.yul\":4708:4737   */\n      tag_39\n      jump\t// in\n    tag_116:\n        /* \"#utility.yul\":4700:4737   */\n      swap1\n      pop\n        /* \"#utility.yul\":4792:4796   */\n      0x20\n        /* \"#utility.yul\":4786:4790   */\n      dup2\n        /* \"#utility.yul\":4782:4797   */\n      add\n        /* \"#utility.yul\":4774:4797   */\n      swap1\n      pop\n        /* \"#utility.yul\":4496:4804   */\n      swap2\n      swap1\n      pop\n      jump\t// out\n        /* \"#utility.yul\":4810:5235   */\n    tag_55:\n        /* \"#utility.yul\":4888:4893   */\n      0x00\n        /* \"#utility.yul\":4913:4979   */\n      tag_118\n        /* \"#utility.yul\":4929:4978   */\n      tag_119\n        /* \"#utility.yul\":4971:4977   */\n      dup5\n        /* \"#utility.yul\":4929:4978   */\n      tag_54\n      jump\t// in\n    tag_119:\n        /* \"#utility.yul\":4913:4979   */\n      tag_53\n      jump\t// in\n    tag_118:\n        /* \"#utility.yul\":4904:4979   */\n      swap1\n      pop\n        /* \"#utility.yul\":5002:5008   */\n      dup3\n        /* \"#utility.yul\":4995:5000   */\n      dup2\n        /* \"#utility.yul\":4988:5009   */\n      mstore\n        /* \"#utility.yul\":5040:5044   */\n      0x20\n        /* \"#utility.yul\":5033:5038   */\n      dup2\n        /* \"#utility.yul\":5029:5045   */\n      add\n        /* \"#utility.yul\":5078:5081   */\n      dup5\n        /* \"#utility.yul\":5069:5075   */\n      dup5\n        /* \"#utility.yul\":5064:5067   */\n      dup5\n        /* \"#utility.yul\":5060:5076   */\n      add\n        /* \"#utility.yul\":5057:5082   */\n      gt\n        /* \"#utility.yul\":5054:5166   */\n      iszero\n      tag_120\n      jumpi\n        /* \"#utility.yul\":5085:5164   */\n      tag_121\n      tag_50\n      jump\t// in\n    tag_121:\n        /* \"#utility.yul\":5054:5166   */\n    tag_120:\n        /* \"#utility.yul\":5175:5229   */\n      tag_122\n        /* \"#utility.yul\":5222:5228   */\n      dup5\n        /* \"#utility.yul\":5217:5220   */\n      dup3\n        /* \"#utility.yul\":5212:5215   */\n      dup6\n        /* \"#utility.yul\":5175:5229   */\n      tag_38\n      jump\t// in\n    tag_122:\n        /* \"#utility.yul\":4894:5235   */\n      pop\n        /* \"#utility.yul\":4810:5235   */\n      swap4\n      swap3\n      pop\n      pop\n      pop\n      jump\t// out\n        /* \"#utility.yul\":5255:5595   */\n    tag_56:\n        /* \"#utility.yul\":5311:5316   */\n      0x00\n        /* \"#utility.yul\":5360:5363   */\n      dup3\n        /* \"#utility.yul\":5353:5357   */\n      0x1f\n        /* \"#utility.yul\":5345:5351   */\n      dup4\n        /* \"#utility.yul\":5341:5358   */\n      add\n        /* \"#utility.yul\":5337:5364   */\n      slt\n        /* \"#utility.yul\":5327:5449   */\n      tag_124\n      jumpi\n        /* \"#utility.yul\":5368:5447   */\n      tag_125\n      tag_49\n      jump\t// in\n    tag_125:\n        /* \"#utility.yul\":5327:5449   */\n    tag_124:\n        /* \"#utility.yul\":5485:5491   */\n      dup2\n        /* \"#utility.yul\":5472:5492   */\n      calldataload\n        /* \"#utility.yul\":5510:5589   */\n      tag_126\n        /* \"#utility.yul\":5585:5588   */\n      dup5\n        /* \"#utility.yul\":5577:5583   */\n      dup3\n        /* \"#utility.yul\":5570:5574   */\n      0x20\n        /* \"#utility.yul\":5562:5568   */\n      dup7\n        /* \"#utility.yul\":5558:5575   */\n      add\n        /* \"#utility.yul\":5510:5589   */\n      tag_55\n      jump\t// in\n    tag_126:\n        /* \"#utility.yul\":5501:5589   */\n      swap2\n      pop\n        /* \"#utility.yul\":5317:5595   */\n      pop\n        /* \"#utility.yul\":5255:5595   */\n      swap3\n      swap2\n      pop\n      pop\n      jump\t// out\n        /* \"#utility.yul\":5601:6110   */\n    tag_23:\n        /* \"#utility.yul\":5670:5676   */\n      0x00\n        /* \"#utility.yul\":5719:5721   */\n      0x20\n        /* \"#utility.yul\":5707:5716   */\n      dup3\n        /* \"#utility.yul\":5698:5705   */\n      dup5\n        /* \"#utility.yul\":5694:5717   */\n      sub\n        /* \"#utility.yul\":5690:5722   */\n      slt\n        /* \"#utility.yul\":5687:5806   */\n      iszero\n      tag_128\n      jumpi\n        /* \"#utility.yul\":5725:5804   */\n      tag_129\n      tag_42\n      jump\t// in\n    tag_129:\n        /* \"#utility.yul\":5687:5806   */\n    tag_128:\n        /* \"#utility.yul\":5873:5874   */\n      0x00\n        /* \"#utility.yul\":5862:5871   */\n      dup3\n        /* \"#utility.yul\":5858:5875   */\n      add\n        /* \"#utility.yul\":5845:5876   */\n      calldataload\n        /* \"#utility.yul\":5903:5921   */\n      0xffffffffffffffff\n        /* \"#utility.yul\":5895:5901   */\n      dup2\n        /* \"#utility.yul\":5892:5922   */\n      gt\n        /* \"#utility.yul\":5889:6006   */\n      iszero\n      tag_130\n      jumpi\n        /* \"#utility.yul\":5925:6004   */\n      tag_131\n      tag_43\n      jump\t// in\n    tag_131:\n        /* \"#utility.yul\":5889:6006   */\n    tag_130:\n        /* \"#utility.yul\":6030:6093   */\n      tag_132\n        /* \"#utility.yul\":6085:6092   */\n      dup5\n        /* \"#utility.yul\":6076:6082   */\n      dup3\n        /* \"#utility.yul\":6065:6074   */\n      dup6\n        /* \"#utility.yul\":6061:6083   */\n      add\n        /* \"#utility.yul\":6030:6093   */\n      tag_56\n      jump\t// in\n    tag_132:\n        /* \"#utility.yul\":6020:6093   */\n      swap2\n      pop\n        /* \"#utility.yul\":5816:6103   */\n      pop\n        /* \"#utility.yul\":5601:6110   */\n      swap3\n      swap2\n      pop\n      pop\n      jump\t// out\n        /* \"#utility.yul\":6116:6215   */\n    tag_57:\n        /* \"#utility.yul\":6168:6174   */\n      0x00\n        /* \"#utility.yul\":6202:6207   */\n      dup2\n        /* \"#utility.yul\":6196:6208   */\n      mload\n        /* \"#utility.yul\":6186:6208   */\n      swap1\n      pop\n        /* \"#utility.yul\":6116:6215   */\n      swap2\n      swap1\n      pop\n      jump\t// out\n        /* \"#utility.yul\":6221:6390   */\n    tag_58:\n        /* \"#utility.yul\":6305:6316   */\n      0x00\n        /* \"#utility.yul\":6339:6345   */\n      dup3\n        /* \"#utility.yul\":6334:6337   */\n      dup3\n        /* \"#utility.yul\":6327:6346   */\n      mstore\n        /* \"#utility.yul\":6379:6383   */\n      0x20\n        /* \"#utility.yul\":6374:6377   */\n      dup3\n        /* \"#utility.yul\":6370:6384   */\n      add\n        /* \"#utility.yul\":6355:6384   */\n      swap1\n      pop\n        /* \"#utility.yul\":6221:6390   */\n      swap3\n      swap2\n      pop\n      pop\n      jump\t// out\n        /* \"#utility.yul\":6396:6642   */\n    tag_59:\n        /* \"#utility.yul\":6477:6478   */\n      0x00\n        /* \"#utility.yul\":6487:6600   */\n    tag_136:\n        /* \"#utility.yul\":6501:6507   */\n      dup4\n        /* \"#utility.yul\":6498:6499   */\n      dup2\n        /* \"#utility.yul\":6495:6508   */\n      lt\n        /* \"#utility.yul\":6487:6600   */\n      iszero\n      tag_138\n      jumpi\n        /* \"#utility.yul\":6586:6587   */\n      dup1\n        /* \"#utility.yul\":6581:6584   */\n      dup3\n        /* \"#utility.yul\":6577:6588   */\n      add\n        /* \"#utility.yul\":6571:6589   */\n      mload\n        /* \"#utility.yul\":6567:6568   */\n      dup2\n        /* \"#utility.yul\":6562:6565   */\n      dup5\n        /* \"#utility.yul\":6558:6569   */\n      add\n        /* \"#utility.yul\":6551:6590   */\n      mstore\n        /* \"#utility.yul\":6523:6525   */\n      0x20\n        /* \"#utility.yul\":6520:6521   */\n      dup2\n        /* \"#utility.yul\":6516:6526   */\n      add\n        /* \"#utility.yul\":6511:6526   */\n      swap1\n      pop\n        /* \"#utility.yul\":6487:6600   */\n      jump(tag_136)\n    tag_138:\n        /* \"#utility.yul\":6634:6635   */\n      0x00\n        /* \"#utility.yul\":6625:6631   */\n      dup5\n        /* \"#utility.yul\":6620:6623   */\n      dup5\n        /* \"#utility.yul\":6616:6632   */\n      add\n        /* \"#utility.yul\":6609:6636   */\n      mstore\n        /* \"#utility.yul\":6458:6642   */\n      pop\n        /* \"#utility.yul\":6396:6642   */\n      pop\n      pop\n      pop\n      jump\t// out\n        /* \"#utility.yul\":6648:7025   */\n    tag_60:\n        /* \"#utility.yul\":6736:6739   */\n      0x00\n        /* \"#utility.yul\":6764:6803   */\n      tag_140\n        /* \"#utility.yul\":6797:6802   */\n      dup3\n        /* \"#utility.yul\":6764:6803   */\n      tag_57\n      jump\t// in\n    tag_140:\n        /* \"#utility.yul\":6819:6890   */\n      tag_141\n        /* \"#utility.yul\":6883:6889   */\n      dup2\n        /* \"#utility.yul\":6878:6881   */\n      dup6\n        /* \"#utility.yul\":6819:6890   */\n      tag_58\n      jump\t// in\n    tag_141:\n        /* \"#utility.yul\":6812:6890   */\n      swap4\n      pop\n        /* \"#utility.yul\":6899:6964   */\n      tag_142\n        /* \"#utility.yul\":6957:6963   */\n      dup2\n        /* \"#utility.yul\":6952:6955   */\n      dup6\n        /* \"#utility.yul\":6945:6949   */\n      0x20\n        /* \"#utility.yul\":6938:6943   */\n      dup7\n        /* \"#utility.yul\":6934:6950   */\n      add\n        /* \"#utility.yul\":6899:6964   */\n      tag_59\n      jump\t// in\n    tag_142:\n        /* \"#utility.yul\":6989:7018   */\n      tag_143\n        /* \"#utility.yul\":7011:7017   */\n      dup2\n        /* \"#utility.yul\":6989:7018   */\n      tag_39\n      jump\t// in\n    tag_143:\n        /* \"#utility.yul\":6984:6987   */\n      dup5\n        /* \"#utility.yul\":6980:7019   */\n      add\n        /* \"#utility.yul\":6973:7019   */\n      swap2\n      pop\n        /* \"#utility.yul\":6740:7025   */\n      pop\n        /* \"#utility.yul\":6648:7025   */\n      swap3\n      swap2\n      pop\n      pop\n      jump\t// out\n        /* \"#utility.yul\":7031:7344   */\n    tag_31:\n        /* \"#utility.yul\":7144:7148   */\n      0x00\n        /* \"#utility.yul\":7182:7184   */\n      0x20\n        /* \"#utility.yul\":7171:7180   */\n      dup3\n        /* \"#utility.yul\":7167:7185   */\n      add\n        /* \"#utility.yul\":7159:7185   */\n      swap1\n      pop\n        /* \"#utility.yul\":7231:7240   */\n      dup2\n        /* \"#utility.yul\":7225:7229   */\n      dup2\n        /* \"#utility.yul\":7221:7241   */\n      sub\n        /* \"#utility.yul\":7217:7218   */\n      0x00\n        /* \"#utility.yul\":7206:7215   */\n      dup4\n        /* \"#utility.yul\":7202:7219   */\n      add\n        /* \"#utility.yul\":7195:7242   */\n      mstore\n        /* \"#utility.yul\":7259:7337   */\n      tag_145\n        /* \"#utility.yul\":7332:7336   */\n      dup2\n        /* \"#utility.yul\":7323:7329   */\n      dup5\n        /* \"#utility.yul\":7259:7337   */\n      tag_60\n      jump\t// in\n    tag_145:\n        /* \"#utility.yul\":7251:7337   */\n      swap1\n      pop\n        /* \"#utility.yul\":7031:7344   */\n      swap3\n      swap2\n      pop\n      pop\n      jump\t// out\n\n    auxdata: 0xa26469706673582212206fc226e0c22858d05ebc2c2da7745755ed182d7c309730e5ec9c007fbd39468b64736f6c63430008160033\n}\n",
				"bytecode": {
					"linkReferences": {},
					"object": "6080604052610559806100115f395ff3fe608060405260043610610037575f3560e01c806312065fe01461007d5780637b1a4909146100a757806389318a21146100c35761003e565b3661003e57005b7f89e8e1406eb88cbdf591b5eeb74b6d10cbda6e6ff4190b83ed226e54a1e6c4fb33345f366040516100739493929190610219565b60405180910390a1005b348015610088575f80fd5b506100916100df565b60405161009e9190610257565b60405180910390f35b6100c160048036038101906100bc91906102e6565b6100e6565b005b6100dd60048036038101906100d89190610442565b61012e565b005b5f47905090565b8173ffffffffffffffffffffffffffffffffffffffff166108fc8290811502906040515f60405180830381858888f19350505050158015610129573d5f803e3d5ffd5b505050565b7fcf34ef537ac33ee1ac626ca1587a0a7e8e51561e5514f8cb36afa1c5102b3bab8160405161015d9190610503565b60405180910390a150565b5f73ffffffffffffffffffffffffffffffffffffffff82169050919050565b5f61019182610168565b9050919050565b6101a181610187565b82525050565b5f819050919050565b6101b9816101a7565b82525050565b5f82825260208201905092915050565b828183375f83830152505050565b5f601f19601f8301169050919050565b5f6101f883856101bf565b93506102058385846101cf565b61020e836101dd565b840190509392505050565b5f60608201905061022c5f830187610198565b61023960208301866101b0565b818103604083015261024c8184866101ed565b905095945050505050565b5f60208201905061026a5f8301846101b0565b92915050565b5f604051905090565b5f80fd5b5f80fd5b5f61028b82610168565b9050919050565b61029b81610281565b81146102a5575f80fd5b50565b5f813590506102b681610292565b92915050565b6102c5816101a7565b81146102cf575f80fd5b50565b5f813590506102e0816102bc565b92915050565b5f80604083850312156102fc576102fb610279565b5b5f610309858286016102a8565b925050602061031a858286016102d2565b9150509250929050565b5f80fd5b5f80fd5b7f4e487b71000000000000000000000000000000000000000000000000000000005f52604160045260245ffd5b610362826101dd565b810181811067ffffffffffffffff821117156103815761038061032c565b5b80604052505050565b5f610393610270565b905061039f8282610359565b919050565b5f67ffffffffffffffff8211156103be576103bd61032c565b5b6103c7826101dd565b9050602081019050919050565b5f6103e66103e1846103a4565b61038a565b90508281526020810184848401111561040257610401610328565b5b61040d8482856101cf565b509392505050565b5f82601f83011261042957610428610324565b5b81356104398482602086016103d4565b91505092915050565b5f6020828403121561045757610456610279565b5b5f82013567ffffffffffffffff8111156104745761047361027d565b5b61048084828501610415565b91505092915050565b5f81519050919050565b5f82825260208201905092915050565b5f5b838110156104c05780820151818401526020810190506104a5565b5f8484015250505050565b5f6104d582610489565b6104df8185610493565b93506104ef8185602086016104a3565b6104f8816101dd565b840191505092915050565b5f6020820190508181035f83015261051b81846104cb565b90509291505056fea26469706673582212206fc226e0c22858d05ebc2c2da7745755ed182d7c309730e5ec9c007fbd39468b64736f6c63430008160033",
					"opcodes": "PUSH1 0x80 PUSH1 0x40 MSTORE PUSH2 0x559 DUP1 PUSH2 0x11 PUSH0 CODECOPY PUSH0 RETURN INVALID PUSH1 0x80 PUSH1 0x40 MSTORE PUSH1 0x4 CALLDATASIZE LT PUSH2 0x37 JUMPI PUSH0 CALLDATALOAD PUSH1 0xE0 SHR DUP1 PUSH4 0x12065FE0 EQ PUSH2 0x7D JUMPI DUP1 PUSH4 0x7B1A4909 EQ PUSH2 0xA7 JUMPI DUP1 PUSH4 0x89318A21 EQ PUSH2 0xC3 JUMPI PUSH2 0x3E JUMP JUMPDEST CALLDATASIZE PUSH2 0x3E JUMPI STOP JUMPDEST PUSH32 0x89E8E1406EB88CBDF591B5EEB74B6D10CBDA6E6FF4190B83ED226E54A1E6C4FB CALLER CALLVALUE PUSH0 CALLDATASIZE PUSH1 0x40 MLOAD PUSH2 0x73 SWAP5 SWAP4 SWAP3 SWAP2 SWAP1 PUSH2 0x219 JUMP JUMPDEST PUSH1 0x40 MLOAD DUP1 SWAP2 SUB SWAP1 LOG1 STOP JUMPDEST CALLVALUE DUP1 ISZERO PUSH2 0x88 JUMPI PUSH0 DUP1 REVERT JUMPDEST POP PUSH2 0x91 PUSH2 0xDF JUMP JUMPDEST PUSH1 0x40 MLOAD PUSH2 0x9E SWAP2 SWAP1 PUSH2 0x257 JUMP JUMPDEST PUSH1 0x40 MLOAD DUP1 SWAP2 SUB SWAP1 RETURN JUMPDEST PUSH2 0xC1 PUSH1 0x4 DUP1 CALLDATASIZE SUB DUP2 ADD SWAP1 PUSH2 0xBC SWAP2 SWAP1 PUSH2 0x2E6 JUMP JUMPDEST PUSH2 0xE6 JUMP JUMPDEST STOP JUMPDEST PUSH2 0xDD PUSH1 0x4 DUP1 CALLDATASIZE SUB DUP2 ADD SWAP1 PUSH2 0xD8 SWAP2 SWAP1 PUSH2 0x442 JUMP JUMPDEST PUSH2 0x12E JUMP JUMPDEST STOP JUMPDEST PUSH0 SELFBALANCE SWAP1 POP SWAP1 JUMP JUMPDEST DUP2 PUSH20 0xFFFFFFFFFFFFFFFFFFFFFFFFFFFFFFFFFFFFFFFF AND PUSH2 0x8FC DUP3 SWAP1 DUP2 ISZERO MUL SWAP1 PUSH1 0x40 MLOAD PUSH0 PUSH1 0x40 MLOAD DUP1 DUP4 SUB DUP2 DUP6 DUP9 DUP9 CALL SWAP4 POP POP POP POP ISZERO DUP1 ISZERO PUSH2 0x129 JUMPI RETURNDATASIZE PUSH0 DUP1 RETURNDATACOPY RETURNDATASIZE PUSH0 REVERT JUMPDEST POP POP POP JUMP JUMPDEST PUSH32 0xCF34EF537AC33EE1AC626CA1587A0A7E8E51561E5514F8CB36AFA1C5102B3BAB DUP2 PUSH1 0x40 MLOAD PUSH2 0x15D SWAP2 SWAP1 PUSH2 0x503 JUMP JUMPDEST PUSH1 0x40 MLOAD DUP1 SWAP2 SUB SWAP1 LOG1 POP JUMP JUMPDEST PUSH0 PUSH20 0xFFFFFFFFFFFFFFFFFFFFFFFFFFFFFFFFFFFFFFFF DUP3 AND SWAP1 POP SWAP2 SWAP1 POP JUMP JUMPDEST PUSH0 PUSH2 0x191 DUP3 PUSH2 0x168 JUMP JUMPDEST SWAP1 POP SWAP2 SWAP1 POP JUMP JUMPDEST PUSH2 0x1A1 DUP2 PUSH2 0x187 JUMP JUMPDEST DUP3 MSTORE POP POP JUMP JUMPDEST PUSH0 DUP2 SWAP1 POP SWAP2 SWAP1 POP JUMP JUMPDEST PUSH2 0x1B9 DUP2 PUSH2 0x1A7 JUMP JUMPDEST DUP3 MSTORE POP POP JUMP JUMPDEST PUSH0 DUP3 DUP3 MSTORE PUSH1 0x20 DUP3 ADD SWAP1 POP SWAP3 SWAP2 POP POP JUMP JUMPDEST DUP3 DUP2 DUP4 CALLDATACOPY PUSH0 DUP4 DUP4 ADD MSTORE POP POP POP JUMP JUMPDEST PUSH0 PUSH1 0x1F NOT PUSH1 0x1F DUP4 ADD AND SWAP1 POP SWAP2 SWAP1 POP JUMP JUMPDEST PUSH0 PUSH2 0x1F8 DUP4 DUP6 PUSH2 0x1BF JUMP JUMPDEST SWAP4 POP PUSH2 0x205 DUP4 DUP6 DUP5 PUSH2 0x1CF JUMP JUMPDEST PUSH2 0x20E DUP4 PUSH2 0x1DD JUMP JUMPDEST DUP5 ADD SWAP1 POP SWAP4 SWAP3 POP POP POP JUMP JUMPDEST PUSH0 PUSH1 0x60 DUP3 ADD SWAP1 POP PUSH2 0x22C PUSH0 DUP4 ADD DUP8 PUSH2 0x198 JUMP JUMPDEST PUSH2 0x239 PUSH1 0x20 DUP4 ADD DUP7 PUSH2 0x1B0 JUMP JUMPDEST DUP2 DUP2 SUB PUSH1 0x40 DUP4 ADD MSTORE PUSH2 0x24C DUP2 DUP5 DUP7 PUSH2 0x1ED JUMP JUMPDEST SWAP1 POP SWAP6 SWAP5 POP POP POP POP POP JUMP JUMPDEST PUSH0 PUSH1 0x20 DUP3 ADD SWAP1 POP PUSH2 0x26A PUSH0 DUP4 ADD DUP5 PUSH2 0x1B0 JUMP JUMPDEST SWAP3 SWAP2 POP POP JUMP JUMPDEST PUSH0 PUSH1 0x40 MLOAD SWAP1 POP SWAP1 JUMP JUMPDEST PUSH0 DUP1 REVERT JUMPDEST PUSH0 DUP1 REVERT JUMPDEST PUSH0 PUSH2 0x28B DUP3 PUSH2 0x168 JUMP JUMPDEST SWAP1 POP SWAP2 SWAP1 POP JUMP JUMPDEST PUSH2 0x29B DUP2 PUSH2 0x281 JUMP JUMPDEST DUP2 EQ PUSH2 0x2A5 JUMPI PUSH0 DUP1 REVERT JUMPDEST POP JUMP JUMPDEST PUSH0 DUP2 CALLDATALOAD SWAP1 POP PUSH2 0x2B6 DUP2 PUSH2 0x292 JUMP JUMPDEST SWAP3 SWAP2 POP POP JUMP JUMPDEST PUSH2 0x2C5 DUP2 PUSH2 0x1A7 JUMP JUMPDEST DUP2 EQ PUSH2 0x2CF JUMPI PUSH0 DUP1 REVERT JUMPDEST POP JUMP JUMPDEST PUSH0 DUP2 CALLDATALOAD SWAP1 POP PUSH2 0x2E0 DUP2 PUSH2 0x2BC JUMP JUMPDEST SWAP3 SWAP2 POP POP JUMP JUMPDEST PUSH0 DUP1 PUSH1 0x40 DUP4 DUP6 SUB SLT ISZERO PUSH2 0x2FC JUMPI PUSH2 0x2FB PUSH2 0x279 JUMP JUMPDEST JUMPDEST PUSH0 PUSH2 0x309 DUP6 DUP3 DUP7 ADD PUSH2 0x2A8 JUMP JUMPDEST SWAP3 POP POP PUSH1 0x20 PUSH2 0x31A DUP6 DUP3 DUP7 ADD PUSH2 0x2D2 JUMP JUMPDEST SWAP2 POP POP SWAP3 POP SWAP3 SWAP1 POP JUMP JUMPDEST PUSH0 DUP1 REVERT JUMPDEST PUSH0 DUP1 REVERT JUMPDEST PUSH32 0x4E487B7100000000000000000000000000000000000000000000000000000000 PUSH0 MSTORE PUSH1 0x41 PUSH1 0x4 MSTORE PUSH1 0x24 PUSH0 REVERT JUMPDEST PUSH2 0x362 DUP3 PUSH2 0x1DD JUMP JUMPDEST DUP2 ADD DUP2 DUP2 LT PUSH8 0xFFFFFFFFFFFFFFFF DUP3 GT OR ISZERO PUSH2 0x381 JUMPI PUSH2 0x380 PUSH2 0x32C JUMP JUMPDEST JUMPDEST DUP1 PUSH1 0x40 MSTORE POP POP POP JUMP JUMPDEST PUSH0 PUSH2 0x393 PUSH2 0x270 JUMP JUMPDEST SWAP1 POP PUSH2 0x39F DUP3 DUP3 PUSH2 0x359 JUMP JUMPDEST SWAP2 SWAP1 POP JUMP JUMPDEST PUSH0 PUSH8 0xFFFFFFFFFFFFFFFF DUP3 GT ISZERO PUSH2 0x3BE JUMPI PUSH2 0x3BD PUSH2 0x32C JUMP JUMPDEST JUMPDEST PUSH2 0x3C7 DUP3 PUSH2 0x1DD JUMP JUMPDEST SWAP1 POP PUSH1 0x20 DUP2 ADD SWAP1 POP SWAP2 SWAP1 POP JUMP JUMPDEST PUSH0 PUSH2 0x3E6 PUSH2 0x3E1 DUP5 PUSH2 0x3A4 JUMP JUMPDEST PUSH2 0x38A JUMP JUMPDEST SWAP1 POP DUP3 DUP2 MSTORE PUSH1 0x20 DUP2 ADD DUP5 DUP5 DUP5 ADD GT ISZERO PUSH2 0x402 JUMPI PUSH2 0x401 PUSH2 0x328 JUMP JUMPDEST JUMPDEST PUSH2 0x40D DUP5 DUP3 DUP6 PUSH2 0x1CF JUMP JUMPDEST POP SWAP4 SWAP3 POP POP POP JUMP JUMPDEST PUSH0 DUP3 PUSH1 0x1F DUP4 ADD SLT PUSH2 0x429 JUMPI PUSH2 0x428 PUSH2 0x324 JUMP JUMPDEST JUMPDEST DUP2 CALLDATALOAD PUSH2 0x439 DUP5 DUP3 PUSH1 0x20 DUP7 ADD PUSH2 0x3D4 JUMP JUMPDEST SWAP2 POP POP SWAP3 SWAP2 POP POP JUMP JUMPDEST PUSH0 PUSH1 0x20 DUP3 DUP5 SUB SLT ISZERO PUSH2 0x457 JUMPI PUSH2 0x456 PUSH2 0x279 JUMP JUMPDEST JUMPDEST PUSH0 DUP3 ADD CALLDATALOAD PUSH8 0xFFFFFFFFFFFFFFFF DUP2 GT ISZERO PUSH2 0x474 JUMPI PUSH2 0x473 PUSH2 0x27D JUMP JUMPDEST JUMPDEST PUSH2 0x480 DUP5 DUP3 DUP6 ADD PUSH2 0x415 JUMP JUMPDEST SWAP2 POP POP SWAP3 SWAP2 POP POP JUMP JUMPDEST PUSH0 DUP2 MLOAD SWAP1 POP SWAP2 SWAP1 POP JUMP JUMPDEST PUSH0 DUP3 DUP3 MSTORE PUSH1 0x20 DUP3 ADD SWAP1 POP SWAP3 SWAP2 POP POP JUMP JUMPDEST PUSH0 JUMPDEST DUP4 DUP2 LT ISZERO PUSH2 0x4C0 JUMPI DUP1 DUP3 ADD MLOAD DUP2 DUP5 ADD MSTORE PUSH1 0x20 DUP2 ADD SWAP1 POP PUSH2 0x4A5 JUMP JUMPDEST PUSH0 DUP5 DUP5 ADD MSTORE POP POP POP POP JUMP JUMPDEST PUSH0 PUSH2 0x4D5 DUP3 PUSH2 0x489 JUMP JUMPDEST PUSH2 0x4DF DUP2 DUP6 PUSH2 0x493 JUMP JUMPDEST SWAP4 POP PUSH2 0x4EF DUP2 DUP6 PUSH1 0x20 DUP7 ADD PUSH2 0x4A3 JUMP JUMPDEST PUSH2 0x4F8 DUP2 PUSH2 0x1DD JUMP JUMPDEST DUP5 ADD SWAP2 POP POP SWAP3 SWAP2 POP POP JUMP JUMPDEST PUSH0 PUSH1 0x20 DUP3 ADD SWAP1 POP DUP2 DUP2 SUB PUSH0 DUP4 ADD MSTORE PUSH2 0x51B DUP2 DUP5 PUSH2 0x4CB JUMP JUMPDEST SWAP1 POP SWAP3 SWAP2 POP POP JUMP INVALID LOG2 PUSH5 0x6970667358 0x22 SLT KECCAK256 PUSH16 0xC226E0C22858D05EBC2C2DA7745755ED XOR 0x2D PUSH29 0x309730E5EC9C007FBD39468B64736F6C63430008160033000000000000 "
				},
				"gasEstimates": {
					"creation": {
						"codeDepositCost": "273800",
						"executionCost": "286",
						"totalCost": "274086"
					},
					"external": {
						"": "infinite",
						"getBalance()": "312",
						"getETH(string)": "infinite",
						"transferETH(address,uint256)": "infinite"
					}
				},
				"methodIdentifiers": {
					"getBalance()": "12065fe0",
					"getETH(string)": "89318a21",
					"transferETH(address,uint256)": "7b1a4909"
				}
			},
			"storageLayout": {
				"storage": [],
				"types": null
			},
			"userdoc": {
				"kind": "user",
				"methods": {},
				"version": 1
			}
		}
	}
}