{
  "contractName": "Gym",
  "abi": [
    {
      "inputs": [],
      "stateMutability": "nonpayable",
      "type": "constructor"
    },
    {
      "inputs": [
        {
          "internalType": "address",
          "name": "spender",
          "type": "address"
        },
        {
          "internalType": "uint256",
          "name": "allowance",
          "type": "uint256"
        },
        {
          "internalType": "uint256",
          "name": "needed",
          "type": "uint256"
        }
      ],
      "name": "ERC20InsufficientAllowance",
      "type": "error"
    },
    {
      "inputs": [
        {
          "internalType": "address",
          "name": "sender",
          "type": "address"
        },
        {
          "internalType": "uint256",
          "name": "balance",
          "type": "uint256"
        },
        {
          "internalType": "uint256",
          "name": "needed",
          "type": "uint256"
        }
      ],
      "name": "ERC20InsufficientBalance",
      "type": "error"
    },
    {
      "inputs": [
        {
          "internalType": "address",
          "name": "approver",
          "type": "address"
        }
      ],
      "name": "ERC20InvalidApprover",
      "type": "error"
    },
    {
      "inputs": [
        {
          "internalType": "address",
          "name": "receiver",
          "type": "address"
        }
      ],
      "name": "ERC20InvalidReceiver",
      "type": "error"
    },
    {
      "inputs": [
        {
          "internalType": "address",
          "name": "sender",
          "type": "address"
        }
      ],
      "name": "ERC20InvalidSender",
      "type": "error"
    },
    {
      "inputs": [
        {
          "internalType": "address",
          "name": "spender",
          "type": "address"
        }
      ],
      "name": "ERC20InvalidSpender",
      "type": "error"
    },
    {
      "inputs": [
        {
          "internalType": "uint256",
          "name": "value",
          "type": "uint256"
        },
        {
          "internalType": "uint256",
          "name": "length",
          "type": "uint256"
        }
      ],
      "name": "StringsInsufficientHexLength",
      "type": "error"
    },
    {
      "anonymous": false,
      "inputs": [
        {
          "indexed": true,
          "internalType": "address",
          "name": "owner",
          "type": "address"
        },
        {
          "indexed": true,
          "internalType": "address",
          "name": "spender",
          "type": "address"
        },
        {
          "indexed": false,
          "internalType": "uint256",
          "name": "value",
          "type": "uint256"
        }
      ],
      "name": "Approval",
      "type": "event"
    },
    {
      "anonymous": false,
      "inputs": [
        {
          "indexed": true,
          "internalType": "address",
          "name": "from",
          "type": "address"
        },
        {
          "indexed": true,
          "internalType": "address",
          "name": "to",
          "type": "address"
        },
        {
          "indexed": false,
          "internalType": "uint256",
          "name": "value",
          "type": "uint256"
        }
      ],
      "name": "Transfer",
      "type": "event"
    },
    {
      "inputs": [
        {
          "internalType": "address",
          "name": "owner",
          "type": "address"
        },
        {
          "internalType": "address",
          "name": "spender",
          "type": "address"
        }
      ],
      "name": "allowance",
      "outputs": [
        {
          "internalType": "uint256",
          "name": "",
          "type": "uint256"
        }
      ],
      "stateMutability": "view",
      "type": "function",
      "constant": true
    },
    {
      "inputs": [
        {
          "internalType": "address",
          "name": "spender",
          "type": "address"
        },
        {
          "internalType": "uint256",
          "name": "value",
          "type": "uint256"
        }
      ],
      "name": "approve",
      "outputs": [
        {
          "internalType": "bool",
          "name": "",
          "type": "bool"
        }
      ],
      "stateMutability": "nonpayable",
      "type": "function"
    },
    {
      "inputs": [
        {
          "internalType": "address",
          "name": "account",
          "type": "address"
        }
      ],
      "name": "balanceOf",
      "outputs": [
        {
          "internalType": "uint256",
          "name": "",
          "type": "uint256"
        }
      ],
      "stateMutability": "view",
      "type": "function",
      "constant": true
    },
    {
      "inputs": [],
      "name": "decimals",
      "outputs": [
        {
          "internalType": "uint8",
          "name": "",
          "type": "uint8"
        }
      ],
      "stateMutability": "view",
      "type": "function",
      "constant": true
    },
    {
      "inputs": [],
      "name": "name",
      "outputs": [
        {
          "internalType": "string",
          "name": "",
          "type": "string"
        }
      ],
      "stateMutability": "view",
      "type": "function",
      "constant": true
    },
    {
      "inputs": [],
      "name": "symbol",
      "outputs": [
        {
          "internalType": "string",
          "name": "",
          "type": "string"
        }
      ],
      "stateMutability": "view",
      "type": "function",
      "constant": true
    },
    {
      "inputs": [],
      "name": "totalSupply",
      "outputs": [
        {
          "internalType": "uint256",
          "name": "",
          "type": "uint256"
        }
      ],
      "stateMutability": "view",
      "type": "function",
      "constant": true
    },
    {
      "inputs": [
        {
          "internalType": "address",
          "name": "to",
          "type": "address"
        },
        {
          "internalType": "uint256",
          "name": "value",
          "type": "uint256"
        }
      ],
      "name": "transfer",
      "outputs": [
        {
          "internalType": "bool",
          "name": "",
          "type": "bool"
        }
      ],
      "stateMutability": "nonpayable",
      "type": "function"
    },
    {
      "inputs": [
        {
          "internalType": "address",
          "name": "from",
          "type": "address"
        },
        {
          "internalType": "address",
          "name": "to",
          "type": "address"
        },
        {
          "internalType": "uint256",
          "name": "value",
          "type": "uint256"
        }
      ],
      "name": "transferFrom",
      "outputs": [
        {
          "internalType": "bool",
          "name": "",
          "type": "bool"
        }
      ],
      "stateMutability": "nonpayable",
      "type": "function"
    },
    {
      "inputs": [],
      "name": "_mintToken",
      "outputs": [],
      "stateMutability": "nonpayable",
      "type": "function"
    }
  ],
  "bytecode": "0x608060405234801562000010575f80fd5b506200003a3073ffffffffffffffffffffffffffffffffffffffff1660146200018f60201b60201c565b73__MyStringUtils_________________________63d824ccf373__MyStringUtils_________________________631dcd9b55620000973073ffffffffffffffffffffffffffffffffffffffff1660146200018f60201b60201c565b600260076040518463ffffffff1660e01b8152600401620000bb9392919062000514565b5f60405180830381865af4158015620000d6573d5f803e3d5ffd5b505050506040513d5f823e3d601f19601f82011682018060405250810190620001009190620006a1565b6040518263ffffffff1660e01b81526004016200011e91906200073e565b5f60405180830381865af415801562000139573d5f803e3d5ffd5b505050506040513d5f823e3d601f19601f82011682018060405250810190620001639190620006a1565b816003908162000174919062000990565b50806004908162000186919062000990565b50505062000bba565b60605f8390505f6002846002620001a7919062000aa1565b620001b3919062000aeb565b67ffffffffffffffff811115620001cf57620001ce6200056f565b5b6040519080825280601f01601f191660200182016040528015620002025781602001600182028036833780820191505090505b5090507f3000000000000000000000000000000000000000000000000000000000000000815f815181106200023c576200023b62000b25565b5b60200101907effffffffffffffffffffffffffffffffffffffffffffffffffffffffffffff191690815f1a9053507f780000000000000000000000000000000000000000000000000000000000000081600181518110620002a257620002a162000b25565b5b60200101907effffffffffffffffffffffffffffffffffffffffffffffffffffffffffffff191690815f1a9053505f6001856002620002e2919062000aa1565b620002ee919062000aeb565b90505b600181111562000397577f3031323334353637383961626364656600000000000000000000000000000000600f84166010811062000334576200033362000b25565b5b1a60f81b8282815181106200034e576200034d62000b25565b5b60200101907effffffffffffffffffffffffffffffffffffffffffffffffffffffffffffff191690815f1a905350600483901c9250806200038f9062000b52565b9050620002f1565b505f8214620003e15784846040517fe22e27eb000000000000000000000000000000000000000000000000000000008152600401620003d892919062000b8f565b60405180910390fd5b809250505092915050565b5f81519050919050565b5f82825260208201905092915050565b5f5b838110156200042557808201518184015260208101905062000408565b5f8484015250505050565b5f601f19601f8301169050919050565b5f6200044c82620003ec565b620004588185620003f6565b93506200046a81856020860162000406565b620004758162000430565b840191505092915050565b5f819050919050565b5f819050919050565b5f819050919050565b5f620004bb620004b5620004af8462000480565b62000492565b62000489565b9050919050565b620004cd816200049b565b82525050565b5f819050919050565b5f620004fc620004f6620004f084620004d3565b62000492565b62000489565b9050919050565b6200050e81620004dc565b82525050565b5f6060820190508181035f8301526200052e818662000440565b90506200053f6020830185620004c2565b6200054e604083018462000503565b949350505050565b5f604051905090565b5f80fd5b5f80fd5b5f80fd5b5f80fd5b7f4e487b71000000000000000000000000000000000000000000000000000000005f52604160045260245ffd5b620005a78262000430565b810181811067ffffffffffffffff82111715620005c957620005c86200056f565b5b80604052505050565b5f620005dd62000556565b9050620005eb82826200059c565b919050565b5f67ffffffffffffffff8211156200060d576200060c6200056f565b5b620006188262000430565b9050602081019050919050565b5f6200063b6200063584620005f0565b620005d2565b9050828152602081018484840111156200065a57620006596200056b565b5b6200066784828562000406565b509392505050565b5f82601f83011262000686576200068562000567565b5b81516200069884826020860162000625565b91505092915050565b5f60208284031215620006b957620006b86200055f565b5b5f82015167ffffffffffffffff811115620006d957620006d862000563565b5b620006e7848285016200066f565b91505092915050565b7f4b4647796d2d00000000000000000000000000000000000000000000000000005f82015250565b5f62000726600683620003f6565b91506200073382620006f0565b602082019050919050565b5f6040820190508181035f830152620007578162000718565b905081810360208301526200076d818462000440565b905092915050565b7f4e487b71000000000000000000000000000000000000000000000000000000005f52602260045260245ffd5b5f6002820490506001821680620007ba57607f821691505b602082108103620007d057620007cf62000775565b5b50919050565b5f819050815f5260205f209050919050565b5f6020601f8301049050919050565b5f82821b905092915050565b5f60088302620008347fffffffffffffffffffffffffffffffffffffffffffffffffffffffffffffffff82620007f7565b620008408683620007f7565b95508019841693508086168417925050509392505050565b5f62000878620008726200086c8462000489565b62000492565b62000489565b9050919050565b5f819050919050565b620008938362000858565b620008ab620008a2826200087f565b84845462000803565b825550505050565b5f90565b620008c1620008b3565b620008ce81848462000888565b505050565b5b81811015620008f557620008e95f82620008b7565b600181019050620008d4565b5050565b601f82111562000944576200090e81620007d6565b6200091984620007e8565b8101602085101562000929578190505b620009416200093885620007e8565b830182620008d3565b50505b505050565b5f82821c905092915050565b5f620009665f198460080262000949565b1980831691505092915050565b5f62000980838362000955565b9150826002028217905092915050565b6200099b82620003ec565b67ffffffffffffffff811115620009b757620009b66200056f565b5b620009c38254620007a2565b620009d0828285620008f9565b5f60209050601f83116001811462000a06575f8415620009f1578287015190505b620009fd858262000973565b86555062000a6c565b601f19841662000a1686620007d6565b5f5b8281101562000a3f5784890151825560018201915060208501945060208101905062000a18565b8683101562000a5f578489015162000a5b601f89168262000955565b8355505b6001600288020188555050505b505050505050565b7f4e487b71000000000000000000000000000000000000000000000000000000005f52601160045260245ffd5b5f62000aad8262000489565b915062000aba8362000489565b925082820262000aca8162000489565b9150828204841483151762000ae45762000ae362000a74565b5b5092915050565b5f62000af78262000489565b915062000b048362000489565b925082820190508082111562000b1f5762000b1e62000a74565b5b92915050565b7f4e487b71000000000000000000000000000000000000000000000000000000005f52603260045260245ffd5b5f62000b5e8262000489565b91505f820362000b735762000b7262000a74565b5b600182039050919050565b62000b898162000489565b82525050565b5f60408201905062000ba45f83018562000b7e565b62000bb3602083018462000b7e565b9392505050565b610ea38062000bc85f395ff3fe608060405234801561000f575f80fd5b506004361061009c575f3560e01c806342372e101161006457806342372e101461015a57806370a082311461016457806395d89b4114610194578063a9059cbb146101b2578063dd62ed3e146101e25761009c565b806306fdde03146100a0578063095ea7b3146100be57806318160ddd146100ee57806323b872dd1461010c578063313ce5671461013c575b5f80fd5b6100a8610212565b6040516100b59190610b1c565b60405180910390f35b6100d860048036038101906100d39190610bcd565b6102a2565b6040516100e59190610c25565b60405180910390f35b6100f66102c4565b6040516101039190610c4d565b60405180910390f35b61012660048036038101906101219190610c66565b6102cd565b6040516101339190610c25565b60405180910390f35b6101446102fb565b6040516101519190610cd1565b60405180910390f35b610162610303565b005b61017e60048036038101906101799190610cea565b610317565b60405161018b9190610c4d565b60405180910390f35b61019c61035c565b6040516101a99190610b1c565b60405180910390f35b6101cc60048036038101906101c79190610bcd565b6103ec565b6040516101d99190610c25565b60405180910390f35b6101fc60048036038101906101f79190610d15565b61040e565b6040516102099190610c4d565b60405180910390f35b60606003805461022190610d80565b80601f016020809104026020016040519081016040528092919081815260200182805461024d90610d80565b80156102985780601f1061026f57610100808354040283529160200191610298565b820191905f5260205f20905b81548152906001019060200180831161027b57829003601f168201915b5050505050905090565b5f806102ac610490565b90506102b9818585610497565b600191505092915050565b5f600254905090565b5f806102d7610490565b90506102e48582856104a9565b6102ef85858561053b565b60019150509392505050565b5f6012905090565b61031533678ac7230489e8000061062b565b565b5f805f8373ffffffffffffffffffffffffffffffffffffffff1673ffffffffffffffffffffffffffffffffffffffff1681526020019081526020015f20549050919050565b60606004805461036b90610d80565b80601f016020809104026020016040519081016040528092919081815260200182805461039790610d80565b80156103e25780601f106103b9576101008083540402835291602001916103e2565b820191905f5260205f20905b8154815290600101906020018083116103c557829003601f168201915b5050505050905090565b5f806103f6610490565b905061040381858561053b565b600191505092915050565b5f60015f8473ffffffffffffffffffffffffffffffffffffffff1673ffffffffffffffffffffffffffffffffffffffff1681526020019081526020015f205f8373ffffffffffffffffffffffffffffffffffffffff1673ffffffffffffffffffffffffffffffffffffffff1681526020019081526020015f2054905092915050565b5f33905090565b6104a483838360016106aa565b505050565b5f6104b4848461040e565b90507fffffffffffffffffffffffffffffffffffffffffffffffffffffffffffffffff81146105355781811015610526578281836040517ffb8f41b200000000000000000000000000000000000000000000000000000000815260040161051d93929190610dbf565b60405180910390fd5b61053484848484035f6106aa565b5b50505050565b5f73ffffffffffffffffffffffffffffffffffffffff168373ffffffffffffffffffffffffffffffffffffffff16036105ab575f6040517f96c6fd1e0000000000000000000000000000000000000000000000000000000081526004016105a29190610df4565b60405180910390fd5b5f73ffffffffffffffffffffffffffffffffffffffff168273ffffffffffffffffffffffffffffffffffffffff160361061b575f6040517fec442f050000000000000000000000000000000000000000000000000000000081526004016106129190610df4565b60405180910390fd5b610626838383610879565b505050565b5f73ffffffffffffffffffffffffffffffffffffffff168273ffffffffffffffffffffffffffffffffffffffff160361069b575f6040517fec442f050000000000000000000000000000000000000000000000000000000081526004016106929190610df4565b60405180910390fd5b6106a65f8383610879565b5050565b5f73ffffffffffffffffffffffffffffffffffffffff168473ffffffffffffffffffffffffffffffffffffffff160361071a575f6040517fe602df050000000000000000000000000000000000000000000000000000000081526004016107119190610df4565b60405180910390fd5b5f73ffffffffffffffffffffffffffffffffffffffff168373ffffffffffffffffffffffffffffffffffffffff160361078a575f6040517f94280d620000000000000000000000000000000000000000000000000000000081526004016107819190610df4565b60405180910390fd5b8160015f8673ffffffffffffffffffffffffffffffffffffffff1673ffffffffffffffffffffffffffffffffffffffff1681526020019081526020015f205f8573ffffffffffffffffffffffffffffffffffffffff1673ffffffffffffffffffffffffffffffffffffffff1681526020019081526020015f20819055508015610873578273ffffffffffffffffffffffffffffffffffffffff168473ffffffffffffffffffffffffffffffffffffffff167f8c5be1e5ebec7d5bd14f71427d1e84f3dd0314c0f7b2291e5b200ac8c7c3b9258460405161086a9190610c4d565b60405180910390a35b50505050565b5f73ffffffffffffffffffffffffffffffffffffffff168373ffffffffffffffffffffffffffffffffffffffff16036108c9578060025f8282546108bd9190610e3a565b92505081905550610997565b5f805f8573ffffffffffffffffffffffffffffffffffffffff1673ffffffffffffffffffffffffffffffffffffffff1681526020019081526020015f2054905081811015610952578381836040517fe450d38c00000000000000000000000000000000000000000000000000000000815260040161094993929190610dbf565b60405180910390fd5b8181035f808673ffffffffffffffffffffffffffffffffffffffff1673ffffffffffffffffffffffffffffffffffffffff1681526020019081526020015f2081905550505b5f73ffffffffffffffffffffffffffffffffffffffff168273ffffffffffffffffffffffffffffffffffffffff16036109de578060025f8282540392505081905550610a28565b805f808473ffffffffffffffffffffffffffffffffffffffff1673ffffffffffffffffffffffffffffffffffffffff1681526020019081526020015f205f82825401925050819055505b8173ffffffffffffffffffffffffffffffffffffffff168373ffffffffffffffffffffffffffffffffffffffff167fddf252ad1be2c89b69c2b068fc378daa952ba7f163c4a11628f55a4df523b3ef83604051610a859190610c4d565b60405180910390a3505050565b5f81519050919050565b5f82825260208201905092915050565b5f5b83811015610ac9578082015181840152602081019050610aae565b5f8484015250505050565b5f601f19601f8301169050919050565b5f610aee82610a92565b610af88185610a9c565b9350610b08818560208601610aac565b610b1181610ad4565b840191505092915050565b5f6020820190508181035f830152610b348184610ae4565b905092915050565b5f80fd5b5f73ffffffffffffffffffffffffffffffffffffffff82169050919050565b5f610b6982610b40565b9050919050565b610b7981610b5f565b8114610b83575f80fd5b50565b5f81359050610b9481610b70565b92915050565b5f819050919050565b610bac81610b9a565b8114610bb6575f80fd5b50565b5f81359050610bc781610ba3565b92915050565b5f8060408385031215610be357610be2610b3c565b5b5f610bf085828601610b86565b9250506020610c0185828601610bb9565b9150509250929050565b5f8115159050919050565b610c1f81610c0b565b82525050565b5f602082019050610c385f830184610c16565b92915050565b610c4781610b9a565b82525050565b5f602082019050610c605f830184610c3e565b92915050565b5f805f60608486031215610c7d57610c7c610b3c565b5b5f610c8a86828701610b86565b9350506020610c9b86828701610b86565b9250506040610cac86828701610bb9565b9150509250925092565b5f60ff82169050919050565b610ccb81610cb6565b82525050565b5f602082019050610ce45f830184610cc2565b92915050565b5f60208284031215610cff57610cfe610b3c565b5b5f610d0c84828501610b86565b91505092915050565b5f8060408385031215610d2b57610d2a610b3c565b5b5f610d3885828601610b86565b9250506020610d4985828601610b86565b9150509250929050565b7f4e487b71000000000000000000000000000000000000000000000000000000005f52602260045260245ffd5b5f6002820490506001821680610d9757607f821691505b602082108103610daa57610da9610d53565b5b50919050565b610db981610b5f565b82525050565b5f606082019050610dd25f830186610db0565b610ddf6020830185610c3e565b610dec6040830184610c3e565b949350505050565b5f602082019050610e075f830184610db0565b92915050565b7f4e487b71000000000000000000000000000000000000000000000000000000005f52601160045260245ffd5b5f610e4482610b9a565b9150610e4f83610b9a565b9250828201905080821115610e6757610e66610e0d565b5b9291505056fea2646970667358221220b316006f55bd0d05cb70b1458d10887e79c907e24f0b6c92703ca6136a330fe764736f6c63430008150033",
  "deployedBytecode": "0x608060405234801561000f575f80fd5b506004361061009c575f3560e01c806342372e101161006457806342372e101461015a57806370a082311461016457806395d89b4114610194578063a9059cbb146101b2578063dd62ed3e146101e25761009c565b806306fdde03146100a0578063095ea7b3146100be57806318160ddd146100ee57806323b872dd1461010c578063313ce5671461013c575b5f80fd5b6100a8610212565b6040516100b59190610b1c565b60405180910390f35b6100d860048036038101906100d39190610bcd565b6102a2565b6040516100e59190610c25565b60405180910390f35b6100f66102c4565b6040516101039190610c4d565b60405180910390f35b61012660048036038101906101219190610c66565b6102cd565b6040516101339190610c25565b60405180910390f35b6101446102fb565b6040516101519190610cd1565b60405180910390f35b610162610303565b005b61017e60048036038101906101799190610cea565b610317565b60405161018b9190610c4d565b60405180910390f35b61019c61035c565b6040516101a99190610b1c565b60405180910390f35b6101cc60048036038101906101c79190610bcd565b6103ec565b6040516101d99190610c25565b60405180910390f35b6101fc60048036038101906101f79190610d15565b61040e565b6040516102099190610c4d565b60405180910390f35b60606003805461022190610d80565b80601f016020809104026020016040519081016040528092919081815260200182805461024d90610d80565b80156102985780601f1061026f57610100808354040283529160200191610298565b820191905f5260205f20905b81548152906001019060200180831161027b57829003601f168201915b5050505050905090565b5f806102ac610490565b90506102b9818585610497565b600191505092915050565b5f600254905090565b5f806102d7610490565b90506102e48582856104a9565b6102ef85858561053b565b60019150509392505050565b5f6012905090565b61031533678ac7230489e8000061062b565b565b5f805f8373ffffffffffffffffffffffffffffffffffffffff1673ffffffffffffffffffffffffffffffffffffffff1681526020019081526020015f20549050919050565b60606004805461036b90610d80565b80601f016020809104026020016040519081016040528092919081815260200182805461039790610d80565b80156103e25780601f106103b9576101008083540402835291602001916103e2565b820191905f5260205f20905b8154815290600101906020018083116103c557829003601f168201915b5050505050905090565b5f806103f6610490565b905061040381858561053b565b600191505092915050565b5f60015f8473ffffffffffffffffffffffffffffffffffffffff1673ffffffffffffffffffffffffffffffffffffffff1681526020019081526020015f205f8373ffffffffffffffffffffffffffffffffffffffff1673ffffffffffffffffffffffffffffffffffffffff1681526020019081526020015f2054905092915050565b5f33905090565b6104a483838360016106aa565b505050565b5f6104b4848461040e565b90507fffffffffffffffffffffffffffffffffffffffffffffffffffffffffffffffff81146105355781811015610526578281836040517ffb8f41b200000000000000000000000000000000000000000000000000000000815260040161051d93929190610dbf565b60405180910390fd5b61053484848484035f6106aa565b5b50505050565b5f73ffffffffffffffffffffffffffffffffffffffff168373ffffffffffffffffffffffffffffffffffffffff16036105ab575f6040517f96c6fd1e0000000000000000000000000000000000000000000000000000000081526004016105a29190610df4565b60405180910390fd5b5f73ffffffffffffffffffffffffffffffffffffffff168273ffffffffffffffffffffffffffffffffffffffff160361061b575f6040517fec442f050000000000000000000000000000000000000000000000000000000081526004016106129190610df4565b60405180910390fd5b610626838383610879565b505050565b5f73ffffffffffffffffffffffffffffffffffffffff168273ffffffffffffffffffffffffffffffffffffffff160361069b575f6040517fec442f050000000000000000000000000000000000000000000000000000000081526004016106929190610df4565b60405180910390fd5b6106a65f8383610879565b5050565b5f73ffffffffffffffffffffffffffffffffffffffff168473ffffffffffffffffffffffffffffffffffffffff160361071a575f6040517fe602df050000000000000000000000000000000000000000000000000000000081526004016107119190610df4565b60405180910390fd5b5f73ffffffffffffffffffffffffffffffffffffffff168373ffffffffffffffffffffffffffffffffffffffff160361078a575f6040517f94280d620000000000000000000000000000000000000000000000000000000081526004016107819190610df4565b60405180910390fd5b8160015f8673ffffffffffffffffffffffffffffffffffffffff1673ffffffffffffffffffffffffffffffffffffffff1681526020019081526020015f205f8573ffffffffffffffffffffffffffffffffffffffff1673ffffffffffffffffffffffffffffffffffffffff1681526020019081526020015f20819055508015610873578273ffffffffffffffffffffffffffffffffffffffff168473ffffffffffffffffffffffffffffffffffffffff167f8c5be1e5ebec7d5bd14f71427d1e84f3dd0314c0f7b2291e5b200ac8c7c3b9258460405161086a9190610c4d565b60405180910390a35b50505050565b5f73ffffffffffffffffffffffffffffffffffffffff168373ffffffffffffffffffffffffffffffffffffffff16036108c9578060025f8282546108bd9190610e3a565b92505081905550610997565b5f805f8573ffffffffffffffffffffffffffffffffffffffff1673ffffffffffffffffffffffffffffffffffffffff1681526020019081526020015f2054905081811015610952578381836040517fe450d38c00000000000000000000000000000000000000000000000000000000815260040161094993929190610dbf565b60405180910390fd5b8181035f808673ffffffffffffffffffffffffffffffffffffffff1673ffffffffffffffffffffffffffffffffffffffff1681526020019081526020015f2081905550505b5f73ffffffffffffffffffffffffffffffffffffffff168273ffffffffffffffffffffffffffffffffffffffff16036109de578060025f8282540392505081905550610a28565b805f808473ffffffffffffffffffffffffffffffffffffffff1673ffffffffffffffffffffffffffffffffffffffff1681526020019081526020015f205f82825401925050819055505b8173ffffffffffffffffffffffffffffffffffffffff168373ffffffffffffffffffffffffffffffffffffffff167fddf252ad1be2c89b69c2b068fc378daa952ba7f163c4a11628f55a4df523b3ef83604051610a859190610c4d565b60405180910390a3505050565b5f81519050919050565b5f82825260208201905092915050565b5f5b83811015610ac9578082015181840152602081019050610aae565b5f8484015250505050565b5f601f19601f8301169050919050565b5f610aee82610a92565b610af88185610a9c565b9350610b08818560208601610aac565b610b1181610ad4565b840191505092915050565b5f6020820190508181035f830152610b348184610ae4565b905092915050565b5f80fd5b5f73ffffffffffffffffffffffffffffffffffffffff82169050919050565b5f610b6982610b40565b9050919050565b610b7981610b5f565b8114610b83575f80fd5b50565b5f81359050610b9481610b70565b92915050565b5f819050919050565b610bac81610b9a565b8114610bb6575f80fd5b50565b5f81359050610bc781610ba3565b92915050565b5f8060408385031215610be357610be2610b3c565b5b5f610bf085828601610b86565b9250506020610c0185828601610bb9565b9150509250929050565b5f8115159050919050565b610c1f81610c0b565b82525050565b5f602082019050610c385f830184610c16565b92915050565b610c4781610b9a565b82525050565b5f602082019050610c605f830184610c3e565b92915050565b5f805f60608486031215610c7d57610c7c610b3c565b5b5f610c8a86828701610b86565b9350506020610c9b86828701610b86565b9250506040610cac86828701610bb9565b9150509250925092565b5f60ff82169050919050565b610ccb81610cb6565b82525050565b5f602082019050610ce45f830184610cc2565b92915050565b5f60208284031215610cff57610cfe610b3c565b5b5f610d0c84828501610b86565b91505092915050565b5f8060408385031215610d2b57610d2a610b3c565b5b5f610d3885828601610b86565b9250506020610d4985828601610b86565b9150509250929050565b7f4e487b71000000000000000000000000000000000000000000000000000000005f52602260045260245ffd5b5f6002820490506001821680610d9757607f821691505b602082108103610daa57610da9610d53565b5b50919050565b610db981610b5f565b82525050565b5f606082019050610dd25f830186610db0565b610ddf6020830185610c3e565b610dec6040830184610c3e565b949350505050565b5f602082019050610e075f830184610db0565b92915050565b7f4e487b71000000000000000000000000000000000000000000000000000000005f52601160045260245ffd5b5f610e4482610b9a565b9150610e4f83610b9a565b9250828201905080821115610e6757610e66610e0d565b5b9291505056fea2646970667358221220b316006f55bd0d05cb70b1458d10887e79c907e24f0b6c92703ca6136a330fe764736f6c63430008150033",
  "immutableReferences": {},
  "source": "// SPDX-License-Identifier: MIT\r\npragma solidity ^0.8;\r\n\r\nimport \"@openzeppelin/contracts/token/ERC20/ERC20.sol\";\r\nimport \"@openzeppelin/contracts/utils/Strings.sol\";\r\nimport \"./utils/MyStringUtils.sol\";\r\ncontract Gym is ERC20{\r\n    constructor() public ERC20(Strings.toHexString(uint256(uint160(address(this))), 20),MyStringUtils.strcat(\"KFGym-\", MyStringUtils.substring(Strings.toHexString(uint256(uint160(address(this))), 20),2,7))){}\r\n    function _mintToken() public{\r\n        _mint(msg.sender, 1000 * 10000000000000000);\r\n    }\r\n}",
  "sourcePath": "D:\\Project\\KeeepFit\\KeeepFit-SmartContract\\contracts\\Gym.sol",
  "compiler": {
    "name": "solc",
    "version": "0.8.21+commit.d9974bed.Emscripten.clang"
  },
  "schemaVersion": "3.4.16",
  "updatedAt": "2024-03-07T05:02:07.273Z",
  "networkType": "ethereum",
  "devdoc": {
    "errors": {
      "ERC20InsufficientAllowance(address,uint256,uint256)": [
        {
          "details": "Indicates a failure with the `spender`s `allowance`. Used in transfers.",
          "params": {
            "allowance": "Amount of tokens a `spender` is allowed to operate with.",
            "needed": "Minimum amount required to perform a transfer.",
            "spender": "Address that may be allowed to operate on tokens without being their owner."
          }
        }
      ],
      "ERC20InsufficientBalance(address,uint256,uint256)": [
        {
          "details": "Indicates an error related to the current `balance` of a `sender`. Used in transfers.",
          "params": {
            "balance": "Current balance for the interacting account.",
            "needed": "Minimum amount required to perform a transfer.",
            "sender": "Address whose tokens are being transferred."
          }
        }
      ],
      "ERC20InvalidApprover(address)": [
        {
          "details": "Indicates a failure with the `approver` of a token to be approved. Used in approvals.",
          "params": {
            "approver": "Address initiating an approval operation."
          }
        }
      ],
      "ERC20InvalidReceiver(address)": [
        {
          "details": "Indicates a failure with the token `receiver`. Used in transfers.",
          "params": {
            "receiver": "Address to which tokens are being transferred."
          }
        }
      ],
      "ERC20InvalidSender(address)": [
        {
          "details": "Indicates a failure with the token `sender`. Used in transfers.",
          "params": {
            "sender": "Address whose tokens are being transferred."
          }
        }
      ],
      "ERC20InvalidSpender(address)": [
        {
          "details": "Indicates a failure with the `spender` to be approved. Used in approvals.",
          "params": {
            "spender": "Address that may be allowed to operate on tokens without being their owner."
          }
        }
      ],
      "StringsInsufficientHexLength(uint256,uint256)": [
        {
          "details": "The `value` string doesn't fit in the specified `length`."
        }
      ]
    },
    "events": {
      "Approval(address,address,uint256)": {
        "details": "Emitted when the allowance of a `spender` for an `owner` is set by a call to {approve}. `value` is the new allowance."
      },
      "Transfer(address,address,uint256)": {
        "details": "Emitted when `value` tokens are moved from one account (`from`) to another (`to`). Note that `value` may be zero."
      }
    },
    "kind": "dev",
    "methods": {
      "allowance(address,address)": {
        "details": "See {IERC20-allowance}."
      },
      "approve(address,uint256)": {
        "details": "See {IERC20-approve}. NOTE: If `value` is the maximum `uint256`, the allowance is not updated on `transferFrom`. This is semantically equivalent to an infinite approval. Requirements: - `spender` cannot be the zero address."
      },
      "balanceOf(address)": {
        "details": "See {IERC20-balanceOf}."
      },
      "decimals()": {
        "details": "Returns the number of decimals used to get its user representation. For example, if `decimals` equals `2`, a balance of `505` tokens should be displayed to a user as `5.05` (`505 / 10 ** 2`). Tokens usually opt for a value of 18, imitating the relationship between Ether and Wei. This is the default value returned by this function, unless it's overridden. NOTE: This information is only used for _display_ purposes: it in no way affects any of the arithmetic of the contract, including {IERC20-balanceOf} and {IERC20-transfer}."
      },
      "name()": {
        "details": "Returns the name of the token."
      },
      "symbol()": {
        "details": "Returns the symbol of the token, usually a shorter version of the name."
      },
      "totalSupply()": {
        "details": "See {IERC20-totalSupply}."
      },
      "transfer(address,uint256)": {
        "details": "See {IERC20-transfer}. Requirements: - `to` cannot be the zero address. - the caller must have a balance of at least `value`."
      },
      "transferFrom(address,address,uint256)": {
        "details": "See {IERC20-transferFrom}. Emits an {Approval} event indicating the updated allowance. This is not required by the EIP. See the note at the beginning of {ERC20}. NOTE: Does not update the allowance if the current allowance is the maximum `uint256`. Requirements: - `from` and `to` cannot be the zero address. - `from` must have a balance of at least `value`. - the caller must have allowance for ``from``'s tokens of at least `value`."
      }
    },
    "version": 1
  },
  "userdoc": {
    "kind": "user",
    "methods": {},
    "version": 1
  }
}