{
  "contractName": "MyStringUtils",
  "abi": [
    {
      "inputs": [
        {
          "internalType": "string",
          "name": "str1",
          "type": "string"
        },
        {
          "internalType": "string",
          "name": "str2",
          "type": "string"
        }
      ],
      "name": "strcat",
      "outputs": [
        {
          "internalType": "string",
          "name": "",
          "type": "string"
        }
      ],
      "stateMutability": "pure",
      "type": "function",
      "constant": true
    },
    {
      "inputs": [
        {
          "internalType": "string",
          "name": "str",
          "type": "string"
        },
        {
          "internalType": "uint256",
          "name": "startInd",
          "type": "uint256"
        },
        {
          "internalType": "uint256",
          "name": "endInd",
          "type": "uint256"
        }
      ],
      "name": "substring",
      "outputs": [
        {
          "internalType": "string",
          "name": "",
          "type": "string"
        }
      ],
      "stateMutability": "pure",
      "type": "function",
      "constant": true
    }
  ],
  "bytecode": "0x61074f61004e600b8282823980515f1a607314610042577f4e487b71000000000000000000000000000000000000000000000000000000005f525f60045260245ffd5b305f52607381538281f3fe730000000000000000000000000000000000000000301460806040526004361061003f575f3560e01c80631dcd9b5514610043578063d824ccf314610073575b5f80fd5b61005d60048036038101906100589190610496565b6100a3565b60405161006a919061057c565b60405180910390f35b61008d6004803603810190610088919061059c565b61019b565b60405161009a919061057c565b60405180910390f35b60605f8490505f84846100b6919061063f565b67ffffffffffffffff8111156100cf576100ce61033f565b5b6040519080825280601f01601f1916602001820160405280156101015781602001600182028036833780820191505090505b5090505f8590505b8481101561018e5782818151811061012457610123610672565b5b602001015160f81c60f81b82878361013c919061063f565b8151811061014d5761014c610672565b5b60200101907effffffffffffffffffffffffffffffffffffffffffffffffffffffffffffff191690815f1a90535080806101869061069f565b915050610109565b5080925050509392505050565b60605f8390505f8390505f815183516101b491906106e6565b67ffffffffffffffff8111156101cd576101cc61033f565b5b6040519080825280601f01601f1916602001820160405280156101ff5781602001600182028036833780820191505090505b5090505f5b835181101561027f578381815181106102205761021f610672565b5b602001015160f81c60f81b82828151811061023e5761023d610672565b5b60200101907effffffffffffffffffffffffffffffffffffffffffffffffffffffffffffff191690815f1a90535080806102779061069f565b915050610204565b505f5b82518110156103095782818151811061029e5761029d610672565b5b602001015160f81c60f81b828286516102b791906106e6565b815181106102c8576102c7610672565b5b60200101907effffffffffffffffffffffffffffffffffffffffffffffffffffffffffffff191690815f1a90535080806103019061069f565b915050610282565b5080935050505092915050565b5f604051905090565b5f80fd5b5f80fd5b5f80fd5b5f80fd5b5f601f19601f8301169050919050565b7f4e487b71000000000000000000000000000000000000000000000000000000005f52604160045260245ffd5b6103758261032f565b810181811067ffffffffffffffff821117156103945761039361033f565b5b80604052505050565b5f6103a6610316565b90506103b2828261036c565b919050565b5f67ffffffffffffffff8211156103d1576103d061033f565b5b6103da8261032f565b9050602081019050919050565b828183375f83830152505050565b5f610407610402846103b7565b61039d565b9050828152602081018484840111156104235761042261032b565b5b61042e8482856103e7565b509392505050565b5f82601f83011261044a57610449610327565b5b813561045a8482602086016103f5565b91505092915050565b5f819050919050565b61047581610463565b811461047f575f80fd5b50565b5f813590506104908161046c565b92915050565b5f805f606084860312156104ad576104ac61031f565b5b5f84013567ffffffffffffffff8111156104ca576104c9610323565b5b6104d686828701610436565b93505060206104e786828701610482565b92505060406104f886828701610482565b9150509250925092565b5f81519050919050565b5f82825260208201905092915050565b5f5b8381101561053957808201518184015260208101905061051e565b5f8484015250505050565b5f61054e82610502565b610558818561050c565b935061056881856020860161051c565b6105718161032f565b840191505092915050565b5f6020820190508181035f8301526105948184610544565b905092915050565b5f80604083850312156105b2576105b161031f565b5b5f83013567ffffffffffffffff8111156105cf576105ce610323565b5b6105db85828601610436565b925050602083013567ffffffffffffffff8111156105fc576105fb610323565b5b61060885828601610436565b9150509250929050565b7f4e487b71000000000000000000000000000000000000000000000000000000005f52601160045260245ffd5b5f61064982610463565b915061065483610463565b925082820390508181111561066c5761066b610612565b5b92915050565b7f4e487b71000000000000000000000000000000000000000000000000000000005f52603260045260245ffd5b5f6106a982610463565b91507fffffffffffffffffffffffffffffffffffffffffffffffffffffffffffffffff82036106db576106da610612565b5b600182019050919050565b5f6106f082610463565b91506106fb83610463565b925082820190508082111561071357610712610612565b5b9291505056fea26469706673582212208a353227c7d7dce502cd3eb6e8847f204eb2f6d412e374eb603f94231e7fa2e364736f6c63430008150033",
  "immutableReferences": {},
  "source": "// SPDX-License-Identifier: MIT\r\n// author: @GentleXu\r\npragma solidity ^0.8;\r\nlibrary MyStringUtils{\r\n    function strcat(string memory str1, string memory str2) public pure returns(string memory) {\r\n        bytes memory s1 = bytes(str1);\r\n        bytes memory s2 = bytes(str2);\r\n        bytes memory res = new bytes(s1.length + s2.length);\r\n        for(uint i=0; i<s1.length; i++){\r\n            res[i] = s1[i];\r\n        }\r\n        for(uint i=0; i<s2.length; i++){\r\n            res[s1.length + i] = s2[i];\r\n        }\r\n        return string(res);\r\n    }\r\n    function substring(string memory str, uint startInd, uint endInd) public pure returns(string memory){\r\n        bytes memory strBytes = bytes(str);\r\n        bytes memory endStr = new bytes(endInd - startInd);\r\n        for(uint i=startInd; i<endInd; i++){\r\n            endStr[i-startInd] = strBytes[i];\r\n        }\r\n        return string(endStr);\r\n    }\r\n}",
  "sourcePath": "D:\\Project\\KeeepFit\\KeeepFit-SmartContract\\contracts\\utils\\MyStringUtils.sol",
  "compiler": {
    "name": "solc",
    "version": "0.8.21+commit.d9974bed.Emscripten.clang"
  },
  "schemaVersion": "3.4.16",
  "updatedAt": "2024-03-07T05:02:07.278Z",
  "networkType": "ethereum",
  "devdoc": {
    "kind": "dev",
    "methods": {},
    "version": 1
  },
  "userdoc": {
    "kind": "user",
    "methods": {},
    "version": 1
  }
}